{
  "_format": "hh-sol-artifact-1",
  "contractName": "TRY26",
  "sourceName": "contracts/TRY26.sol",
  "abi": [
    {
      "inputs": [],
      "stateMutability": "nonpayable",
      "type": "constructor"
    },
    {
      "inputs": [
        {
          "internalType": "address",
          "name": "from",
          "type": "address"
        },
        {
          "internalType": "uint256",
          "name": "tokenId",
          "type": "uint256"
        },
        {
          "internalType": "address",
          "name": "previousOwner",
          "type": "address"
        }
      ],
      "name": "ERC721IncorrectOwner",
      "type": "error"
    },
    {
      "inputs": [
        {
          "internalType": "address",
          "name": "receiver",
          "type": "address"
        }
      ],
      "name": "ERC721InvalidReceiver",
      "type": "error"
    },
    {
      "inputs": [],
      "name": "IndexOutOfBounds",
      "type": "error"
    },
    {
      "inputs": [],
      "name": "InvalidBatch",
      "type": "error"
    },
    {
      "inputs": [],
      "name": "InvalidShortString",
      "type": "error"
    },
    {
      "inputs": [
        {
          "internalType": "address",
          "name": "creator",
          "type": "address"
        },
        {
          "internalType": "address",
          "name": "signer",
          "type": "address"
        }
      ],
      "name": "InvalidSigner",
      "type": "error"
    },
    {
      "inputs": [],
      "name": "MethodNotAllowed",
      "type": "error"
    },
    {
      "inputs": [
        {
          "internalType": "address",
          "name": "owner",
          "type": "address"
        }
      ],
      "name": "OwnableInvalidOwner",
      "type": "error"
    },
    {
      "inputs": [
        {
          "internalType": "address",
          "name": "account",
          "type": "address"
        }
      ],
      "name": "OwnableUnauthorizedAccount",
      "type": "error"
    },
    {
      "inputs": [
        {
          "internalType": "bytes32",
          "name": "reservation",
          "type": "bytes32"
        }
      ],
      "name": "ReservationNotChanged",
      "type": "error"
    },
    {
      "inputs": [
        {
          "internalType": "bytes32",
          "name": "reservation",
          "type": "bytes32"
        }
      ],
      "name": "ReservationNotFound",
      "type": "error"
    },
    {
      "inputs": [
        {
          "internalType": "string",
          "name": "str",
          "type": "string"
        }
      ],
      "name": "StringTooLong",
      "type": "error"
    },
    {
      "inputs": [
        {
          "internalType": "uint256",
          "name": "batchId",
          "type": "uint256"
        },
        {
          "internalType": "bytes32",
          "name": "ticketId",
          "type": "bytes32"
        }
      ],
      "name": "TicketAlreadyClaimed",
      "type": "error"
    },
    {
      "inputs": [
        {
          "internalType": "uint256",
          "name": "batchId",
          "type": "uint256"
        },
        {
          "internalType": "bytes32",
          "name": "ticketId",
          "type": "bytes32"
        }
      ],
      "name": "TicketNotFound",
      "type": "error"
    },
    {
      "inputs": [
        {
          "internalType": "uint256",
          "name": "tokenId",
          "type": "uint256"
        }
      ],
      "name": "TokenNotFound",
      "type": "error"
    },
    {
      "anonymous": false,
      "inputs": [
        {
          "indexed": true,
          "internalType": "address",
          "name": "owner",
          "type": "address"
        },
        {
          "indexed": true,
          "internalType": "address",
          "name": "approved",
          "type": "address"
        },
        {
          "indexed": true,
          "internalType": "uint256",
          "name": "tokenId",
          "type": "uint256"
        }
      ],
      "name": "Approval",
      "type": "event"
    },
    {
      "anonymous": false,
      "inputs": [
        {
          "indexed": true,
          "internalType": "address",
          "name": "owner",
          "type": "address"
        },
        {
          "indexed": true,
          "internalType": "address",
          "name": "operator",
          "type": "address"
        },
        {
          "indexed": false,
          "internalType": "bool",
          "name": "approved",
          "type": "bool"
        }
      ],
      "name": "ApprovalForAll",
      "type": "event"
    },
    {
      "anonymous": false,
      "inputs": [
        {
          "indexed": true,
          "internalType": "uint256",
          "name": "batchId",
          "type": "uint256"
        },
        {
          "indexed": true,
          "internalType": "uint128",
          "name": "metadataId",
          "type": "uint128"
        },
        {
          "indexed": true,
          "internalType": "address",
          "name": "creator",
          "type": "address"
        },
        {
          "indexed": false,
          "internalType": "uint256",
          "name": "amount",
          "type": "uint256"
        }
      ],
      "name": "BatchMinted",
      "type": "event"
    },
    {
      "anonymous": false,
      "inputs": [
        {
          "indexed": true,
          "internalType": "uint256",
          "name": "batchId",
          "type": "uint256"
        },
        {
          "indexed": true,
          "internalType": "uint128",
          "name": "metadataId",
          "type": "uint128"
        },
        {
          "indexed": true,
          "internalType": "address",
          "name": "creator",
          "type": "address"
        },
        {
          "indexed": false,
          "internalType": "uint256",
          "name": "nbTickets",
          "type": "uint256"
        }
      ],
      "name": "BatchPreMinted",
      "type": "event"
    },
    {
      "anonymous": false,
      "inputs": [],
      "name": "EIP712DomainChanged",
      "type": "event"
    },
    {
      "anonymous": false,
      "inputs": [
        {
          "indexed": true,
          "internalType": "address",
          "name": "previousOwner",
          "type": "address"
        },
        {
          "indexed": true,
          "internalType": "address",
          "name": "newOwner",
          "type": "address"
        }
      ],
      "name": "OwnershipTransferred",
      "type": "event"
    },
    {
      "anonymous": false,
      "inputs": [
        {
          "indexed": true,
          "internalType": "address",
          "name": "owner",
          "type": "address"
        },
        {
          "indexed": false,
          "internalType": "bytes32",
          "name": "reservation",
          "type": "bytes32"
        },
        {
          "indexed": false,
          "internalType": "uint256",
          "name": "unlock",
          "type": "uint256"
        }
      ],
      "name": "TicketReserved",
      "type": "event"
    },
    {
      "anonymous": false,
      "inputs": [
        {
          "indexed": true,
          "internalType": "address",
          "name": "from",
          "type": "address"
        },
        {
          "indexed": true,
          "internalType": "address",
          "name": "to",
          "type": "address"
        },
        {
          "indexed": true,
          "internalType": "uint256",
          "name": "tokenId",
          "type": "uint256"
        }
      ],
      "name": "Transfer",
      "type": "event"
    },
    {
      "inputs": [
        {
          "internalType": "address",
          "name": "",
          "type": "address"
        },
        {
          "internalType": "uint256",
          "name": "",
          "type": "uint256"
        }
      ],
      "name": "approve",
      "outputs": [],
      "stateMutability": "pure",
      "type": "function"
    },
    {
      "inputs": [
        {
          "internalType": "address",
          "name": "target",
          "type": "address"
        }
      ],
      "name": "balanceOf",
      "outputs": [
        {
          "internalType": "uint256",
          "name": "",
          "type": "uint256"
        }
      ],
      "stateMutability": "view",
      "type": "function"
    },
    {
      "inputs": [
        {
          "internalType": "uint256",
          "name": "tokenId",
          "type": "uint256"
        }
      ],
      "name": "burn",
      "outputs": [],
      "stateMutability": "nonpayable",
      "type": "function"
    },
    {
      "inputs": [
        {
          "components": [
            {
              "internalType": "uint256",
              "name": "batchId",
              "type": "uint256"
            },
            {
              "internalType": "bytes32",
              "name": "batchSecret",
              "type": "bytes32"
            },
            {
              "internalType": "bytes32",
              "name": "ticketSecret",
              "type": "bytes32"
            },
            {
              "components": [
                {
                  "internalType": "uint8",
                  "name": "v",
                  "type": "uint8"
                },
                {
                  "internalType": "bytes32",
                  "name": "r",
                  "type": "bytes32"
                },
                {
                  "internalType": "bytes32",
                  "name": "s",
                  "type": "bytes32"
                }
              ],
              "internalType": "struct TRY26.Signature",
              "name": "signature",
              "type": "tuple"
            }
          ],
          "internalType": "struct TRY26.Ticket",
          "name": "ticket",
          "type": "tuple"
        }
      ],
      "name": "claim",
      "outputs": [],
      "stateMutability": "nonpayable",
      "type": "function"
    },
    {
      "inputs": [],
      "name": "contractURI",
      "outputs": [
        {
          "internalType": "string",
          "name": "",
          "type": "string"
        }
      ],
      "stateMutability": "pure",
      "type": "function"
    },
    {
      "inputs": [],
      "name": "eip712Domain",
      "outputs": [
        {
          "internalType": "bytes1",
          "name": "fields",
          "type": "bytes1"
        },
        {
          "internalType": "string",
          "name": "name",
          "type": "string"
        },
        {
          "internalType": "string",
          "name": "version",
          "type": "string"
        },
        {
          "internalType": "uint256",
          "name": "chainId",
          "type": "uint256"
        },
        {
          "internalType": "address",
          "name": "verifyingContract",
          "type": "address"
        },
        {
          "internalType": "bytes32",
          "name": "salt",
          "type": "bytes32"
        },
        {
          "internalType": "uint256[]",
          "name": "extensions",
          "type": "uint256[]"
        }
      ],
      "stateMutability": "view",
      "type": "function"
    },
    {
      "inputs": [
        {
          "internalType": "uint256",
          "name": "",
          "type": "uint256"
        }
      ],
      "name": "getApproved",
      "outputs": [
        {
          "internalType": "address",
          "name": "",
          "type": "address"
        }
      ],
      "stateMutability": "pure",
      "type": "function"
    },
    {
      "inputs": [
        {
          "internalType": "uint256",
          "name": "batchId",
          "type": "uint256"
        }
      ],
      "name": "getBatch",
      "outputs": [
        {
          "components": [
            {
              "internalType": "uint128",
              "name": "metadataId",
              "type": "uint128"
            },
            {
              "internalType": "uint128",
              "name": "createdAt",
              "type": "uint128"
            },
            {
              "internalType": "address",
              "name": "creator",
              "type": "address"
            },
            {
              "internalType": "uint96",
              "name": "totalTickets",
              "type": "uint96"
            }
          ],
          "internalType": "struct TRY26.Batch",
          "name": "batch",
          "type": "tuple"
        }
      ],
      "stateMutability": "view",
      "type": "function"
    },
    {
      "inputs": [
        {
          "internalType": "uint256",
          "name": "tokenId",
          "type": "uint256"
        }
      ],
      "name": "getFullToken",
      "outputs": [
        {
          "components": [
            {
              "components": [
                {
                  "internalType": "address",
                  "name": "owner",
                  "type": "address"
                },
                {
                  "internalType": "uint256",
                  "name": "batchId",
                  "type": "uint256"
                },
                {
                  "internalType": "bytes32",
                  "name": "ticketId",
                  "type": "bytes32"
                }
              ],
              "internalType": "struct TRY26.Token",
              "name": "token",
              "type": "tuple"
            },
            {
              "components": [
                {
                  "internalType": "uint128",
                  "name": "metadataId",
                  "type": "uint128"
                },
                {
                  "internalType": "uint128",
                  "name": "createdAt",
                  "type": "uint128"
                },
                {
                  "internalType": "address",
                  "name": "creator",
                  "type": "address"
                },
                {
                  "internalType": "uint96",
                  "name": "totalTickets",
                  "type": "uint96"
                }
              ],
              "internalType": "struct TRY26.Batch",
              "name": "batch",
              "type": "tuple"
            }
          ],
          "internalType": "struct TRY26.FullToken",
          "name": "",
          "type": "tuple"
        }
      ],
      "stateMutability": "view",
      "type": "function"
    },
    {
      "inputs": [
        {
          "internalType": "bytes32",
          "name": "reservation",
          "type": "bytes32"
        }
      ],
      "name": "getReservation",
      "outputs": [
        {
          "internalType": "uint256",
          "name": "unlock",
          "type": "uint256"
        }
      ],
      "stateMutability": "view",
      "type": "function"
    },
    {
      "inputs": [
        {
          "internalType": "uint256",
          "name": "tokenId",
          "type": "uint256"
        }
      ],
      "name": "getToken",
      "outputs": [
        {
          "components": [
            {
              "internalType": "address",
              "name": "owner",
              "type": "address"
            },
            {
              "internalType": "uint256",
              "name": "batchId",
              "type": "uint256"
            },
            {
              "internalType": "bytes32",
              "name": "ticketId",
              "type": "bytes32"
            }
          ],
          "internalType": "struct TRY26.Token",
          "name": "",
          "type": "tuple"
        }
      ],
      "stateMutability": "view",
      "type": "function"
    },
    {
      "inputs": [
        {
          "internalType": "address",
          "name": "",
          "type": "address"
        },
        {
          "internalType": "address",
          "name": "",
          "type": "address"
        }
      ],
      "name": "isApprovedForAll",
      "outputs": [
        {
          "internalType": "bool",
          "name": "",
          "type": "bool"
        }
      ],
      "stateMutability": "pure",
      "type": "function"
    },
    {
      "inputs": [
        {
          "internalType": "address",
          "name": "forwarder",
          "type": "address"
        }
      ],
      "name": "isTrustedForwarder",
      "outputs": [
        {
          "internalType": "bool",
          "name": "",
          "type": "bool"
        }
      ],
      "stateMutability": "view",
      "type": "function"
    },
    {
      "inputs": [
        {
          "internalType": "uint128",
          "name": "metadataId",
          "type": "uint128"
        },
        {
          "internalType": "uint256",
          "name": "amount",
          "type": "uint256"
        }
      ],
      "name": "mint",
      "outputs": [],
      "stateMutability": "nonpayable",
      "type": "function"
    },
    {
      "inputs": [],
      "name": "name",
      "outputs": [
        {
          "internalType": "string",
          "name": "",
          "type": "string"
        }
      ],
      "stateMutability": "pure",
      "type": "function"
    },
    {
      "inputs": [],
      "name": "owner",
      "outputs": [
        {
          "internalType": "address",
          "name": "",
          "type": "address"
        }
      ],
      "stateMutability": "view",
      "type": "function"
    },
    {
      "inputs": [
        {
          "internalType": "uint256",
          "name": "tokenId",
          "type": "uint256"
        }
      ],
      "name": "ownerOf",
      "outputs": [
        {
          "internalType": "address",
          "name": "",
          "type": "address"
        }
      ],
      "stateMutability": "view",
      "type": "function"
    },
    {
      "inputs": [
        {
          "internalType": "uint128",
          "name": "metadataId",
          "type": "uint128"
        },
        {
          "internalType": "bytes32[]",
          "name": "tickets",
          "type": "bytes32[]"
        }
      ],
      "name": "preMint",
      "outputs": [],
      "stateMutability": "nonpayable",
      "type": "function"
    },
    {
      "inputs": [],
      "name": "renounceOwnership",
      "outputs": [],
      "stateMutability": "nonpayable",
      "type": "function"
    },
    {
      "inputs": [
        {
          "internalType": "bytes32",
          "name": "reservation",
          "type": "bytes32"
        }
      ],
      "name": "reserve",
      "outputs": [],
      "stateMutability": "nonpayable",
      "type": "function"
    },
    {
      "inputs": [
        {
          "internalType": "address",
          "name": "from",
          "type": "address"
        },
        {
          "internalType": "address",
          "name": "to",
          "type": "address"
        },
        {
          "internalType": "uint256",
          "name": "tokenId",
          "type": "uint256"
        }
      ],
      "name": "safeTransferFrom",
      "outputs": [],
      "stateMutability": "nonpayable",
      "type": "function"
    },
    {
      "inputs": [
        {
          "internalType": "address",
          "name": "from",
          "type": "address"
        },
        {
          "internalType": "address",
          "name": "to",
          "type": "address"
        },
        {
          "internalType": "uint256",
          "name": "tokenId",
          "type": "uint256"
        },
        {
          "internalType": "bytes",
          "name": "",
          "type": "bytes"
        }
      ],
      "name": "safeTransferFrom",
      "outputs": [],
      "stateMutability": "nonpayable",
      "type": "function"
    },
    {
      "inputs": [
        {
          "internalType": "address",
          "name": "",
          "type": "address"
        },
        {
          "internalType": "bool",
          "name": "",
          "type": "bool"
        }
      ],
      "name": "setApprovalForAll",
      "outputs": [],
      "stateMutability": "pure",
      "type": "function"
    },
    {
      "inputs": [
        {
          "internalType": "bytes4",
          "name": "interfaceId",
          "type": "bytes4"
        }
      ],
      "name": "supportsInterface",
      "outputs": [
        {
          "internalType": "bool",
          "name": "",
          "type": "bool"
        }
      ],
      "stateMutability": "view",
      "type": "function"
    },
    {
      "inputs": [],
      "name": "symbol",
      "outputs": [
        {
          "internalType": "string",
          "name": "",
          "type": "string"
        }
      ],
      "stateMutability": "pure",
      "type": "function"
    },
    {
      "inputs": [
        {
          "internalType": "uint256",
          "name": "batchId",
          "type": "uint256"
        },
        {
          "internalType": "uint256",
          "name": "start",
          "type": "uint256"
        },
        {
          "internalType": "uint256",
          "name": "size",
          "type": "uint256"
        }
      ],
      "name": "ticketsByBatch",
      "outputs": [
        {
          "internalType": "bytes32[]",
          "name": "tickets",
          "type": "bytes32[]"
        }
      ],
      "stateMutability": "view",
      "type": "function"
    },
    {
      "inputs": [
        {
          "internalType": "uint256",
          "name": "index",
          "type": "uint256"
        }
      ],
      "name": "tokenByIndex",
      "outputs": [
        {
          "internalType": "uint256",
          "name": "",
          "type": "uint256"
        }
      ],
      "stateMutability": "view",
      "type": "function"
    },
    {
      "inputs": [
        {
          "internalType": "bytes32",
          "name": "ticketId",
          "type": "bytes32"
        }
      ],
      "name": "tokenIdByTicketId",
      "outputs": [
        {
          "internalType": "uint256",
          "name": "tokenId",
          "type": "uint256"
        }
      ],
      "stateMutability": "view",
      "type": "function"
    },
    {
      "inputs": [
        {
          "internalType": "address",
          "name": "target",
          "type": "address"
        },
        {
          "internalType": "uint256",
          "name": "start",
          "type": "uint256"
        },
        {
          "internalType": "uint256",
          "name": "size",
          "type": "uint256"
        }
      ],
      "name": "tokenIdsByOwner",
      "outputs": [
        {
          "internalType": "uint256[]",
          "name": "tokenIds",
          "type": "uint256[]"
        }
      ],
      "stateMutability": "view",
      "type": "function"
    },
    {
      "inputs": [
        {
          "internalType": "address",
          "name": "target",
          "type": "address"
        },
        {
          "internalType": "uint256",
          "name": "index",
          "type": "uint256"
        }
      ],
      "name": "tokenOfOwnerByIndex",
      "outputs": [
        {
          "internalType": "uint256",
          "name": "tokenId",
          "type": "uint256"
        }
      ],
      "stateMutability": "view",
      "type": "function"
    },
    {
      "inputs": [
        {
          "internalType": "uint256",
          "name": "tokenId",
          "type": "uint256"
        }
      ],
      "name": "tokenURI",
      "outputs": [
        {
          "internalType": "string",
          "name": "",
          "type": "string"
        }
      ],
      "stateMutability": "view",
      "type": "function"
    },
    {
      "inputs": [],
      "name": "totalBatches",
      "outputs": [
        {
          "internalType": "uint256",
          "name": "",
          "type": "uint256"
        }
      ],
      "stateMutability": "view",
      "type": "function"
    },
    {
      "inputs": [],
      "name": "totalSupply",
      "outputs": [
        {
          "internalType": "uint256",
          "name": "",
          "type": "uint256"
        }
      ],
      "stateMutability": "view",
      "type": "function"
    },
    {
      "inputs": [],
      "name": "totalTickets",
      "outputs": [
        {
          "internalType": "uint256",
          "name": "",
          "type": "uint256"
        }
      ],
      "stateMutability": "view",
      "type": "function"
    },
    {
      "inputs": [
        {
          "internalType": "address",
          "name": "from",
          "type": "address"
        },
        {
          "internalType": "address",
          "name": "to",
          "type": "address"
        },
        {
          "internalType": "uint256",
          "name": "tokenId",
          "type": "uint256"
        }
      ],
      "name": "transferFrom",
      "outputs": [],
      "stateMutability": "nonpayable",
      "type": "function"
    },
    {
      "inputs": [
        {
          "internalType": "address",
          "name": "newOwner",
          "type": "address"
        }
      ],
      "name": "transferOwnership",
      "outputs": [],
      "stateMutability": "nonpayable",
      "type": "function"
    }
  ],
  "bytecode": "0x610180604052348015610010575f80fd5b5073d8253782c45a12053594b9deb72d8e8ab2fca54c61002e610173565b604080518082018252601381527f5477656e747953697820536f756c626f756e6400000000000000000000000000602080830191909152825180840190935260018352603160f81b9083015290610085825f61019a565b6101205261009481600161019a565b61014052815160208084019190912060e052815190820120610100524660a05261012060e05161010051604080517f8b73c3c69bb8fe3d512ecc4cf759cc79239f7b179b0ffacaa9a75d522b39400f60208201529081019290925260608201524660808201523060a08201525f9060c00160405160208183030381529060405280519060200120905090565b60805250503060c0526001600160a01b03811661015757604051631e4fbdf760e01b81525f60048201526024015b60405180910390fd5b610160816101cc565b506001600160a01b031661016052610404565b610160515f906001600160a01b03163303610195575060131936013560601c90565b503390565b5f6020835110156101b5576101ae8361021d565b90506101c6565b816101c084826102f2565b5060ff90505b92915050565b600280546001600160a01b038381166001600160a01b0319831681179093556040519116919082907f8be0079c531659141344cd1fd0a4f28419497f9722a3daafe3b4186f6b6457e0905f90a35050565b5f80829050601f81511115610247578260405163305a27a960e01b815260040161014e91906103ac565b8051610252826103e1565b179392505050565b634e487b7160e01b5f52604160045260245ffd5b600181811c9082168061028257607f821691505b6020821081036102a057634e487b7160e01b5f52602260045260245ffd5b50919050565b601f8211156102ed57805f5260205f20601f840160051c810160208510156102cb5750805b601f840160051c820191505b818110156102ea575f81556001016102d7565b50505b505050565b81516001600160401b0381111561030b5761030b61025a565b61031f81610319845461026e565b846102a6565b6020601f821160018114610351575f831561033a5750848201515b5f19600385901b1c1916600184901b1784556102ea565b5f84815260208120601f198516915b828110156103805787850151825560209485019460019092019101610360565b508482101561039d57868401515f19600387901b60f8161c191681555b50505050600190811b01905550565b602081525f82518060208401528060208501604085015e5f604082850101526040601f19601f83011684010191505092915050565b805160208083015191908110156102a0575f1960209190910360031b1b16919050565b60805160a05160c05160e051610100516101205161014051610160516126be6104665f395f81816103d501526114cd01525f6118d601525f6118aa01525f611db601525f611d8e01525f611ce901525f611d1301525f611d3d01526126be5ff3fe608060405234801561000f575f80fd5b506004361061024f575f3560e01c806367ac8c0a1161013d578063b88d4fde116100b8578063e8a3d48511610088578063ec68555f1161006e578063ec68555f146105fc578063f2fde38b1461061b578063f4b2858c1461062e575f80fd5b8063e8a3d485146105e6578063e985e9c5146105ee575f80fd5b8063b88d4fde14610549578063c87b56dd1461055c578063dd11247e1461056f578063e4b50cb814610578575f80fd5b8063715018a61161010d5780638da5cb5b116100f35780638da5cb5b146104f157806395d89b4114610502578063a22cb4651461053b575f80fd5b8063715018a6146104ce57806384b0196e146104d6575f80fd5b806367ac8c0a1461048c57806369ff6abb1461049f57806370a08231146104a8578063713df1db146104bb575f80fd5b806342842e0e116101cd578063572b6c051161019d5780635da54085116101835780635da54085146104255780635e3e82b0146104445780636352211e14610464575f80fd5b8063572b6c05146103c55780635ac4428214610405575f80fd5b806342842e0e1461037957806342966c681461038c578063432ced041461039f5780634f6ccce7146103b2575f80fd5b8063095ea7b31161022257806318160ddd1161020857806318160ddd1461033d57806323b872dd146103535780632f745c5914610366575f80fd5b8063095ea7b31461030857806309fda94b1461031d575f80fd5b806301ffc9a71461025357806303cbd8881461027b57806306fdde031461029b578063081812fc146102dd575b5f80fd5b610266610261366004611e83565b610641565b60405190151581526020015b60405180910390f35b61028e610289366004611eaa565b610711565b6040516102729190611ec1565b60408051808201909152601381527f5477656e747953697820536f756c626f756e640000000000000000000000000060208201525b6040516102729190611f72565b6102f06102eb366004611eaa565b61080a565b6040516001600160a01b039091168152602001610272565b61031b610316366004611f9f565b610824565b005b61033061032b366004611fc7565b61083d565b6040516102729190612031565b61034561089d565b604051908152602001610272565b61031b610361366004612043565b6108b3565b610345610374366004611f9f565b610a2d565b61031b610387366004612043565b610a7e565b61031b61039a366004611eaa565b610a8e565b61031b6103ad366004611eaa565b610b5e565b6103456103c0366004611eaa565b610c1b565b6102666103d336600461207d565b7f00000000000000000000000000000000000000000000000000000000000000006001600160a01b0390811691161490565b610418610413366004611eaa565b610c43565b6040516102729190612096565b610345610433366004611eaa565b5f908152600a602052604090205490565b6104576104523660046120ee565b610cf5565b6040516102729190612117565b6102f0610472366004611eaa565b5f908152600b60205260409020546001600160a01b031690565b61031b61049a3660046121ea565b610d64565b61034560035481565b6103456104b636600461207d565b610efd565b61031b6104c9366004612283565b610f1d565b61031b6110ec565b6104de6110ff565b604051610272979695949392919061229d565b6002546001600160a01b03166102f0565b60408051808201909152600581527f545259323600000000000000000000000000000000000000000000000000000060208201526102d0565b61031b610316366004612326565b61031b61055736600461235f565b61115d565b6102d061056a366004611eaa565b61116e565b61034560045481565b6105d9610586366004611eaa565b60408051606080820183525f8083526020808401829052928401819052938452600b8252928290208251938401835280546001600160a01b03168452600181015491840191909152600201549082015290565b604051610272919061241d565b6102d06111e0565b6102666102eb366004612447565b61034561060a366004611eaa565b5f9081526007602052604090205490565b61031b61062936600461207d565b61121f565b61031b61063c366004612478565b611275565b5f6001600160e01b031982167f80ac58cd0000000000000000000000000000000000000000000000000000000014806106a357506001600160e01b031982167f5b5e139f00000000000000000000000000000000000000000000000000000000145b806106d757506001600160e01b031982167f780e9d6300000000000000000000000000000000000000000000000000000000145b8061070b57507f01ffc9a7000000000000000000000000000000000000000000000000000000006001600160e01b03198316145b92915050565b6107606040805160a0810182525f9181018281526060820183905260808201929092529081908152604080516080810182525f8082526020828101829052928201819052606082015291015290565b505f908152600b6020908152604080832081516060808201845282546001600160a01b039081168352600180850154848801819052600290950154848701529387526005865295849020845160808101865281546001600160801b038082168352600160801b909104168188015293015495861683850152600160a01b9095046bffffffffffffffffffffffff169482019490945281518083019092529281529081019190915290565b5f6040516341f8b8eb60e11b815260040160405180910390fd5b6040516341f8b8eb60e11b815260040160405180910390fd5b6001600160a01b0383165f908152600c6020526040902060609061086081611408565b61086a848661250d565b111561088957604051634e23d03560e01b815260040160405180910390fd5b610894818585611411565b95945050505050565b5f6009546008546108ae9190612520565b905090565b6001600160a01b0382166108fa576040517f64a0ae920000000000000000000000000000000000000000000000000000000081525f60048201526024015b60405180910390fd5b5f818152600b6020526040902080546001600160a01b031680610933576040516306caeb1360e41b8152600481018490526024016108f1565b846001600160a01b0316816001600160a01b031614610998576040517f64283d7b0000000000000000000000000000000000000000000000000000000081526001600160a01b03808716600483015260248201859052821660448201526064016108f1565b6001600160a01b0385165f908152600c602052604090206109b990846114a2565b506001600160a01b0384165f908152600c602052604090206109db90846114b4565b5081546001600160a01b0319166001600160a01b0385811691821784556040518592918816907fddf252ad1be2c89b69c2b068fc378daa952ba7f163c4a11628f55a4df523b3ef905f90a45050505050565b6001600160a01b0382165f908152600c60205260408120610a4d81611408565b8310610a6c57604051634e23d03560e01b815260040160405180910390fd5b610a7681846114bf565b949350505050565b610a898383836108b3565b505050565b5f818152600b60205260409020546001600160a01b031680610ac6576040516306caeb1360e41b8152600481018390526024016108f1565b6001600160a01b0381165f908152600c60205260409020610ae790836114a2565b505f828152600b6020526040812080546001600160a01b0319168155600181018290556002018190556009805491610b1e83612533565b909155505060405182905f906001600160a01b038416907fddf252ad1be2c89b69c2b068fc378daa952ba7f163c4a11628f55a4df523b3ef908390a45050565b5f8181526007602052604090205415610ba6576040517fe26b6c3a000000000000000000000000000000000000000000000000000000008152600481018290526024016108f1565b5f610bb2603c4261250d565b5f8381526007602052604090208190559050610bcc6114ca565b6001600160a01b03167fc2e6e791274f4ca6517553570472956264bb5d03c9b67ea9b0ccd1e3aed81c418383604051610c0f929190918252602082015260400190565b60405180910390a25050565b5f600854821115610c3f57604051634e23d03560e01b815260040160405180910390fd5b5090565b604080516080810182525f808252602082018190529181018290526060810191909152600354821115610c8957604051634e23d03560e01b815260040160405180910390fd5b505f90815260056020908152604091829020825160808101845281546001600160801b038082168352600160801b9091041692810192909252600101546001600160a01b03811692820192909252600160a01b9091046bffffffffffffffffffffffff16606082015290565b6060600354841115610d1a57604051634e23d03560e01b815260040160405180910390fd5b5f848152600660205260409020610d3081611408565b610d3a848661250d565b1115610d5957604051634e23d03560e01b815260040160405180910390fd5b61089481858561150d565b5f610d6d6114ca565b90505f8183602001518460400151604051602001610db29392919060609390931b6bffffffffffffffffffffffff191683526014830191909152603482015260540190565b60408051601f1981840301815291815281516020928301205f8181526007909352912054909150801580610de557508042105b15610e1f576040517f4f31f9ad000000000000000000000000000000000000000000000000000000008152600481018390526024016108f1565b5f610e2985611591565b90505f60085f8154610e3a90612533565b91829055505f838152600a6020908152604080832084905580516060810182526001600160a01b038a81168083528c518386019081528385018a8152888852600b8752858820945185546001600160a01b031916941693909317845551600184015590516002909201919091558352600c9091529020909150610ebd90826114b4565b5060405181906001600160a01b038716905f907fddf252ad1be2c89b69c2b068fc378daa952ba7f163c4a11628f55a4df523b3ef908290a4505050505050565b6001600160a01b0381165f908152600c6020526040812061070b90611408565b5f60035f8154610f2c90612533565b918290555090505f610f3c6114ca565b604080516080810182526001600160801b0380881680835242821660208085019182526001600160a01b038088168688018181525f606089018181528d82526005909552899020975194518716600160801b0294909616939093178655935190516bffffffffffffffffffffffff16600160a01b029316929092176001909301929092559151929350909184907ff01626811698b95f5ede53acfba82ac8efb69eec0be409608b8680734aff7ce590610ff89088815260200190565b60405180910390a45f6008546001611010919061250d565b90505f61101d858361250d565b90505b808210156110d657604080516060810182526001600160a01b0385811680835260208084018981525f858701818152898252600b8452878220965187546001600160a01b03191696169590951786559051600186015592516002909401939093558152600c9091522061109390836114b4565b5060405182906001600160a01b038516905f907fddf252ad1be2c89b69c2b068fc378daa952ba7f163c4a11628f55a4df523b3ef908290a4600190910190611020565b6110e1600182612520565b600855505050505050565b6110f46117db565b6110fd5f611852565b565b5f6060805f805f60606111106118a3565b6111186118cf565b604080515f808252602082019092527f0f000000000000000000000000000000000000000000000000000000000000009b939a50919850469750309650945092509050565b6111688484846108b3565b50505050565b6060604051806060016040528060248152602001612665602491395f838152600b6020908152604080832060010154835260059091529020546111b9906001600160801b03166118fc565b6040516020016111ca929190612562565b6040516020818303038152906040529050919050565b60606040518060600160405280602481526020016126656024913960405160200161120b91906125cc565b604051602081830303815290604052905090565b6112276117db565b6001600160a01b038116611269576040517f1e4fbdf70000000000000000000000000000000000000000000000000000000081525f60048201526024016108f1565b61127281611852565b50565b5f8190036112af576040517f33b094a100000000000000000000000000000000000000000000000000000000815260040160405180910390fd5b5f60035f81546112be90612533565b918290555090505f6112ce6114ca565b604080516080810182526001600160801b03808916825242811660208084019182526001600160a01b038087168587019081526bffffffffffffffffffffffff808c16606088019081525f8c815260058652898120985196518816600160801b02969097169590951787559051935116600160a01b0292169190911760019093019290925560069091529081209192505b8481101561139b5761139286868381811061137c5761137c612604565b90506020020135836114b490919063ffffffff16565b5060010161135f565b508484905060045f8282546113b0919061250d565b90915550506040518481526001600160a01b038316906001600160801b0388169085907f05a821df87afe79d0f517d06642ce9f1210d4f253ac19808913d1d6ccc84fdbd9060200160405180910390a4505050505050565b5f61070b825490565b60608167ffffffffffffffff81111561142c5761142c612159565b604051908082528060200260200182016040528015611455578160200160208202803683370190505b5090505f5b8281101561149a5761147585611470838761250d565b6114bf565b82828151811061148757611487612604565b602090810291909101015260010161145a565b509392505050565b5f6114ad8383611999565b9392505050565b5f6114ad8383611a83565b5f6114ad8383611acf565b5f7f00000000000000000000000000000000000000000000000000000000000000006001600160a01b03163303611508575060131936013560601c90565b503390565b60608167ffffffffffffffff81111561152857611528612159565b604051908082528060200260200182016040528015611551578160200160208202803683370190505b5090505f5b8281101561149a5761156c85611470838761250d565b82828151811061157e5761157e612604565b6020908102919091010152600101611556565b5f816020015182604001516040516020016115b6929190918252602082015260400190565b60408051601f19818403018152918152815160209283012084515f908152600690935291209091506115e89082611af5565b61162b5781516040517fab96bbb10000000000000000000000000000000000000000000000000000000081526004810191909152602481018290526044016108f1565b5f818152600a60205260409020541561167d5781516040517f57b3f5200000000000000000000000000000000000000000000000000000000081526004810191909152602481018290526044016108f1565b81515f90815260056020908152604080832060019081015486518488015184517fe65ce3b6d50c03d1ec4e511c0f90322a7788603f2e664b7dbf436b92bc2d6d4b968101969096526001600160a01b03909216938501849052606085015260808401529092916117059060a00160405160208183030381529060405280519060200120611b0c565b6060860151805160208083015160409384015184515f81529092019384905261174a949390919093845260ff9290921660208401526040830152606082015260800190565b6020604051602081039080840390855afa15801561176a573d5f803e3d5ffd5b505050602060405103519050816001600160a01b0316816001600160a01b0316146117d4576040517f7ba5ffb50000000000000000000000000000000000000000000000000000000081526001600160a01b038084166004830152821660248201526044016108f1565b5050919050565b6117e36114ca565b6001600160a01b03166117fe6002546001600160a01b031690565b6001600160a01b0316146110fd576118146114ca565b6040517f118cdaa70000000000000000000000000000000000000000000000000000000081526001600160a01b0390911660048201526024016108f1565b600280546001600160a01b038381166001600160a01b0319831681179093556040519116919082907f8be0079c531659141344cd1fd0a4f28419497f9722a3daafe3b4186f6b6457e0905f90a35050565b60606108ae7f00000000000000000000000000000000000000000000000000000000000000005f611b53565b60606108ae7f00000000000000000000000000000000000000000000000000000000000000006001611b53565b60605f61190883611bfc565b60010190505f8167ffffffffffffffff81111561192757611927612159565b6040519080825280601f01601f191660200182016040528015611951576020820181803683370190505b5090508181016020015b5f19017f3031323334353637383961626364656600000000000000000000000000000000600a86061a8153600a850494508461195b57509392505050565b5f8181526001830160205260408120548015611a73575f6119bb600183612520565b85549091505f906119ce90600190612520565b9050818114611a2d575f865f0182815481106119ec576119ec612604565b905f5260205f200154905080875f018481548110611a0c57611a0c612604565b5f918252602080832090910192909255918252600188019052604090208390555b8554869080611a3e57611a3e612618565b600190038181905f5260205f20015f90559055856001015f8681526020019081526020015f205f90556001935050505061070b565b5f91505061070b565b5092915050565b5f818152600183016020526040812054611ac857508154600181810184555f84815260208082209093018490558454848252828601909352604090209190915561070b565b505f61070b565b5f825f018281548110611ae457611ae4612604565b905f5260205f200154905092915050565b5f81815260018301602052604081205415156114ad565b5f61070b611b18611cdd565b836040517f19010000000000000000000000000000000000000000000000000000000000008152600281019290925260228201526042902090565b606060ff8314611b6d57611b6683611e06565b905061070b565b818054611b799061262c565b80601f0160208091040260200160405190810160405280929190818152602001828054611ba59061262c565b8015611bf05780601f10611bc757610100808354040283529160200191611bf0565b820191905f5260205f20905b815481529060010190602001808311611bd357829003601f168201915b5050505050905061070b565b5f807a184f03e93ff9f4daa797ed6e38ed64bf6a1f0100000000000000008310611c44577a184f03e93ff9f4daa797ed6e38ed64bf6a1f010000000000000000830492506040015b6d04ee2d6d415b85acef81000000008310611c70576d04ee2d6d415b85acef8100000000830492506020015b662386f26fc100008310611c8e57662386f26fc10000830492506010015b6305f5e1008310611ca6576305f5e100830492506008015b6127108310611cba57612710830492506004015b60648310611ccc576064830492506002015b600a831061070b5760010192915050565b5f306001600160a01b037f000000000000000000000000000000000000000000000000000000000000000016148015611d3557507f000000000000000000000000000000000000000000000000000000000000000046145b15611d5f57507f000000000000000000000000000000000000000000000000000000000000000090565b6108ae604080517f8b73c3c69bb8fe3d512ecc4cf759cc79239f7b179b0ffacaa9a75d522b39400f60208201527f0000000000000000000000000000000000000000000000000000000000000000918101919091527f000000000000000000000000000000000000000000000000000000000000000060608201524660808201523060a08201525f9060c00160405160208183030381529060405280519060200120905090565b60605f611e1283611e43565b6040805160208082528183019092529192505f91906020820181803683375050509182525060208101929092525090565b5f60ff8216601f81111561070b576040517fb3512b0c00000000000000000000000000000000000000000000000000000000815260040160405180910390fd5b5f60208284031215611e93575f80fd5b81356001600160e01b0319811681146114ad575f80fd5b5f60208284031215611eba575f80fd5b5035919050565b815180516001600160a01b03168252602080820151908301526040908101519082015260e081016020830151611a7c60608401826001600160801b0381511682526001600160801b0360208201511660208301526001600160a01b0360408201511660408301526bffffffffffffffffffffffff60608201511660608301525050565b5f81518084528060208401602086015e5f602082860101526020601f19601f83011685010191505092915050565b602081525f6114ad6020830184611f44565b80356001600160a01b0381168114611f9a575f80fd5b919050565b5f8060408385031215611fb0575f80fd5b611fb983611f84565b946020939093013593505050565b5f805f60608486031215611fd9575f80fd5b611fe284611f84565b95602085013595506040909401359392505050565b5f8151808452602084019350602083015f5b82811015612027578151865260209586019590910190600101612009565b5093949350505050565b602081525f6114ad6020830184611ff7565b5f805f60608486031215612055575f80fd5b61205e84611f84565b925061206c60208501611f84565b929592945050506040919091013590565b5f6020828403121561208d575f80fd5b6114ad82611f84565b6080810161070b82846001600160801b0381511682526001600160801b0360208201511660208301526001600160a01b0360408201511660408301526bffffffffffffffffffffffff60608201511660608301525050565b5f805f60608486031215612100575f80fd5b505081359360208301359350604090920135919050565b602080825282518282018190525f918401906040840190835b8181101561214e578351835260209384019390920191600101612130565b509095945050505050565b634e487b7160e01b5f52604160045260245ffd5b6040516080810167ffffffffffffffff8111828210171561219057612190612159565b60405290565b6040516060810167ffffffffffffffff8111828210171561219057612190612159565b604051601f8201601f1916810167ffffffffffffffff811182821017156121e2576121e2612159565b604052919050565b5f81830360c0811280156121fc575f80fd5b5061220561216d565b8335815260208085013590820152604080850135908201526060605f198301121561222e575f80fd5b612236612196565b9150606084013560ff8116811461224b575f80fd5b82526080840135602083015260a0909301356040820152606083015250919050565b80356001600160801b0381168114611f9a575f80fd5b5f8060408385031215612294575f80fd5b611fb98361226d565b7fff000000000000000000000000000000000000000000000000000000000000008816815260e060208201525f6122d760e0830189611f44565b82810360408401526122e98189611f44565b90508660608401526001600160a01b03861660808401528460a084015282810360c08401526123188185611ff7565b9a9950505050505050505050565b5f8060408385031215612337575f80fd5b61234083611f84565b915060208301358015158114612354575f80fd5b809150509250929050565b5f805f8060808587031215612372575f80fd5b61237b85611f84565b935061238960208601611f84565b925060408501359150606085013567ffffffffffffffff8111156123ab575f80fd5b8501601f810187136123bb575f80fd5b803567ffffffffffffffff8111156123d5576123d5612159565b6123e8601f8201601f19166020016121b9565b8181528860208385010111156123fc575f80fd5b816020840160208301375f6020838301015280935050505092959194509250565b81516001600160a01b0316815260208083015190820152604080830151908201526060810161070b565b5f8060408385031215612458575f80fd5b61246183611f84565b915061246f60208401611f84565b90509250929050565b5f805f6040848603121561248a575f80fd5b6124938461226d565b9250602084013567ffffffffffffffff8111156124ae575f80fd5b8401601f810186136124be575f80fd5b803567ffffffffffffffff8111156124d4575f80fd5b8660208260051b84010111156124e8575f80fd5b939660209190910195509293505050565b634e487b7160e01b5f52601160045260245ffd5b8082018082111561070b5761070b6124f9565b8181038181111561070b5761070b6124f9565b5f60018201612544576125446124f9565b5060010190565b5f81518060208401855e5f93019283525090919050565b5f61256d828561254b565b7f2f7362742f6d657461646174612f000000000000000000000000000000000000815261259d600e82018561254b565b7f2e6a736f6e000000000000000000000000000000000000000000000000000000815260050195945050505050565b5f6125d7828461254b565b7f2f7362742f636f6e74726163745552492e6a736f6e000000000000000000000081526015019392505050565b634e487b7160e01b5f52603260045260245ffd5b634e487b7160e01b5f52603160045260245ffd5b600181811c9082168061264057607f821691505b60208210810361265e57634e487b7160e01b5f52602260045260245ffd5b5091905056fe68747470733a2f2f32362d736f756c626f756e642e6973746573742e6574682e6c696d6fa2646970667358221220451f1ec1e00a0f1c03210eb2cd30dcef7bb3ceb7ce002cc02406b53acf39bb4f64736f6c634300081a0033",
  "linkReferences": {},
  "deployedLinkReferences": {}
}