{
  "_format": "hh-sol-artifact-1",
  "contractName": "TRY26",
  "sourceName": "contracts/TRY26.sol",
  "abi": [
    {
      "inputs": [],
      "stateMutability": "nonpayable",
      "type": "constructor"
    },
    {
      "inputs": [],
      "name": "IndexOutOfBounds",
      "type": "error"
    },
    {
      "inputs": [],
      "name": "InvalidBatch",
      "type": "error"
    },
    {
      "inputs": [],
      "name": "InvalidShortString",
      "type": "error"
    },
    {
      "inputs": [
        {
          "internalType": "address",
          "name": "creator",
          "type": "address"
        },
        {
          "internalType": "address",
          "name": "signer",
          "type": "address"
        }
      ],
      "name": "InvalidSigner",
      "type": "error"
    },
    {
      "inputs": [],
      "name": "MethodNotAllowed",
      "type": "error"
    },
    {
      "inputs": [
        {
          "internalType": "address",
          "name": "owner",
          "type": "address"
        }
      ],
      "name": "OwnableInvalidOwner",
      "type": "error"
    },
    {
      "inputs": [
        {
          "internalType": "address",
          "name": "account",
          "type": "address"
        }
      ],
      "name": "OwnableUnauthorizedAccount",
      "type": "error"
    },
    {
      "inputs": [
        {
          "internalType": "bytes32",
          "name": "reservation",
          "type": "bytes32"
        }
      ],
      "name": "ReservationNotChanged",
      "type": "error"
    },
    {
      "inputs": [
        {
          "internalType": "bytes32",
          "name": "reservation",
          "type": "bytes32"
        }
      ],
      "name": "ReservationNotFound",
      "type": "error"
    },
    {
      "inputs": [
        {
          "internalType": "string",
          "name": "str",
          "type": "string"
        }
      ],
      "name": "StringTooLong",
      "type": "error"
    },
    {
      "inputs": [
        {
          "internalType": "uint256",
          "name": "batchId",
          "type": "uint256"
        },
        {
          "internalType": "bytes32",
          "name": "ticketId",
          "type": "bytes32"
        }
      ],
      "name": "TicketAlreadyClaimed",
      "type": "error"
    },
    {
      "inputs": [
        {
          "internalType": "uint256",
          "name": "batchId",
          "type": "uint256"
        },
        {
          "internalType": "bytes32",
          "name": "ticketId",
          "type": "bytes32"
        }
      ],
      "name": "TicketNotFound",
      "type": "error"
    },
    {
      "anonymous": false,
      "inputs": [
        {
          "indexed": true,
          "internalType": "address",
          "name": "owner",
          "type": "address"
        },
        {
          "indexed": true,
          "internalType": "address",
          "name": "approved",
          "type": "address"
        },
        {
          "indexed": true,
          "internalType": "uint256",
          "name": "tokenId",
          "type": "uint256"
        }
      ],
      "name": "Approval",
      "type": "event"
    },
    {
      "anonymous": false,
      "inputs": [
        {
          "indexed": true,
          "internalType": "address",
          "name": "owner",
          "type": "address"
        },
        {
          "indexed": true,
          "internalType": "address",
          "name": "operator",
          "type": "address"
        },
        {
          "indexed": false,
          "internalType": "bool",
          "name": "approved",
          "type": "bool"
        }
      ],
      "name": "ApprovalForAll",
      "type": "event"
    },
    {
      "anonymous": false,
      "inputs": [
        {
          "indexed": true,
          "internalType": "uint256",
          "name": "batchId",
          "type": "uint256"
        },
        {
          "indexed": true,
          "internalType": "uint128",
          "name": "metadataId",
          "type": "uint128"
        },
        {
          "indexed": true,
          "internalType": "address",
          "name": "creator",
          "type": "address"
        },
        {
          "indexed": false,
          "internalType": "uint256",
          "name": "nbTickets",
          "type": "uint256"
        }
      ],
      "name": "BatchPreMinted",
      "type": "event"
    },
    {
      "anonymous": false,
      "inputs": [],
      "name": "EIP712DomainChanged",
      "type": "event"
    },
    {
      "anonymous": false,
      "inputs": [
        {
          "indexed": true,
          "internalType": "address",
          "name": "previousOwner",
          "type": "address"
        },
        {
          "indexed": true,
          "internalType": "address",
          "name": "newOwner",
          "type": "address"
        }
      ],
      "name": "OwnershipTransferred",
      "type": "event"
    },
    {
      "anonymous": false,
      "inputs": [
        {
          "indexed": true,
          "internalType": "address",
          "name": "owner",
          "type": "address"
        },
        {
          "indexed": false,
          "internalType": "bytes32",
          "name": "reservation",
          "type": "bytes32"
        },
        {
          "indexed": false,
          "internalType": "uint256",
          "name": "unlock",
          "type": "uint256"
        }
      ],
      "name": "TicketReserved",
      "type": "event"
    },
    {
      "anonymous": false,
      "inputs": [
        {
          "indexed": true,
          "internalType": "address",
          "name": "from",
          "type": "address"
        },
        {
          "indexed": true,
          "internalType": "address",
          "name": "to",
          "type": "address"
        },
        {
          "indexed": true,
          "internalType": "uint256",
          "name": "tokenId",
          "type": "uint256"
        }
      ],
      "name": "Transfer",
      "type": "event"
    },
    {
      "inputs": [
        {
          "internalType": "address",
          "name": "",
          "type": "address"
        },
        {
          "internalType": "uint256",
          "name": "",
          "type": "uint256"
        }
      ],
      "name": "approve",
      "outputs": [],
      "stateMutability": "pure",
      "type": "function"
    },
    {
      "inputs": [
        {
          "internalType": "address",
          "name": "target",
          "type": "address"
        }
      ],
      "name": "balanceOf",
      "outputs": [
        {
          "internalType": "uint256",
          "name": "",
          "type": "uint256"
        }
      ],
      "stateMutability": "view",
      "type": "function"
    },
    {
      "inputs": [
        {
          "components": [
            {
              "internalType": "uint256",
              "name": "batchId",
              "type": "uint256"
            },
            {
              "internalType": "bytes32",
              "name": "batchSecret",
              "type": "bytes32"
            },
            {
              "internalType": "bytes32",
              "name": "ticketSecret",
              "type": "bytes32"
            },
            {
              "components": [
                {
                  "internalType": "uint8",
                  "name": "v",
                  "type": "uint8"
                },
                {
                  "internalType": "bytes32",
                  "name": "r",
                  "type": "bytes32"
                },
                {
                  "internalType": "bytes32",
                  "name": "s",
                  "type": "bytes32"
                }
              ],
              "internalType": "struct TRY26.Signature",
              "name": "signature",
              "type": "tuple"
            }
          ],
          "internalType": "struct TRY26.Ticket",
          "name": "ticket",
          "type": "tuple"
        }
      ],
      "name": "claim",
      "outputs": [],
      "stateMutability": "nonpayable",
      "type": "function"
    },
    {
      "inputs": [],
      "name": "contractURI",
      "outputs": [
        {
          "internalType": "string",
          "name": "",
          "type": "string"
        }
      ],
      "stateMutability": "pure",
      "type": "function"
    },
    {
      "inputs": [],
      "name": "eip712Domain",
      "outputs": [
        {
          "internalType": "bytes1",
          "name": "fields",
          "type": "bytes1"
        },
        {
          "internalType": "string",
          "name": "name",
          "type": "string"
        },
        {
          "internalType": "string",
          "name": "version",
          "type": "string"
        },
        {
          "internalType": "uint256",
          "name": "chainId",
          "type": "uint256"
        },
        {
          "internalType": "address",
          "name": "verifyingContract",
          "type": "address"
        },
        {
          "internalType": "bytes32",
          "name": "salt",
          "type": "bytes32"
        },
        {
          "internalType": "uint256[]",
          "name": "extensions",
          "type": "uint256[]"
        }
      ],
      "stateMutability": "view",
      "type": "function"
    },
    {
      "inputs": [
        {
          "internalType": "uint256",
          "name": "",
          "type": "uint256"
        }
      ],
      "name": "getApproved",
      "outputs": [
        {
          "internalType": "address",
          "name": "",
          "type": "address"
        }
      ],
      "stateMutability": "pure",
      "type": "function"
    },
    {
      "inputs": [
        {
          "internalType": "uint256",
          "name": "batchId",
          "type": "uint256"
        }
      ],
      "name": "getBatch",
      "outputs": [
        {
          "components": [
            {
              "internalType": "uint128",
              "name": "metadataId",
              "type": "uint128"
            },
            {
              "internalType": "uint128",
              "name": "createdAt",
              "type": "uint128"
            },
            {
              "internalType": "address",
              "name": "creator",
              "type": "address"
            },
            {
              "internalType": "uint96",
              "name": "totalTickets",
              "type": "uint96"
            }
          ],
          "internalType": "struct TRY26.Batch",
          "name": "batch",
          "type": "tuple"
        }
      ],
      "stateMutability": "view",
      "type": "function"
    },
    {
      "inputs": [
        {
          "internalType": "uint256",
          "name": "tokenId",
          "type": "uint256"
        }
      ],
      "name": "getFullToken",
      "outputs": [
        {
          "components": [
            {
              "components": [
                {
                  "internalType": "address",
                  "name": "owner",
                  "type": "address"
                },
                {
                  "internalType": "uint256",
                  "name": "batchId",
                  "type": "uint256"
                },
                {
                  "internalType": "bytes32",
                  "name": "ticketId",
                  "type": "bytes32"
                }
              ],
              "internalType": "struct TRY26.Token",
              "name": "token",
              "type": "tuple"
            },
            {
              "components": [
                {
                  "internalType": "uint128",
                  "name": "metadataId",
                  "type": "uint128"
                },
                {
                  "internalType": "uint128",
                  "name": "createdAt",
                  "type": "uint128"
                },
                {
                  "internalType": "address",
                  "name": "creator",
                  "type": "address"
                },
                {
                  "internalType": "uint96",
                  "name": "totalTickets",
                  "type": "uint96"
                }
              ],
              "internalType": "struct TRY26.Batch",
              "name": "batch",
              "type": "tuple"
            }
          ],
          "internalType": "struct TRY26.FullToken",
          "name": "",
          "type": "tuple"
        }
      ],
      "stateMutability": "view",
      "type": "function"
    },
    {
      "inputs": [
        {
          "internalType": "bytes32",
          "name": "reservation",
          "type": "bytes32"
        }
      ],
      "name": "getReservation",
      "outputs": [
        {
          "internalType": "uint256",
          "name": "unlock",
          "type": "uint256"
        }
      ],
      "stateMutability": "view",
      "type": "function"
    },
    {
      "inputs": [
        {
          "internalType": "uint256",
          "name": "tokenId",
          "type": "uint256"
        }
      ],
      "name": "getToken",
      "outputs": [
        {
          "components": [
            {
              "internalType": "address",
              "name": "owner",
              "type": "address"
            },
            {
              "internalType": "uint256",
              "name": "batchId",
              "type": "uint256"
            },
            {
              "internalType": "bytes32",
              "name": "ticketId",
              "type": "bytes32"
            }
          ],
          "internalType": "struct TRY26.Token",
          "name": "",
          "type": "tuple"
        }
      ],
      "stateMutability": "view",
      "type": "function"
    },
    {
      "inputs": [
        {
          "internalType": "address",
          "name": "",
          "type": "address"
        },
        {
          "internalType": "address",
          "name": "",
          "type": "address"
        }
      ],
      "name": "isApprovedForAll",
      "outputs": [
        {
          "internalType": "bool",
          "name": "",
          "type": "bool"
        }
      ],
      "stateMutability": "pure",
      "type": "function"
    },
    {
      "inputs": [],
      "name": "name",
      "outputs": [
        {
          "internalType": "string",
          "name": "",
          "type": "string"
        }
      ],
      "stateMutability": "pure",
      "type": "function"
    },
    {
      "inputs": [],
      "name": "owner",
      "outputs": [
        {
          "internalType": "address",
          "name": "",
          "type": "address"
        }
      ],
      "stateMutability": "view",
      "type": "function"
    },
    {
      "inputs": [
        {
          "internalType": "uint256",
          "name": "tokenId",
          "type": "uint256"
        }
      ],
      "name": "ownerOf",
      "outputs": [
        {
          "internalType": "address",
          "name": "",
          "type": "address"
        }
      ],
      "stateMutability": "view",
      "type": "function"
    },
    {
      "inputs": [
        {
          "internalType": "uint128",
          "name": "metadataId",
          "type": "uint128"
        },
        {
          "internalType": "bytes32[]",
          "name": "tickets",
          "type": "bytes32[]"
        }
      ],
      "name": "preMint",
      "outputs": [],
      "stateMutability": "nonpayable",
      "type": "function"
    },
    {
      "inputs": [],
      "name": "renounceOwnership",
      "outputs": [],
      "stateMutability": "nonpayable",
      "type": "function"
    },
    {
      "inputs": [
        {
          "internalType": "bytes32",
          "name": "reservation",
          "type": "bytes32"
        }
      ],
      "name": "reserve",
      "outputs": [],
      "stateMutability": "nonpayable",
      "type": "function"
    },
    {
      "inputs": [
        {
          "internalType": "address",
          "name": "",
          "type": "address"
        },
        {
          "internalType": "address",
          "name": "",
          "type": "address"
        },
        {
          "internalType": "uint256",
          "name": "",
          "type": "uint256"
        }
      ],
      "name": "safeTransferFrom",
      "outputs": [],
      "stateMutability": "pure",
      "type": "function"
    },
    {
      "inputs": [
        {
          "internalType": "address",
          "name": "",
          "type": "address"
        },
        {
          "internalType": "address",
          "name": "",
          "type": "address"
        },
        {
          "internalType": "uint256",
          "name": "",
          "type": "uint256"
        },
        {
          "internalType": "bytes",
          "name": "",
          "type": "bytes"
        }
      ],
      "name": "safeTransferFrom",
      "outputs": [],
      "stateMutability": "pure",
      "type": "function"
    },
    {
      "inputs": [
        {
          "internalType": "address",
          "name": "",
          "type": "address"
        },
        {
          "internalType": "bool",
          "name": "",
          "type": "bool"
        }
      ],
      "name": "setApprovalForAll",
      "outputs": [],
      "stateMutability": "pure",
      "type": "function"
    },
    {
      "inputs": [
        {
          "internalType": "bytes4",
          "name": "interfaceId",
          "type": "bytes4"
        }
      ],
      "name": "supportsInterface",
      "outputs": [
        {
          "internalType": "bool",
          "name": "",
          "type": "bool"
        }
      ],
      "stateMutability": "view",
      "type": "function"
    },
    {
      "inputs": [],
      "name": "symbol",
      "outputs": [
        {
          "internalType": "string",
          "name": "",
          "type": "string"
        }
      ],
      "stateMutability": "pure",
      "type": "function"
    },
    {
      "inputs": [
        {
          "internalType": "uint256",
          "name": "batchId",
          "type": "uint256"
        },
        {
          "internalType": "uint256",
          "name": "start",
          "type": "uint256"
        },
        {
          "internalType": "uint256",
          "name": "size",
          "type": "uint256"
        }
      ],
      "name": "ticketsByBatch",
      "outputs": [
        {
          "internalType": "bytes32[]",
          "name": "tickets",
          "type": "bytes32[]"
        }
      ],
      "stateMutability": "view",
      "type": "function"
    },
    {
      "inputs": [
        {
          "internalType": "uint256",
          "name": "index",
          "type": "uint256"
        }
      ],
      "name": "tokenByIndex",
      "outputs": [
        {
          "internalType": "uint256",
          "name": "",
          "type": "uint256"
        }
      ],
      "stateMutability": "view",
      "type": "function"
    },
    {
      "inputs": [
        {
          "internalType": "bytes32",
          "name": "ticketId",
          "type": "bytes32"
        }
      ],
      "name": "tokenIdByTicketId",
      "outputs": [
        {
          "internalType": "uint256",
          "name": "tokenId",
          "type": "uint256"
        }
      ],
      "stateMutability": "view",
      "type": "function"
    },
    {
      "inputs": [
        {
          "internalType": "address",
          "name": "target",
          "type": "address"
        },
        {
          "internalType": "uint256",
          "name": "start",
          "type": "uint256"
        },
        {
          "internalType": "uint256",
          "name": "size",
          "type": "uint256"
        }
      ],
      "name": "tokenIdsByOwner",
      "outputs": [
        {
          "internalType": "uint256[]",
          "name": "tokenIds",
          "type": "uint256[]"
        }
      ],
      "stateMutability": "view",
      "type": "function"
    },
    {
      "inputs": [
        {
          "internalType": "address",
          "name": "target",
          "type": "address"
        },
        {
          "internalType": "uint256",
          "name": "index",
          "type": "uint256"
        }
      ],
      "name": "tokenOfOwnerByIndex",
      "outputs": [
        {
          "internalType": "uint256",
          "name": "tokenId",
          "type": "uint256"
        }
      ],
      "stateMutability": "view",
      "type": "function"
    },
    {
      "inputs": [
        {
          "internalType": "uint256",
          "name": "tokenId",
          "type": "uint256"
        }
      ],
      "name": "tokenURI",
      "outputs": [
        {
          "internalType": "string",
          "name": "",
          "type": "string"
        }
      ],
      "stateMutability": "view",
      "type": "function"
    },
    {
      "inputs": [],
      "name": "totalBatches",
      "outputs": [
        {
          "internalType": "uint256",
          "name": "",
          "type": "uint256"
        }
      ],
      "stateMutability": "view",
      "type": "function"
    },
    {
      "inputs": [],
      "name": "totalSupply",
      "outputs": [
        {
          "internalType": "uint256",
          "name": "",
          "type": "uint256"
        }
      ],
      "stateMutability": "view",
      "type": "function"
    },
    {
      "inputs": [],
      "name": "totalTickets",
      "outputs": [
        {
          "internalType": "uint256",
          "name": "",
          "type": "uint256"
        }
      ],
      "stateMutability": "view",
      "type": "function"
    },
    {
      "inputs": [
        {
          "internalType": "address",
          "name": "",
          "type": "address"
        },
        {
          "internalType": "address",
          "name": "",
          "type": "address"
        },
        {
          "internalType": "uint256",
          "name": "",
          "type": "uint256"
        }
      ],
      "name": "transferFrom",
      "outputs": [],
      "stateMutability": "pure",
      "type": "function"
    },
    {
      "inputs": [
        {
          "internalType": "address",
          "name": "newOwner",
          "type": "address"
        }
      ],
      "name": "transferOwnership",
      "outputs": [],
      "stateMutability": "nonpayable",
      "type": "function"
    }
  ],
  "bytecode": "0x610160604052348015610010575f80fd5b5033604080518082018252601381527f5477656e747953697820536f756c626f756e6400000000000000000000000000602080830191909152825180840190935260018352603160f81b9083015290610069825f61014a565b6101205261007881600161014a565b61014052815160208084019190912060e052815190820120610100524660a05261010460e05161010051604080517f8b73c3c69bb8fe3d512ecc4cf759cc79239f7b179b0ffacaa9a75d522b39400f60208201529081019290925260608201524660808201523060a08201525f9060c00160405160208183030381529060405280519060200120905090565b60805250503060c0526001600160a01b03811661013b57604051631e4fbdf760e01b81525f60048201526024015b60405180910390fd5b6101448161017c565b506103b4565b5f6020835110156101655761015e836101cd565b9050610176565b8161017084826102a2565b5060ff90505b92915050565b600280546001600160a01b038381166001600160a01b0319831681179093556040519116919082907f8be0079c531659141344cd1fd0a4f28419497f9722a3daafe3b4186f6b6457e0905f90a35050565b5f80829050601f815111156101f7578260405163305a27a960e01b8152600401610132919061035c565b805161020282610391565b179392505050565b634e487b7160e01b5f52604160045260245ffd5b600181811c9082168061023257607f821691505b60208210810361025057634e487b7160e01b5f52602260045260245ffd5b50919050565b601f82111561029d57805f5260205f20601f840160051c8101602085101561027b5750805b601f840160051c820191505b8181101561029a575f8155600101610287565b50505b505050565b81516001600160401b038111156102bb576102bb61020a565b6102cf816102c9845461021e565b84610256565b6020601f821160018114610301575f83156102ea5750848201515b5f19600385901b1c1916600184901b17845561029a565b5f84815260208120601f198516915b828110156103305787850151825560209485019460019092019101610310565b508482101561034d57868401515f19600387901b60f8161c191681555b50505050600190811b01905550565b602081525f82518060208401528060208501604085015e5f604082850101526040601f19601f83011684010191505092915050565b80516020808301519190811015610250575f1960209190910360031b1b16919050565b60805160a05160c05160e051610100516101205161014051611ff16104055f395f61133601525f61130501525f61172c01525f61170401525f61165f01525f61168901525f6116b30152611ff15ff3fe608060405234801561000f575f80fd5b5060043610610201575f3560e01c806367ac8c0a11610123578063b88d4fde116100b8578063e8a3d48511610088578063ec68555f1161006e578063ec68555f14610527578063f2fde38b14610546578063f4b2858c14610559575f80fd5b8063e8a3d48514610511578063e985e9c514610519575f80fd5b8063b88d4fde14610479578063c87b56dd14610487578063dd11247e1461049a578063e4b50cb8146104a3575f80fd5b806384b0196e116100f357806384b0196e146104065780638da5cb5b1461042157806395d89b4114610432578063a22cb4651461046b575f80fd5b806367ac8c0a146103cf57806369ff6abb146103e257806370a08231146103eb578063715018a6146103fe575f80fd5b80632f745c59116101995780635ac44282116101695780635ac44282146103485780635da54085146103685780635e3e82b0146103875780636352211e146103a7575f80fd5b80632f745c591461030f57806342842e0e14610301578063432ced04146103225780634f6ccce714610335575f80fd5b8063095ea7b3116101d4578063095ea7b3146102ba57806309fda94b146102cf57806318160ddd146102ef57806323b872dd14610301575f80fd5b806301ffc9a71461020557806303cbd8881461022d57806306fdde031461024d578063081812fc1461028f575b5f80fd5b6102186102133660046117f9565b61056c565b60405190151581526020015b60405180910390f35b61024061023b366004611820565b61063c565b6040516102249190611837565b60408051808201909152601381527f5477656e747953697820536f756c626f756e640000000000000000000000000060208201525b60405161022491906118ef565b6102a261029d366004611820565b610735565b6040516001600160a01b039091168152602001610224565b6102cd6102c836600461191c565b61074f565b005b6102e26102dd366004611944565b610768565b60405161022491906119ae565b6008545b604051908152602001610224565b6102cd6102c83660046119c0565b6102f361031d36600461191c565b6107c8565b6102cd610330366004611820565b610819565b6102f3610343366004611820565b6108d4565b61035b610356366004611820565b6108fc565b60405161022491906119fa565b6102f3610376366004611820565b5f9081526009602052604090205490565b61039a610395366004611a52565b6109ae565b6040516102249190611a7b565b6102a26103b5366004611820565b5f908152600a60205260409020546001600160a01b031690565b6102cd6103dd366004611b4e565b610a1d565b6102f360035481565b6102f36103f9366004611bd1565b610bb1565b6102cd610bd1565b61040e610be4565b6040516102249796959493929190611bea565b6002546001600160a01b03166102a2565b60408051808201909152600581527f54525932360000000000000000000000000000000000000000000000000000006020820152610282565b6102cd6102c8366004611c73565b6102cd6102c8366004611cac565b610282610495366004611820565b610c42565b6102f360045481565b6105046104b1366004611820565b60408051606080820183525f8083526020808401829052928401819052938452600a8252928290208251938401835280546001600160a01b03168452600181015491840191909152600201549082015290565b6040516102249190611d6a565b610282610cb4565b61021861029d366004611d94565b6102f3610535366004611820565b5f9081526007602052604090205490565b6102cd610554366004611bd1565b610cf3565b6102cd610567366004611dc5565b610d49565b5f6001600160e01b031982167f80ac58cd0000000000000000000000000000000000000000000000000000000014806105ce57506001600160e01b031982167f5b5e139f00000000000000000000000000000000000000000000000000000000145b8061060257506001600160e01b031982167f780e9d6300000000000000000000000000000000000000000000000000000000145b8061063657507f01ffc9a7000000000000000000000000000000000000000000000000000000006001600160e01b03198316145b92915050565b61068b6040805160a0810182525f9181018281526060820183905260808201929092529081908152604080516080810182525f8082526020828101829052928201819052606082015291015290565b505f908152600a6020908152604080832081516060808201845282546001600160a01b039081168352600180850154848801819052600290950154848701529387526005865295849020845160808101865281546001600160801b038082168352600160801b909104168188015293015495861683850152600160a01b9095046bffffffffffffffffffffffff169482019490945281518083019092529281529081019190915290565b5f6040516341f8b8eb60e11b815260040160405180910390fd5b6040516341f8b8eb60e11b815260040160405180910390fd5b6001600160a01b0383165f908152600b6020526040902060609061078b81610ed5565b6107958486611e67565b11156107b457604051634e23d03560e01b815260040160405180910390fd5b6107bf818585610ede565b95945050505050565b6001600160a01b0382165f908152600b602052604081206107e881610ed5565b831061080757604051634e23d03560e01b815260040160405180910390fd5b6108118184610f6f565b949350505050565b5f8181526007602052604090205415610866576040517fe26b6c3a000000000000000000000000000000000000000000000000000000008152600481018290526024015b60405180910390fd5b5f610872603c42611e67565b5f8381526007602052604090208190559050336001600160a01b03167fc2e6e791274f4ca6517553570472956264bb5d03c9b67ea9b0ccd1e3aed81c4183836040516108c8929190918252602082015260400190565b60405180910390a25050565b5f6008548211156108f857604051634e23d03560e01b815260040160405180910390fd5b5090565b604080516080810182525f80825260208201819052918101829052606081019190915260035482111561094257604051634e23d03560e01b815260040160405180910390fd5b505f90815260056020908152604091829020825160808101845281546001600160801b038082168352600160801b9091041692810192909252600101546001600160a01b03811692820192909252600160a01b9091046bffffffffffffffffffffffff16606082015290565b60606003548411156109d357604051634e23d03560e01b815260040160405180910390fd5b5f8481526006602052604090206109e981610ed5565b6109f38486611e67565b1115610a1257604051634e23d03560e01b815260040160405180910390fd5b6107bf818585610f81565b602081810151604080840151905133606081901b6bffffffffffffffffffffffff191694820194909452603481019290925260548201525f9060740160408051601f1981840301815291815281516020928301205f8181526007909352912054909150801580610a8c57508042105b15610ac6576040517f4f31f9ad0000000000000000000000000000000000000000000000000000000081526004810183905260240161085d565b5f610ad085611005565b90505f60085f8154610ae190611e7a565b91829055505f83815260096020908152604080832084905580516060810182526001600160a01b038a81168083528c518386019081528385018a8152888852600a87528588209451855473ffffffffffffffffffffffffffffffffffffffff1916941693909317845551600184015590516002909201919091558352600b9091529020909150610b71908261124f565b5060405181906001600160a01b038716905f907fddf252ad1be2c89b69c2b068fc378daa952ba7f163c4a11628f55a4df523b3ef908290a4505050505050565b6001600160a01b0381165f908152600b6020526040812061063690610ed5565b610bd961125a565b610be25f6112a0565b565b5f6060805f805f6060610bf56112fe565b610bfd61132f565b604080515f808252602082019092527f0f000000000000000000000000000000000000000000000000000000000000009b939a50919850469750309650945092509050565b6060604051806060016040528060248152602001611f98602491395f838152600a602090815260408083206001015483526005909152902054610c8d906001600160801b031661135c565b604051602001610c9e929190611ea9565b6040516020818303038152906040529050919050565b6060604051806060016040528060248152602001611f9860249139604051602001610cdf9190611f13565b604051602081830303815290604052905090565b610cfb61125a565b6001600160a01b038116610d3d576040517f1e4fbdf70000000000000000000000000000000000000000000000000000000081525f600482015260240161085d565b610d46816112a0565b50565b5f819003610d83576040517f33b094a100000000000000000000000000000000000000000000000000000000815260040160405180910390fd5b5f60035f8154610d9290611e7a565b918290555090505f33604080516080810182526001600160801b03808916825242811660208084019182526001600160a01b038087168587019081526bffffffffffffffffffffffff808c16606088019081525f8c815260058652898120985196518816600160801b02969097169590951787559051935116600160a01b0292169190911760019093019290925560069091529081209192505b84811015610e6857610e5f868683818110610e4957610e49611f4b565b905060200201358361124f90919063ffffffff16565b50600101610e2c565b508484905060045f828254610e7d9190611e67565b90915550506040518481526001600160a01b038316906001600160801b0388169085907f05a821df87afe79d0f517d06642ce9f1210d4f253ac19808913d1d6ccc84fdbd9060200160405180910390a4505050505050565b5f610636825490565b60608167ffffffffffffffff811115610ef957610ef9611abd565b604051908082528060200260200182016040528015610f22578160200160208202803683370190505b5090505f5b82811015610f6757610f4285610f3d8387611e67565b610f6f565b828281518110610f5457610f54611f4b565b6020908102919091010152600101610f27565b509392505050565b5f610f7a83836113f9565b9392505050565b60608167ffffffffffffffff811115610f9c57610f9c611abd565b604051908082528060200260200182016040528015610fc5578160200160208202803683370190505b5090505f5b82811015610f6757610fe085610f3d8387611e67565b828281518110610ff257610ff2611f4b565b6020908102919091010152600101610fca565b5f8160200151826040015160405160200161102a929190918252602082015260400190565b60408051601f19818403018152918152815160209283012084515f9081526006909352912090915061105c908261141f565b61109f5781516040517fab96bbb100000000000000000000000000000000000000000000000000000000815260048101919091526024810182905260440161085d565b5f81815260096020526040902054156110f15781516040517f57b3f52000000000000000000000000000000000000000000000000000000000815260048101919091526024810182905260440161085d565b81515f90815260056020908152604080832060019081015486518488015184517fe65ce3b6d50c03d1ec4e511c0f90322a7788603f2e664b7dbf436b92bc2d6d4b968101969096526001600160a01b03909216938501849052606085015260808401529092916111799060a00160405160208183030381529060405280519060200120611436565b6060860151805160208083015160409384015184515f8152909201938490526111be949390919093845260ff9290921660208401526040830152606082015260800190565b6020604051602081039080840390855afa1580156111de573d5f803e3d5ffd5b505050602060405103519050816001600160a01b0316816001600160a01b031614611248576040517f7ba5ffb50000000000000000000000000000000000000000000000000000000081526001600160a01b0380841660048301528216602482015260440161085d565b5050919050565b5f610f7a838361147d565b6002546001600160a01b03163314610be2576040517f118cdaa700000000000000000000000000000000000000000000000000000000815233600482015260240161085d565b600280546001600160a01b0383811673ffffffffffffffffffffffffffffffffffffffff19831681179093556040519116919082907f8be0079c531659141344cd1fd0a4f28419497f9722a3daafe3b4186f6b6457e0905f90a35050565b606061132a7f00000000000000000000000000000000000000000000000000000000000000005f6114c9565b905090565b606061132a7f000000000000000000000000000000000000000000000000000000000000000060016114c9565b60605f61136883611572565b60010190505f8167ffffffffffffffff81111561138757611387611abd565b6040519080825280601f01601f1916602001820160405280156113b1576020820181803683370190505b5090508181016020015b5f19017f3031323334353637383961626364656600000000000000000000000000000000600a86061a8153600a85049450846113bb57509392505050565b5f825f01828154811061140e5761140e611f4b565b905f5260205f200154905092915050565b5f8181526001830160205260408120541515610f7a565b5f610636611442611653565b836040517f19010000000000000000000000000000000000000000000000000000000000008152600281019290925260228201526042902090565b5f8181526001830160205260408120546114c257508154600181810184555f848152602080822090930184905584548482528286019093526040902091909155610636565b505f610636565b606060ff83146114e3576114dc8361177c565b9050610636565b8180546114ef90611f5f565b80601f016020809104026020016040519081016040528092919081815260200182805461151b90611f5f565b80156115665780601f1061153d57610100808354040283529160200191611566565b820191905f5260205f20905b81548152906001019060200180831161154957829003601f168201915b50505050509050610636565b5f807a184f03e93ff9f4daa797ed6e38ed64bf6a1f01000000000000000083106115ba577a184f03e93ff9f4daa797ed6e38ed64bf6a1f010000000000000000830492506040015b6d04ee2d6d415b85acef810000000083106115e6576d04ee2d6d415b85acef8100000000830492506020015b662386f26fc10000831061160457662386f26fc10000830492506010015b6305f5e100831061161c576305f5e100830492506008015b612710831061163057612710830492506004015b60648310611642576064830492506002015b600a83106106365760010192915050565b5f306001600160a01b037f0000000000000000000000000000000000000000000000000000000000000000161480156116ab57507f000000000000000000000000000000000000000000000000000000000000000046145b156116d557507f000000000000000000000000000000000000000000000000000000000000000090565b61132a604080517f8b73c3c69bb8fe3d512ecc4cf759cc79239f7b179b0ffacaa9a75d522b39400f60208201527f0000000000000000000000000000000000000000000000000000000000000000918101919091527f000000000000000000000000000000000000000000000000000000000000000060608201524660808201523060a08201525f9060c00160405160208183030381529060405280519060200120905090565b60605f611788836117b9565b6040805160208082528183019092529192505f91906020820181803683375050509182525060208101929092525090565b5f60ff8216601f811115610636576040517fb3512b0c00000000000000000000000000000000000000000000000000000000815260040160405180910390fd5b5f60208284031215611809575f80fd5b81356001600160e01b031981168114610f7a575f80fd5b5f60208284031215611830575f80fd5b5035919050565b815180516001600160a01b03168252602080820151908301526040908101519082015260e0810160208301516118ba60608401826001600160801b0381511682526001600160801b0360208201511660208301526001600160a01b0360408201511660408301526bffffffffffffffffffffffff60608201511660608301525050565b5092915050565b5f81518084528060208401602086015e5f602082860101526020601f19601f83011685010191505092915050565b602081525f610f7a60208301846118c1565b80356001600160a01b0381168114611917575f80fd5b919050565b5f806040838503121561192d575f80fd5b61193683611901565b946020939093013593505050565b5f805f60608486031215611956575f80fd5b61195f84611901565b95602085013595506040909401359392505050565b5f8151808452602084019350602083015f5b828110156119a4578151865260209586019590910190600101611986565b5093949350505050565b602081525f610f7a6020830184611974565b5f805f606084860312156119d2575f80fd5b6119db84611901565b92506119e960208501611901565b929592945050506040919091013590565b6080810161063682846001600160801b0381511682526001600160801b0360208201511660208301526001600160a01b0360408201511660408301526bffffffffffffffffffffffff60608201511660608301525050565b5f805f60608486031215611a64575f80fd5b505081359360208301359350604090920135919050565b602080825282518282018190525f918401906040840190835b81811015611ab2578351835260209384019390920191600101611a94565b509095945050505050565b634e487b7160e01b5f52604160045260245ffd5b6040516080810167ffffffffffffffff81118282101715611af457611af4611abd565b60405290565b6040516060810167ffffffffffffffff81118282101715611af457611af4611abd565b604051601f8201601f1916810167ffffffffffffffff81118282101715611b4657611b46611abd565b604052919050565b5f81830360c081128015611b60575f80fd5b50611b69611ad1565b8335815260208085013590820152604080850135908201526060605f1983011215611b92575f80fd5b611b9a611afa565b9150606084013560ff81168114611baf575f80fd5b82526080840135602083015260a0909301356040820152606083015250919050565b5f60208284031215611be1575f80fd5b610f7a82611901565b7fff000000000000000000000000000000000000000000000000000000000000008816815260e060208201525f611c2460e08301896118c1565b8281036040840152611c3681896118c1565b90508660608401526001600160a01b03861660808401528460a084015282810360c0840152611c658185611974565b9a9950505050505050505050565b5f8060408385031215611c84575f80fd5b611c8d83611901565b915060208301358015158114611ca1575f80fd5b809150509250929050565b5f805f8060808587031215611cbf575f80fd5b611cc885611901565b9350611cd660208601611901565b925060408501359150606085013567ffffffffffffffff811115611cf8575f80fd5b8501601f81018713611d08575f80fd5b803567ffffffffffffffff811115611d2257611d22611abd565b611d35601f8201601f1916602001611b1d565b818152886020838501011115611d49575f80fd5b816020840160208301375f6020838301015280935050505092959194509250565b81516001600160a01b03168152602080830151908201526040808301519082015260608101610636565b5f8060408385031215611da5575f80fd5b611dae83611901565b9150611dbc60208401611901565b90509250929050565b5f805f60408486031215611dd7575f80fd5b83356001600160801b0381168114611ded575f80fd5b9250602084013567ffffffffffffffff811115611e08575f80fd5b8401601f81018613611e18575f80fd5b803567ffffffffffffffff811115611e2e575f80fd5b8660208260051b8401011115611e42575f80fd5b939660209190910195509293505050565b634e487b7160e01b5f52601160045260245ffd5b8082018082111561063657610636611e53565b5f60018201611e8b57611e8b611e53565b5060010190565b5f81518060208401855e5f93019283525090919050565b5f611eb48285611e92565b7f2f7362742f6d657461646174612f0000000000000000000000000000000000008152611ee4600e820185611e92565b7f2e6a736f6e000000000000000000000000000000000000000000000000000000815260050195945050505050565b5f611f1e8284611e92565b7f2f7362742f636f6e74726163745552492e6a736f6e000000000000000000000081526015019392505050565b634e487b7160e01b5f52603260045260245ffd5b600181811c90821680611f7357607f821691505b602082108103611f9157634e487b7160e01b5f52602260045260245ffd5b5091905056fe68747470733a2f2f32362d736f756c626f756e642e6973746573742e6574682e6c696d6fa2646970667358221220408e082a2af7504a5d4f6478f47cc62877f0d4ee8aef25d5935d58be91d6c4a464736f6c634300081a0033",
  "linkReferences": {},
  "deployedLinkReferences": {}
}