{
  "_format": "hh-sol-artifact-1",
  "contractName": "TRY26",
  "sourceName": "contracts/TRY26.sol",
  "abi": [
    {
      "inputs": [],
      "stateMutability": "nonpayable",
      "type": "constructor"
    },
    {
      "inputs": [],
      "name": "IndexOutOfBounds",
      "type": "error"
    },
    {
      "inputs": [],
      "name": "InvalidBatch",
      "type": "error"
    },
    {
      "inputs": [],
      "name": "InvalidShortString",
      "type": "error"
    },
    {
      "inputs": [
        {
          "internalType": "address",
          "name": "admin",
          "type": "address"
        },
        {
          "internalType": "address",
          "name": "signer",
          "type": "address"
        }
      ],
      "name": "InvalidSigner",
      "type": "error"
    },
    {
      "inputs": [],
      "name": "MethodNotAllowed",
      "type": "error"
    },
    {
      "inputs": [
        {
          "internalType": "address",
          "name": "owner",
          "type": "address"
        }
      ],
      "name": "OwnableInvalidOwner",
      "type": "error"
    },
    {
      "inputs": [
        {
          "internalType": "address",
          "name": "account",
          "type": "address"
        }
      ],
      "name": "OwnableUnauthorizedAccount",
      "type": "error"
    },
    {
      "inputs": [
        {
          "internalType": "bytes32",
          "name": "reservation",
          "type": "bytes32"
        }
      ],
      "name": "ReservationNotChanged",
      "type": "error"
    },
    {
      "inputs": [
        {
          "internalType": "bytes32",
          "name": "reservation",
          "type": "bytes32"
        }
      ],
      "name": "ReservationNotFound",
      "type": "error"
    },
    {
      "inputs": [
        {
          "internalType": "string",
          "name": "str",
          "type": "string"
        }
      ],
      "name": "StringTooLong",
      "type": "error"
    },
    {
      "inputs": [
        {
          "internalType": "uint256",
          "name": "batchId",
          "type": "uint256"
        },
        {
          "internalType": "bytes32",
          "name": "ticketId",
          "type": "bytes32"
        }
      ],
      "name": "TicketAlreadyClaimed",
      "type": "error"
    },
    {
      "inputs": [
        {
          "internalType": "uint256",
          "name": "batchId",
          "type": "uint256"
        },
        {
          "internalType": "bytes32",
          "name": "ticketId",
          "type": "bytes32"
        }
      ],
      "name": "TicketNotFound",
      "type": "error"
    },
    {
      "anonymous": false,
      "inputs": [
        {
          "indexed": true,
          "internalType": "address",
          "name": "owner",
          "type": "address"
        },
        {
          "indexed": true,
          "internalType": "address",
          "name": "approved",
          "type": "address"
        },
        {
          "indexed": true,
          "internalType": "uint256",
          "name": "tokenId",
          "type": "uint256"
        }
      ],
      "name": "Approval",
      "type": "event"
    },
    {
      "anonymous": false,
      "inputs": [
        {
          "indexed": true,
          "internalType": "address",
          "name": "owner",
          "type": "address"
        },
        {
          "indexed": true,
          "internalType": "address",
          "name": "operator",
          "type": "address"
        },
        {
          "indexed": false,
          "internalType": "bool",
          "name": "approved",
          "type": "bool"
        }
      ],
      "name": "ApprovalForAll",
      "type": "event"
    },
    {
      "anonymous": false,
      "inputs": [
        {
          "indexed": true,
          "internalType": "uint256",
          "name": "batchId",
          "type": "uint256"
        },
        {
          "indexed": true,
          "internalType": "uint64",
          "name": "metadataId",
          "type": "uint64"
        },
        {
          "indexed": true,
          "internalType": "address",
          "name": "admin",
          "type": "address"
        },
        {
          "indexed": false,
          "internalType": "uint256",
          "name": "nbTickets",
          "type": "uint256"
        }
      ],
      "name": "BatchPreMinted",
      "type": "event"
    },
    {
      "anonymous": false,
      "inputs": [],
      "name": "EIP712DomainChanged",
      "type": "event"
    },
    {
      "anonymous": false,
      "inputs": [
        {
          "indexed": true,
          "internalType": "uint64",
          "name": "metadataId",
          "type": "uint64"
        },
        {
          "indexed": false,
          "internalType": "string",
          "name": "metadata",
          "type": "string"
        }
      ],
      "name": "MetadataAdded",
      "type": "event"
    },
    {
      "anonymous": false,
      "inputs": [
        {
          "indexed": true,
          "internalType": "address",
          "name": "previousOwner",
          "type": "address"
        },
        {
          "indexed": true,
          "internalType": "address",
          "name": "newOwner",
          "type": "address"
        }
      ],
      "name": "OwnershipTransferred",
      "type": "event"
    },
    {
      "anonymous": false,
      "inputs": [
        {
          "indexed": true,
          "internalType": "address",
          "name": "owner",
          "type": "address"
        },
        {
          "indexed": false,
          "internalType": "bytes32",
          "name": "reservation",
          "type": "bytes32"
        },
        {
          "indexed": false,
          "internalType": "uint256",
          "name": "unlock",
          "type": "uint256"
        }
      ],
      "name": "TicketReserved",
      "type": "event"
    },
    {
      "anonymous": false,
      "inputs": [
        {
          "indexed": true,
          "internalType": "address",
          "name": "from",
          "type": "address"
        },
        {
          "indexed": true,
          "internalType": "address",
          "name": "to",
          "type": "address"
        },
        {
          "indexed": true,
          "internalType": "uint256",
          "name": "tokenId",
          "type": "uint256"
        }
      ],
      "name": "Transfer",
      "type": "event"
    },
    {
      "inputs": [
        {
          "internalType": "string",
          "name": "metadata",
          "type": "string"
        }
      ],
      "name": "addMetadata",
      "outputs": [
        {
          "internalType": "uint64",
          "name": "newMetadataId",
          "type": "uint64"
        }
      ],
      "stateMutability": "nonpayable",
      "type": "function"
    },
    {
      "inputs": [
        {
          "internalType": "address",
          "name": "",
          "type": "address"
        },
        {
          "internalType": "uint256",
          "name": "",
          "type": "uint256"
        }
      ],
      "name": "approve",
      "outputs": [],
      "stateMutability": "pure",
      "type": "function"
    },
    {
      "inputs": [
        {
          "internalType": "address",
          "name": "target",
          "type": "address"
        }
      ],
      "name": "balanceOf",
      "outputs": [
        {
          "internalType": "uint256",
          "name": "",
          "type": "uint256"
        }
      ],
      "stateMutability": "view",
      "type": "function"
    },
    {
      "inputs": [
        {
          "components": [
            {
              "internalType": "uint256",
              "name": "batchId",
              "type": "uint256"
            },
            {
              "internalType": "bytes32",
              "name": "batchSecret",
              "type": "bytes32"
            },
            {
              "internalType": "bytes32",
              "name": "ticketSecret",
              "type": "bytes32"
            },
            {
              "components": [
                {
                  "internalType": "uint8",
                  "name": "v",
                  "type": "uint8"
                },
                {
                  "internalType": "bytes32",
                  "name": "r",
                  "type": "bytes32"
                },
                {
                  "internalType": "bytes32",
                  "name": "s",
                  "type": "bytes32"
                }
              ],
              "internalType": "struct TRY26.Signature",
              "name": "signature",
              "type": "tuple"
            }
          ],
          "internalType": "struct TRY26.Ticket",
          "name": "ticket",
          "type": "tuple"
        }
      ],
      "name": "claim",
      "outputs": [],
      "stateMutability": "nonpayable",
      "type": "function"
    },
    {
      "inputs": [],
      "name": "contractURI",
      "outputs": [
        {
          "internalType": "string",
          "name": "",
          "type": "string"
        }
      ],
      "stateMutability": "pure",
      "type": "function"
    },
    {
      "inputs": [],
      "name": "eip712Domain",
      "outputs": [
        {
          "internalType": "bytes1",
          "name": "fields",
          "type": "bytes1"
        },
        {
          "internalType": "string",
          "name": "name",
          "type": "string"
        },
        {
          "internalType": "string",
          "name": "version",
          "type": "string"
        },
        {
          "internalType": "uint256",
          "name": "chainId",
          "type": "uint256"
        },
        {
          "internalType": "address",
          "name": "verifyingContract",
          "type": "address"
        },
        {
          "internalType": "bytes32",
          "name": "salt",
          "type": "bytes32"
        },
        {
          "internalType": "uint256[]",
          "name": "extensions",
          "type": "uint256[]"
        }
      ],
      "stateMutability": "view",
      "type": "function"
    },
    {
      "inputs": [
        {
          "internalType": "uint256",
          "name": "",
          "type": "uint256"
        }
      ],
      "name": "getApproved",
      "outputs": [
        {
          "internalType": "address",
          "name": "",
          "type": "address"
        }
      ],
      "stateMutability": "pure",
      "type": "function"
    },
    {
      "inputs": [
        {
          "internalType": "uint256",
          "name": "batchId",
          "type": "uint256"
        }
      ],
      "name": "getBatch",
      "outputs": [
        {
          "internalType": "uint64",
          "name": "imageId",
          "type": "uint64"
        },
        {
          "internalType": "uint64",
          "name": "metadataId",
          "type": "uint64"
        },
        {
          "internalType": "uint128",
          "name": "createdAt",
          "type": "uint128"
        },
        {
          "internalType": "uint256",
          "name": "nbTickets",
          "type": "uint256"
        }
      ],
      "stateMutability": "view",
      "type": "function"
    },
    {
      "inputs": [
        {
          "internalType": "uint256",
          "name": "tokenId",
          "type": "uint256"
        }
      ],
      "name": "getFullToken",
      "outputs": [
        {
          "components": [
            {
              "components": [
                {
                  "internalType": "address",
                  "name": "owner",
                  "type": "address"
                },
                {
                  "internalType": "uint256",
                  "name": "batchId",
                  "type": "uint256"
                },
                {
                  "internalType": "bytes32",
                  "name": "ticketId",
                  "type": "bytes32"
                }
              ],
              "internalType": "struct TRY26.Token",
              "name": "token",
              "type": "tuple"
            },
            {
              "components": [
                {
                  "internalType": "uint64",
                  "name": "imageId",
                  "type": "uint64"
                },
                {
                  "internalType": "uint64",
                  "name": "metadataId",
                  "type": "uint64"
                },
                {
                  "internalType": "uint128",
                  "name": "createdAt",
                  "type": "uint128"
                },
                {
                  "internalType": "address",
                  "name": "admin",
                  "type": "address"
                }
              ],
              "internalType": "struct TRY26.Batch",
              "name": "batch",
              "type": "tuple"
            }
          ],
          "internalType": "struct TRY26.FullToken",
          "name": "",
          "type": "tuple"
        }
      ],
      "stateMutability": "view",
      "type": "function"
    },
    {
      "inputs": [
        {
          "internalType": "uint64",
          "name": "metadataId",
          "type": "uint64"
        }
      ],
      "name": "getMetadata",
      "outputs": [
        {
          "internalType": "string",
          "name": "metadata",
          "type": "string"
        }
      ],
      "stateMutability": "view",
      "type": "function"
    },
    {
      "inputs": [
        {
          "internalType": "uint256",
          "name": "tokenId",
          "type": "uint256"
        }
      ],
      "name": "getToken",
      "outputs": [
        {
          "components": [
            {
              "internalType": "address",
              "name": "owner",
              "type": "address"
            },
            {
              "internalType": "uint256",
              "name": "batchId",
              "type": "uint256"
            },
            {
              "internalType": "bytes32",
              "name": "ticketId",
              "type": "bytes32"
            }
          ],
          "internalType": "struct TRY26.Token",
          "name": "",
          "type": "tuple"
        }
      ],
      "stateMutability": "view",
      "type": "function"
    },
    {
      "inputs": [
        {
          "internalType": "address",
          "name": "",
          "type": "address"
        },
        {
          "internalType": "address",
          "name": "",
          "type": "address"
        }
      ],
      "name": "isApprovedForAll",
      "outputs": [
        {
          "internalType": "bool",
          "name": "",
          "type": "bool"
        }
      ],
      "stateMutability": "pure",
      "type": "function"
    },
    {
      "inputs": [],
      "name": "name",
      "outputs": [
        {
          "internalType": "string",
          "name": "",
          "type": "string"
        }
      ],
      "stateMutability": "pure",
      "type": "function"
    },
    {
      "inputs": [],
      "name": "owner",
      "outputs": [
        {
          "internalType": "address",
          "name": "",
          "type": "address"
        }
      ],
      "stateMutability": "view",
      "type": "function"
    },
    {
      "inputs": [
        {
          "internalType": "uint256",
          "name": "tokenId",
          "type": "uint256"
        }
      ],
      "name": "ownerOf",
      "outputs": [
        {
          "internalType": "address",
          "name": "",
          "type": "address"
        }
      ],
      "stateMutability": "view",
      "type": "function"
    },
    {
      "inputs": [
        {
          "internalType": "uint64",
          "name": "imageId",
          "type": "uint64"
        },
        {
          "internalType": "uint64",
          "name": "metadataId",
          "type": "uint64"
        },
        {
          "internalType": "bytes32[]",
          "name": "tickets",
          "type": "bytes32[]"
        }
      ],
      "name": "preMint",
      "outputs": [
        {
          "internalType": "uint256",
          "name": "batchId",
          "type": "uint256"
        }
      ],
      "stateMutability": "nonpayable",
      "type": "function"
    },
    {
      "inputs": [],
      "name": "renounceOwnership",
      "outputs": [],
      "stateMutability": "nonpayable",
      "type": "function"
    },
    {
      "inputs": [
        {
          "internalType": "bytes32",
          "name": "reservation",
          "type": "bytes32"
        }
      ],
      "name": "reserve",
      "outputs": [],
      "stateMutability": "nonpayable",
      "type": "function"
    },
    {
      "inputs": [
        {
          "internalType": "address",
          "name": "",
          "type": "address"
        },
        {
          "internalType": "address",
          "name": "",
          "type": "address"
        },
        {
          "internalType": "uint256",
          "name": "",
          "type": "uint256"
        }
      ],
      "name": "safeTransferFrom",
      "outputs": [],
      "stateMutability": "pure",
      "type": "function"
    },
    {
      "inputs": [
        {
          "internalType": "address",
          "name": "",
          "type": "address"
        },
        {
          "internalType": "address",
          "name": "",
          "type": "address"
        },
        {
          "internalType": "uint256",
          "name": "",
          "type": "uint256"
        },
        {
          "internalType": "bytes",
          "name": "",
          "type": "bytes"
        }
      ],
      "name": "safeTransferFrom",
      "outputs": [],
      "stateMutability": "pure",
      "type": "function"
    },
    {
      "inputs": [
        {
          "internalType": "address",
          "name": "",
          "type": "address"
        },
        {
          "internalType": "bool",
          "name": "",
          "type": "bool"
        }
      ],
      "name": "setApprovalForAll",
      "outputs": [],
      "stateMutability": "pure",
      "type": "function"
    },
    {
      "inputs": [
        {
          "internalType": "bytes4",
          "name": "interfaceId",
          "type": "bytes4"
        }
      ],
      "name": "supportsInterface",
      "outputs": [
        {
          "internalType": "bool",
          "name": "",
          "type": "bool"
        }
      ],
      "stateMutability": "view",
      "type": "function"
    },
    {
      "inputs": [],
      "name": "symbol",
      "outputs": [
        {
          "internalType": "string",
          "name": "",
          "type": "string"
        }
      ],
      "stateMutability": "pure",
      "type": "function"
    },
    {
      "inputs": [
        {
          "internalType": "uint256",
          "name": "batchId",
          "type": "uint256"
        },
        {
          "internalType": "uint256",
          "name": "start",
          "type": "uint256"
        },
        {
          "internalType": "uint256",
          "name": "size",
          "type": "uint256"
        }
      ],
      "name": "ticketsByBatch",
      "outputs": [
        {
          "internalType": "bytes32[]",
          "name": "tickets",
          "type": "bytes32[]"
        }
      ],
      "stateMutability": "view",
      "type": "function"
    },
    {
      "inputs": [
        {
          "internalType": "uint256",
          "name": "index",
          "type": "uint256"
        }
      ],
      "name": "tokenByIndex",
      "outputs": [
        {
          "internalType": "uint256",
          "name": "",
          "type": "uint256"
        }
      ],
      "stateMutability": "view",
      "type": "function"
    },
    {
      "inputs": [
        {
          "internalType": "bytes32",
          "name": "ticketId",
          "type": "bytes32"
        }
      ],
      "name": "tokenIdByTicketId",
      "outputs": [
        {
          "internalType": "uint256",
          "name": "tokenId",
          "type": "uint256"
        }
      ],
      "stateMutability": "view",
      "type": "function"
    },
    {
      "inputs": [
        {
          "internalType": "address",
          "name": "target",
          "type": "address"
        },
        {
          "internalType": "uint256",
          "name": "start",
          "type": "uint256"
        },
        {
          "internalType": "uint256",
          "name": "size",
          "type": "uint256"
        }
      ],
      "name": "tokenIdsByOwner",
      "outputs": [
        {
          "internalType": "uint256[]",
          "name": "tokenIds",
          "type": "uint256[]"
        }
      ],
      "stateMutability": "view",
      "type": "function"
    },
    {
      "inputs": [
        {
          "internalType": "address",
          "name": "target",
          "type": "address"
        },
        {
          "internalType": "uint256",
          "name": "index",
          "type": "uint256"
        }
      ],
      "name": "tokenOfOwnerByIndex",
      "outputs": [
        {
          "internalType": "uint256",
          "name": "tokenId",
          "type": "uint256"
        }
      ],
      "stateMutability": "view",
      "type": "function"
    },
    {
      "inputs": [
        {
          "internalType": "uint256",
          "name": "tokenId",
          "type": "uint256"
        }
      ],
      "name": "tokenURI",
      "outputs": [
        {
          "internalType": "string",
          "name": "",
          "type": "string"
        }
      ],
      "stateMutability": "view",
      "type": "function"
    },
    {
      "inputs": [],
      "name": "totalBatches",
      "outputs": [
        {
          "internalType": "uint256",
          "name": "",
          "type": "uint256"
        }
      ],
      "stateMutability": "view",
      "type": "function"
    },
    {
      "inputs": [],
      "name": "totalMetadatas",
      "outputs": [
        {
          "internalType": "uint64",
          "name": "",
          "type": "uint64"
        }
      ],
      "stateMutability": "view",
      "type": "function"
    },
    {
      "inputs": [],
      "name": "totalSupply",
      "outputs": [
        {
          "internalType": "uint256",
          "name": "",
          "type": "uint256"
        }
      ],
      "stateMutability": "view",
      "type": "function"
    },
    {
      "inputs": [],
      "name": "totalTickets",
      "outputs": [
        {
          "internalType": "uint256",
          "name": "",
          "type": "uint256"
        }
      ],
      "stateMutability": "view",
      "type": "function"
    },
    {
      "inputs": [
        {
          "internalType": "address",
          "name": "",
          "type": "address"
        },
        {
          "internalType": "address",
          "name": "",
          "type": "address"
        },
        {
          "internalType": "uint256",
          "name": "",
          "type": "uint256"
        }
      ],
      "name": "transferFrom",
      "outputs": [],
      "stateMutability": "pure",
      "type": "function"
    },
    {
      "inputs": [
        {
          "internalType": "address",
          "name": "newOwner",
          "type": "address"
        }
      ],
      "name": "transferOwnership",
      "outputs": [],
      "stateMutability": "nonpayable",
      "type": "function"
    }
  ],
  "bytecode": "0x610160604052348015610010575f80fd5b5033604080518082018252601381527f5477656e747953697820536f756c626f756e6400000000000000000000000000602080830191909152825180840190935260018352603160f81b9083015290610069825f61037e565b6101205261007881600161037e565b61014052815160208084019190912060e052815190820120610100524660a05261010460e05161010051604080517f8b73c3c69bb8fe3d512ecc4cf759cc79239f7b179b0ffacaa9a75d522b39400f60208201529081019290925260608201524660808201523060a08201525f9060c00160405160208183030381529060405280519060200120905090565b60805250503060c0526001600160a01b03811661013b57604051631e4fbdf760e01b81525f60048201526024015b60405180910390fd5b610144816103b0565b505f61016860405180610120016040528060e88152602001612e8a60e89139610401565b60038054919250339164616263646560d81b915f9182906101889061058a565b91829055506040805160808101825260018082526001600160401b0388811660208085019182526001600160801b034281168688019081526001600160a01b03808d16606089019081525f8b8152600786528a812099518a54975194518616600160801b0294891668010000000000000000026001600160801b0319909816981697909717959095179092161786559151949093018054949091166001600160a01b031990941693909317909255600890522090915061024890836104ac565b5060048054905f6102588361058a565b9190505550826001600160a01b0316846001600160401b0316827fed32a952f69b26b982e60a875601c166d4c0b942bff971f758de1818a512f0c360016040516102a491815260200190565b60405180910390a45f60055f81546102bb9061058a565b91829055505f848152600a6020908152604080832084905580516060810182526001600160a01b038981168083528285018981528385018b8152888852600b8752858820945185546001600160a01b031916941693909317845551600184015590516002909201919091558352600c909152902090915061033c90826104ac565b5060405181906001600160a01b038616905f907fddf252ad1be2c89b69c2b068fc378daa952ba7f163c4a11628f55a4df523b3ef908290a45050505050610777565b5f60208351101561039957610392836104be565b90506103aa565b816103a4848261063a565b5060ff90505b92915050565b600280546001600160a01b038381166001600160a01b0319831681179093556040519116919082907f8be0079c531659141344cd1fd0a4f28419497f9722a3daafe3b4186f6b6457e0905f90a35050565b5f61040a6104fb565b6002805460149061042a90600160a01b90046001600160401b03166106f4565b82546001600160401b038083166101009490940a848102910219909116179092555f908152600660205260409020909150610465838261063a565b50806001600160401b03167fde0306809fbf78d7b03f57ef6c8a474ce454bdfd05d30695ecd16b78cb7f74368360405161049f919061071f565b60405180910390a2919050565b5f6104b7838361052a565b9392505050565b5f80829050601f815111156104e8578260405163305a27a960e01b8152600401610132919061071f565b80516104f382610754565b179392505050565b6002546001600160a01b031633146105285760405163118cdaa760e01b8152336004820152602401610132565b565b5f81815260018301602052604081205461056f57508154600181810184555f8481526020808220909301849055845484825282860190935260409020919091556103aa565b505f6103aa565b634e487b7160e01b5f52601160045260245ffd5b5f6001820161059b5761059b610576565b5060010190565b634e487b7160e01b5f52604160045260245ffd5b600181811c908216806105ca57607f821691505b6020821081036105e857634e487b7160e01b5f52602260045260245ffd5b50919050565b601f82111561063557805f5260205f20601f840160051c810160208510156106135750805b601f840160051c820191505b81811015610632575f815560010161061f565b50505b505050565b81516001600160401b03811115610653576106536105a2565b6106678161066184546105b6565b846105ee565b6020601f821160018114610699575f83156106825750848201515b5f19600385901b1c1916600184901b178455610632565b5f84815260208120601f198516915b828110156106c857878501518255602094850194600190920191016106a8565b50848210156106e557868401515f19600387901b60f8161c191681555b50505050600190811b01905550565b5f6001600160401b0382166002600160401b0319810161071657610716610576565b60010192915050565b602081525f82518060208401528060208501604085015e5f604082850101526040601f19601f83011684010191505092915050565b805160208083015191908110156105e8575f1960209190910360031b1b16919050565b60805160a05160c05160e0516101005161012051610140516126c26107c85f395f61179c01525f61176b01525f611b9201525f611b6a01525f611ac501525f611aef01525f611b1901526126c25ff3fe608060405234801561000f575f80fd5b5060043610610235575f3560e01c8063640ffaad1161013d578063998e84a3116100b8578063dd11247e11610088578063e8a3d4851161006e578063e8a3d4851461066a578063e985e9c514610672578063f2fde38b14610680575f80fd5b8063dd11247e146105f3578063e4b50cb8146105fc575f80fd5b8063998e84a3146105b1578063a22cb465146105c4578063b88d4fde146105d2578063c87b56dd146105e0575f80fd5b8063715018a61161010d57806384b0196e116100f357806384b0196e1461054c5780638da5cb5b1461056757806395d89b4114610578575f80fd5b8063715018a6146105295780637e2228fc14610531575f80fd5b8063640ffaad146104e757806367ac8c0a146104fa57806369ff6abb1461050d57806370a0823114610516575f80fd5b80632f745c59116101cd578063562a87401161019d5780635da54085116101835780635da54085146104805780635e3e82b01461049f5780636352211e146104bf575f80fd5b8063562a8740146103fe5780635ac442821461042a575f80fd5b80632f745c59146103c557806342842e0e146103b7578063432ced04146103d85780634f6ccce7146103eb575f80fd5b8063095ea7b311610208578063095ea7b31461037057806309fda94b1461038557806318160ddd146103a557806323b872dd146103b7575f80fd5b806301ffc9a71461023957806303cbd8881461026157806306fdde0314610303578063081812fc14610345575b5f80fd5b61024c610247366004611c5f565b610693565b60405190151581526020015b60405180910390f35b61027461026f366004611c86565b610763565b6040516102589190815180516001600160a01b03168252602080820151908301526040908101519082015260e08101602083015167ffffffffffffffff815116606084015267ffffffffffffffff60208201511660808401526fffffffffffffffffffffffffffffffff60408201511660a08401526001600160a01b0360608201511660c08401525092915050565b60408051808201909152601381527f5477656e747953697820536f756c626f756e640000000000000000000000000060208201525b6040516102589190611ccb565b610358610353366004611c86565b610864565b6040516001600160a01b039091168152602001610258565b61038361037e366004611cf8565b61087e565b005b610398610393366004611d20565b610897565b6040516102589190611d8a565b6005545b604051908152602001610258565b61038361037e366004611d9c565b6103a96103d3366004611cf8565b6108f7565b6103836103e6366004611c86565b610948565b6103a96103f9366004611c86565b610a03565b61041161040c366004611ead565b610a2b565b60405167ffffffffffffffff9091168152602001610258565b61043d610438366004611c86565b610ad9565b6040805167ffffffffffffffff95861681529490931660208501526fffffffffffffffffffffffffffffffff909116918301919091526060820152608001610258565b6103a961048e366004611c86565b5f908152600a602052604090205490565b6104b26104ad366004611ef2565b610b99565b6040516102589190611f1b565b6103586104cd366004611c86565b5f908152600b60205260409020546001600160a01b031690565b6103a96104f5366004611f74565b610c08565b610383610508366004612001565b610e24565b6103a960035481565b6103a9610524366004612084565b610fb8565b610383610fd8565b60025461041190600160a01b900467ffffffffffffffff1681565b610554610feb565b604051610258979695949392919061209d565b6002546001600160a01b0316610358565b60408051808201909152600581527f54525932360000000000000000000000000000000000000000000000000000006020820152610338565b6103386105bf366004612126565b611049565b61038361037e36600461213f565b61038361037e366004612178565b6103386105ee366004611c86565b61112a565b6103a960045481565b61065d61060a366004611c86565b60408051606080820183525f8083526020808401829052928401819052938452600b8252928290208251938401835280546001600160a01b03168452600181015491840191909152600201549082015290565b60405161025891906121ef565b61033861126e565b61024c610353366004612219565b61038361068e366004612084565b6112e4565b5f6001600160e01b031982167f80ac58cd0000000000000000000000000000000000000000000000000000000014806106f557506001600160e01b031982167f5b5e139f00000000000000000000000000000000000000000000000000000000145b8061072957506001600160e01b031982167f780e9d6300000000000000000000000000000000000000000000000000000000145b8061075d57507f01ffc9a7000000000000000000000000000000000000000000000000000000006001600160e01b03198316145b92915050565b6107b26040805160a0810182525f9181018281526060820183905260808201929092529081908152604080516080810182525f8082526020828101829052928201819052606082015291015290565b505f908152600b6020908152604080832081516060808201845282546001600160a01b0390811683526001808501548488018190526002909501548487015293875260078652958490208451608081018652815467ffffffffffffffff80821683526801000000000000000082041682890152600160801b90046fffffffffffffffffffffffffffffffff16818701529301549095169482019490945281518083019092529281529081019190915290565b5f6040516341f8b8eb60e11b815260040160405180910390fd5b6040516341f8b8eb60e11b815260040160405180910390fd5b6001600160a01b0383165f908152600c602052604090206060906108ba8161133a565b6108c4848661225e565b11156108e357604051634e23d03560e01b815260040160405180910390fd5b6108ee818585611343565b95945050505050565b6001600160a01b0382165f908152600c602052604081206109178161133a565b831061093657604051634e23d03560e01b815260040160405180910390fd5b61094081846113d4565b949350505050565b5f8181526009602052604090205415610995576040517fe26b6c3a000000000000000000000000000000000000000000000000000000008152600481018290526024015b60405180910390fd5b5f6109a1603c4261225e565b5f8381526009602052604090208190559050336001600160a01b03167fc2e6e791274f4ca6517553570472956264bb5d03c9b67ea9b0ccd1e3aed81c4183836040516109f7929190918252602082015260400190565b60405180910390a25050565b5f600554821115610a2757604051634e23d03560e01b815260040160405180910390fd5b5090565b5f610a346113e6565b60028054601490610a5590600160a01b900467ffffffffffffffff16612271565b825467ffffffffffffffff8083166101009490940a848102910219909116179092555f908152600660205260409020909150610a918382612321565b508067ffffffffffffffff167fde0306809fbf78d7b03f57ef6c8a474ce454bdfd05d30695ecd16b78cb7f743683604051610acc9190611ccb565b60405180910390a2919050565b5f805f80600354851115610b0057604051634e23d03560e01b815260040160405180910390fd5b5f8581526007602090815260408083208151608081018352815467ffffffffffffffff808216808452680100000000000000008304909116838701819052600160801b9092046fffffffffffffffffffffffffffffffff168386018190526001909401546001600160a01b031660608401528b87526008909552929094209297509095509350610b8f9061133a565b9150509193509193565b6060600354841115610bbe57604051634e23d03560e01b815260040160405180910390fd5b5f848152600860205260409020610bd48161133a565b610bde848661225e565b1115610bfd57604051634e23d03560e01b815260040160405180910390fd5b6108ee81858561142c565b5f610c116113e6565b5f610c246002546001600160a01b031690565b905060035f8154610c34906123dc565b918290555060025490925067ffffffffffffffff600160a01b90910481169086161180610c5f575082155b15610c96576040517f33b094a100000000000000000000000000000000000000000000000000000000815260040160405180910390fd5b6040805160808101825267ffffffffffffffff808916825287811660208084019182526fffffffffffffffffffffffffffffffff4281168587019081526001600160a01b03808916606088019081525f8b81526007865289812098518954975194518616600160801b0294891668010000000000000000027fffffffffffffffffffffffffffffffff00000000000000000000000000000000909816981697909717959095179092161785559151600190940180549490921673ffffffffffffffffffffffffffffffffffffffff199094169390931790556008909152908120905b84811015610db457610dab868683818110610d9557610d956123f4565b90506020020135836114b090919063ffffffff16565b50600101610d78565b508484905060045f828254610dc9919061225e565b90915550506040518481526001600160a01b0383169067ffffffffffffffff88169085907fed32a952f69b26b982e60a875601c166d4c0b942bff971f758de1818a512f0c39060200160405180910390a45050949350505050565b602081810151604080840151905133606081901b6bffffffffffffffffffffffff191694820194909452603481019290925260548201525f9060740160408051601f1981840301815291815281516020928301205f8181526009909352912054909150801580610e9357508042105b15610ecd576040517f4f31f9ad0000000000000000000000000000000000000000000000000000000081526004810183905260240161098c565b5f610ed7856114bb565b90505f60055f8154610ee8906123dc565b91829055505f838152600a6020908152604080832084905580516060810182526001600160a01b038a81168083528c518386019081528385018a8152888852600b87528588209451855473ffffffffffffffffffffffffffffffffffffffff1916941693909317845551600184015590516002909201919091558352600c9091529020909150610f7890826114b0565b5060405181906001600160a01b038716905f907fddf252ad1be2c89b69c2b068fc378daa952ba7f163c4a11628f55a4df523b3ef908290a4505050505050565b6001600160a01b0381165f908152600c6020526040812061075d9061133a565b610fe06113e6565b610fe95f611706565b565b5f6060805f805f6060610ffc611764565b611004611795565b604080515f808252602082019092527f0f000000000000000000000000000000000000000000000000000000000000009b939a50919850469750309650945092509050565b60025460609067ffffffffffffffff600160a01b9091048116908316111561108457604051634e23d03560e01b815260040160405180910390fd5b67ffffffffffffffff82165f90815260066020526040902080546110a79061229d565b80601f01602080910402602001604051908101604052809291908181526020018280546110d39061229d565b801561111e5780601f106110f55761010080835404028352916020019161111e565b820191905f5260205f20905b81548152906001019060200180831161110157829003601f168201915b50505050509050919050565b5f818152600b60209081526040808320600190810154845260078352928190208151608081018352815467ffffffffffffffff80821683526801000000000000000082041682860152600160801b90046fffffffffffffffffffffffffffffffff16818401529301546001600160a01b031660608085019190915281518083018352601b81527f646174613a6170706c69636174696f6e2f6a736f6e3b757466382c000000000081850152825160a08101909352606e808452919493909291906125e49083013982516112069067ffffffffffffffff166117c2565b6040518060600160405280603b8152602001612652603b9139611228876117c2565b60208087015167ffffffffffffffff165f9081526006825260409081902090516112579796959493920161241f565b604051602081830303815290604052915050919050565b60606040518060400160405280601b81526020017f646174613a6170706c69636174696f6e2f6a736f6e3b757466382c00000000008152506040518060e0016040528060b7815260200161252d60b791396040516020016112d0929190612518565b604051602081830303815290604052905090565b6112ec6113e6565b6001600160a01b03811661132e576040517f1e4fbdf70000000000000000000000000000000000000000000000000000000081525f600482015260240161098c565b61133781611706565b50565b5f61075d825490565b60608167ffffffffffffffff81111561135e5761135e611dd6565b604051908082528060200260200182016040528015611387578160200160208202803683370190505b5090505f5b828110156113cc576113a7856113a2838761225e565b6113d4565b8282815181106113b9576113b96123f4565b602090810291909101015260010161138c565b509392505050565b5f6113df838361185f565b9392505050565b6002546001600160a01b03163314610fe9576040517f118cdaa700000000000000000000000000000000000000000000000000000000815233600482015260240161098c565b60608167ffffffffffffffff81111561144757611447611dd6565b604051908082528060200260200182016040528015611470578160200160208202803683370190505b5090505f5b828110156113cc5761148b856113a2838761225e565b82828151811061149d5761149d6123f4565b6020908102919091010152600101611475565b5f6113df8383611885565b5f816020015182604001516040516020016114e0929190918252602082015260400190565b60408051601f19818403018152918152815160209283012084515f9081526008909352912090915061151281836118d1565b6115555782516040517fab96bbb100000000000000000000000000000000000000000000000000000000815260048101919091526024810183905260440161098c565b5f828152600a6020526040902054156115a75782516040517f57b3f52000000000000000000000000000000000000000000000000000000000815260048101919091526024810183905260440161098c565b82515f90815260076020908152604080832060019081015487518489015184517f081d8a101c9e83b52de364500f89e97f08bcca96e40be304d60f3b7a4f1b2be4968101969096526001600160a01b039092169385018490526060850152608084015290929161162f9060a001604051602081830303815290604052805190602001206118e8565b6060870151805160208083015160409384015184515f815290920193849052611674949390919093845260ff9290921660208401526040830152606082015260800190565b6020604051602081039080840390855afa158015611694573d5f803e3d5ffd5b505050602060405103519050816001600160a01b0316816001600160a01b0316146116fe576040517f7ba5ffb50000000000000000000000000000000000000000000000000000000081526001600160a01b0380841660048301528216602482015260440161098c565b505050919050565b600280546001600160a01b0383811673ffffffffffffffffffffffffffffffffffffffff19831681179093556040519116919082907f8be0079c531659141344cd1fd0a4f28419497f9722a3daafe3b4186f6b6457e0905f90a35050565b60606117907f00000000000000000000000000000000000000000000000000000000000000005f61192f565b905090565b60606117907f0000000000000000000000000000000000000000000000000000000000000000600161192f565b60605f6117ce836119d8565b60010190505f8167ffffffffffffffff8111156117ed576117ed611dd6565b6040519080825280601f01601f191660200182016040528015611817576020820181803683370190505b5090508181016020015b5f19017f3031323334353637383961626364656600000000000000000000000000000000600a86061a8153600a850494508461182157509392505050565b5f825f018281548110611874576118746123f4565b905f5260205f200154905092915050565b5f8181526001830160205260408120546118ca57508154600181810184555f84815260208082209093018490558454848252828601909352604090209190915561075d565b505f61075d565b5f81815260018301602052604081205415156113df565b5f61075d6118f4611ab9565b836040517f19010000000000000000000000000000000000000000000000000000000000008152600281019290925260228201526042902090565b606060ff83146119495761194283611be2565b905061075d565b8180546119559061229d565b80601f01602080910402602001604051908101604052809291908181526020018280546119819061229d565b80156119cc5780601f106119a3576101008083540402835291602001916119cc565b820191905f5260205f20905b8154815290600101906020018083116119af57829003601f168201915b5050505050905061075d565b5f807a184f03e93ff9f4daa797ed6e38ed64bf6a1f0100000000000000008310611a20577a184f03e93ff9f4daa797ed6e38ed64bf6a1f010000000000000000830492506040015b6d04ee2d6d415b85acef81000000008310611a4c576d04ee2d6d415b85acef8100000000830492506020015b662386f26fc100008310611a6a57662386f26fc10000830492506010015b6305f5e1008310611a82576305f5e100830492506008015b6127108310611a9657612710830492506004015b60648310611aa8576064830492506002015b600a831061075d5760010192915050565b5f306001600160a01b037f000000000000000000000000000000000000000000000000000000000000000016148015611b1157507f000000000000000000000000000000000000000000000000000000000000000046145b15611b3b57507f000000000000000000000000000000000000000000000000000000000000000090565b611790604080517f8b73c3c69bb8fe3d512ecc4cf759cc79239f7b179b0ffacaa9a75d522b39400f60208201527f0000000000000000000000000000000000000000000000000000000000000000918101919091527f000000000000000000000000000000000000000000000000000000000000000060608201524660808201523060a08201525f9060c00160405160208183030381529060405280519060200120905090565b60605f611bee83611c1f565b6040805160208082528183019092529192505f91906020820181803683375050509182525060208101929092525090565b5f60ff8216601f81111561075d576040517fb3512b0c00000000000000000000000000000000000000000000000000000000815260040160405180910390fd5b5f60208284031215611c6f575f80fd5b81356001600160e01b0319811681146113df575f80fd5b5f60208284031215611c96575f80fd5b5035919050565b5f81518084528060208401602086015e5f602082860101526020601f19601f83011685010191505092915050565b602081525f6113df6020830184611c9d565b80356001600160a01b0381168114611cf3575f80fd5b919050565b5f8060408385031215611d09575f80fd5b611d1283611cdd565b946020939093013593505050565b5f805f60608486031215611d32575f80fd5b611d3b84611cdd565b95602085013595506040909401359392505050565b5f8151808452602084019350602083015f5b82811015611d80578151865260209586019590910190600101611d62565b5093949350505050565b602081525f6113df6020830184611d50565b5f805f60608486031215611dae575f80fd5b611db784611cdd565b9250611dc560208501611cdd565b929592945050506040919091013590565b634e487b7160e01b5f52604160045260245ffd5b6040516080810167ffffffffffffffff81118282101715611e0d57611e0d611dd6565b60405290565b6040516060810167ffffffffffffffff81118282101715611e0d57611e0d611dd6565b5f8067ffffffffffffffff841115611e5057611e50611dd6565b50604051601f19601f85018116603f0116810181811067ffffffffffffffff82111715611e7f57611e7f611dd6565b604052838152905080828401851015611e96575f80fd5b838360208301375f60208583010152509392505050565b5f60208284031215611ebd575f80fd5b813567ffffffffffffffff811115611ed3575f80fd5b8201601f81018413611ee3575f80fd5b61094084823560208401611e36565b5f805f60608486031215611f04575f80fd5b505081359360208301359350604090920135919050565b602080825282518282018190525f918401906040840190835b81811015611f52578351835260209384019390920191600101611f34565b509095945050505050565b803567ffffffffffffffff81168114611cf3575f80fd5b5f805f8060608587031215611f87575f80fd5b611f9085611f5d565b9350611f9e60208601611f5d565b9250604085013567ffffffffffffffff811115611fb9575f80fd5b8501601f81018713611fc9575f80fd5b803567ffffffffffffffff811115611fdf575f80fd5b8760208260051b8401011115611ff3575f80fd5b949793965060200194505050565b5f81830360c081128015612013575f80fd5b5061201c611dea565b8335815260208085013590820152604080850135908201526060605f1983011215612045575f80fd5b61204d611e13565b9150606084013560ff81168114612062575f80fd5b82526080840135602083015260a0909301356040820152606083015250919050565b5f60208284031215612094575f80fd5b6113df82611cdd565b7fff000000000000000000000000000000000000000000000000000000000000008816815260e060208201525f6120d760e0830189611c9d565b82810360408401526120e98189611c9d565b90508660608401526001600160a01b03861660808401528460a084015282810360c08401526121188185611d50565b9a9950505050505050505050565b5f60208284031215612136575f80fd5b6113df82611f5d565b5f8060408385031215612150575f80fd5b61215983611cdd565b91506020830135801515811461216d575f80fd5b809150509250929050565b5f805f806080858703121561218b575f80fd5b61219485611cdd565b93506121a260208601611cdd565b925060408501359150606085013567ffffffffffffffff8111156121c4575f80fd5b8501601f810187136121d4575f80fd5b6121e387823560208401611e36565b91505092959194509250565b81516001600160a01b0316815260208083015190820152604080830151908201526060810161075d565b5f806040838503121561222a575f80fd5b61223383611cdd565b915061224160208401611cdd565b90509250929050565b634e487b7160e01b5f52601160045260245ffd5b8082018082111561075d5761075d61224a565b5f67ffffffffffffffff821667ffffffffffffffff81036122945761229461224a565b60010192915050565b600181811c908216806122b157607f821691505b6020821081036122cf57634e487b7160e01b5f52602260045260245ffd5b50919050565b601f82111561231c57805f5260205f20601f840160051c810160208510156122fa5750805b601f840160051c820191505b81811015612319575f8155600101612306565b50505b505050565b815167ffffffffffffffff81111561233b5761233b611dd6565b61234f81612349845461229d565b846122d5565b6020601f821160018114612381575f831561236a5750848201515b5f19600385901b1c1916600184901b178455612319565b5f84815260208120601f198516915b828110156123b05787850151825560209485019460019092019101612390565b50848210156123cd57868401515f19600387901b60f8161c191681555b50505050600190811b01905550565b5f600182016123ed576123ed61224a565b5060010190565b634e487b7160e01b5f52603260045260245ffd5b5f81518060208401855e5f93019283525090919050565b5f61244e61244861244261243c612436868d612408565b8b612408565b89612408565b87612408565b85612408565b7f222c2261747472696275746573223a000000000000000000000000000000000081525f845461247d8161229d565b60018216801561249457600181146124af576124e2565b60ff198316600f860152600f821515830286010193506124e2565b875f5260205f205f5b838110156124d7578154878201600f01526001909101906020016124b8565b5050600f8286010193505b50507f7d000000000000000000000000000000000000000000000000000000000000008252506001019998505050505050505050565b5f6109406125268386612408565b8461240856fe7b226e616d65223a225477656e747953697820536f756c626f756e64222c226465736372697074696f6e223a224578636c7573697665204672656520547269616c73206f6e205477656e7479536978222c22696d616765223a2268747470733a2f2f64656d6f2e62696e6172796579656c6162732e78797a2f353132783531322e706e67222c2265787465726e616c5f6c696e6b223a2268747470733a2f2f64656d6f2e62696e6172796579656c6162732e78797a227d7b226e616d65223a225452593236222c226465736372697074696f6e223a224578636c7573697665204672656520547269616c206f6e205477656e7479536978222c22696d616765223a2268747470733a2f2f64656d6f2e62696e6172796579656c6162732e78797a2f696d672f2e706e67222c2265787465726e616c5f75726c223a2268747470733a2f2f64656d6f2e62696e6172796579656c6162732e78797a2f232f7362742fa26469706673582212202f6aad450b7a35512bc9c11e4938dc0356d47e5e60923f6b9e0c0cabbe6b384264736f6c634300081a00335b7b2274726169745f74797065223a2254797065222c2276616c7565223a22496e7374616e6365227d2c7b2274726169745f74797065223a22435055222c2276616c7565223a2231227d2c7b2274726169745f74797065223a2252414d222c2276616c7565223a22324742227d2c7b2274726169745f74797065223a22484444222c2276616c7565223a2232304742227d2c7b2274726169745f74797065223a227374617274222c2276616c7565223a22323032342d30362d3230227d2c7b2274726169745f74797065223a22656e64222c2276616c7565223a22323032342d30372d3230227d5d",
  "linkReferences": {},
  "deployedLinkReferences": {}
}