{
  "_format": "hh-sol-artifact-1",
  "contractName": "TRY26",
  "sourceName": "contracts/TRY26.sol",
  "abi": [
    {
      "inputs": [],
      "stateMutability": "nonpayable",
      "type": "constructor"
    },
    {
      "inputs": [
        {
          "internalType": "address",
          "name": "from",
          "type": "address"
        },
        {
          "internalType": "uint256",
          "name": "tokenId",
          "type": "uint256"
        },
        {
          "internalType": "address",
          "name": "previousOwner",
          "type": "address"
        }
      ],
      "name": "ERC721IncorrectOwner",
      "type": "error"
    },
    {
      "inputs": [
        {
          "internalType": "address",
          "name": "receiver",
          "type": "address"
        }
      ],
      "name": "ERC721InvalidReceiver",
      "type": "error"
    },
    {
      "inputs": [],
      "name": "IndexOutOfBounds",
      "type": "error"
    },
    {
      "inputs": [],
      "name": "InvalidBatch",
      "type": "error"
    },
    {
      "inputs": [],
      "name": "InvalidShortString",
      "type": "error"
    },
    {
      "inputs": [
        {
          "internalType": "address",
          "name": "creator",
          "type": "address"
        },
        {
          "internalType": "address",
          "name": "signer",
          "type": "address"
        }
      ],
      "name": "InvalidSigner",
      "type": "error"
    },
    {
      "inputs": [],
      "name": "MethodNotAllowed",
      "type": "error"
    },
    {
      "inputs": [
        {
          "internalType": "address",
          "name": "owner",
          "type": "address"
        }
      ],
      "name": "OwnableInvalidOwner",
      "type": "error"
    },
    {
      "inputs": [
        {
          "internalType": "address",
          "name": "account",
          "type": "address"
        }
      ],
      "name": "OwnableUnauthorizedAccount",
      "type": "error"
    },
    {
      "inputs": [
        {
          "internalType": "bytes32",
          "name": "reservation",
          "type": "bytes32"
        }
      ],
      "name": "ReservationNotChanged",
      "type": "error"
    },
    {
      "inputs": [
        {
          "internalType": "bytes32",
          "name": "reservation",
          "type": "bytes32"
        }
      ],
      "name": "ReservationNotFound",
      "type": "error"
    },
    {
      "inputs": [
        {
          "internalType": "string",
          "name": "str",
          "type": "string"
        }
      ],
      "name": "StringTooLong",
      "type": "error"
    },
    {
      "inputs": [
        {
          "internalType": "uint256",
          "name": "batchId",
          "type": "uint256"
        },
        {
          "internalType": "bytes32",
          "name": "ticketId",
          "type": "bytes32"
        }
      ],
      "name": "TicketAlreadyClaimed",
      "type": "error"
    },
    {
      "inputs": [
        {
          "internalType": "uint256",
          "name": "batchId",
          "type": "uint256"
        },
        {
          "internalType": "bytes32",
          "name": "ticketId",
          "type": "bytes32"
        }
      ],
      "name": "TicketNotFound",
      "type": "error"
    },
    {
      "inputs": [
        {
          "internalType": "uint256",
          "name": "tokenId",
          "type": "uint256"
        }
      ],
      "name": "TokenNotFound",
      "type": "error"
    },
    {
      "anonymous": false,
      "inputs": [
        {
          "indexed": true,
          "internalType": "address",
          "name": "owner",
          "type": "address"
        },
        {
          "indexed": true,
          "internalType": "address",
          "name": "approved",
          "type": "address"
        },
        {
          "indexed": true,
          "internalType": "uint256",
          "name": "tokenId",
          "type": "uint256"
        }
      ],
      "name": "Approval",
      "type": "event"
    },
    {
      "anonymous": false,
      "inputs": [
        {
          "indexed": true,
          "internalType": "address",
          "name": "owner",
          "type": "address"
        },
        {
          "indexed": true,
          "internalType": "address",
          "name": "operator",
          "type": "address"
        },
        {
          "indexed": false,
          "internalType": "bool",
          "name": "approved",
          "type": "bool"
        }
      ],
      "name": "ApprovalForAll",
      "type": "event"
    },
    {
      "anonymous": false,
      "inputs": [
        {
          "indexed": false,
          "internalType": "uint256",
          "name": "_fromTokenId",
          "type": "uint256"
        },
        {
          "indexed": false,
          "internalType": "uint256",
          "name": "_toTokenId",
          "type": "uint256"
        }
      ],
      "name": "BatchMetadataUpdate",
      "type": "event"
    },
    {
      "anonymous": false,
      "inputs": [
        {
          "indexed": true,
          "internalType": "uint256",
          "name": "batchId",
          "type": "uint256"
        },
        {
          "indexed": true,
          "internalType": "uint128",
          "name": "metadataId",
          "type": "uint128"
        },
        {
          "indexed": true,
          "internalType": "address",
          "name": "creator",
          "type": "address"
        },
        {
          "indexed": false,
          "internalType": "uint256",
          "name": "amount",
          "type": "uint256"
        }
      ],
      "name": "BatchMint",
      "type": "event"
    },
    {
      "anonymous": false,
      "inputs": [
        {
          "indexed": true,
          "internalType": "uint256",
          "name": "batchId",
          "type": "uint256"
        },
        {
          "indexed": true,
          "internalType": "uint128",
          "name": "metadataId",
          "type": "uint128"
        },
        {
          "indexed": true,
          "internalType": "address",
          "name": "creator",
          "type": "address"
        },
        {
          "indexed": false,
          "internalType": "uint256",
          "name": "nbTickets",
          "type": "uint256"
        }
      ],
      "name": "BatchPreMint",
      "type": "event"
    },
    {
      "anonymous": false,
      "inputs": [],
      "name": "EIP712DomainChanged",
      "type": "event"
    },
    {
      "anonymous": false,
      "inputs": [
        {
          "indexed": false,
          "internalType": "uint256",
          "name": "_tokenId",
          "type": "uint256"
        }
      ],
      "name": "MetadataUpdate",
      "type": "event"
    },
    {
      "anonymous": false,
      "inputs": [
        {
          "indexed": true,
          "internalType": "address",
          "name": "claimer",
          "type": "address"
        },
        {
          "indexed": true,
          "internalType": "uint256",
          "name": "tokenId",
          "type": "uint256"
        },
        {
          "indexed": true,
          "internalType": "uint128",
          "name": "metadataId",
          "type": "uint128"
        }
      ],
      "name": "Mint",
      "type": "event"
    },
    {
      "anonymous": false,
      "inputs": [
        {
          "indexed": true,
          "internalType": "address",
          "name": "previousOwner",
          "type": "address"
        },
        {
          "indexed": true,
          "internalType": "address",
          "name": "newOwner",
          "type": "address"
        }
      ],
      "name": "OwnershipTransferred",
      "type": "event"
    },
    {
      "anonymous": false,
      "inputs": [
        {
          "indexed": true,
          "internalType": "address",
          "name": "owner",
          "type": "address"
        },
        {
          "indexed": false,
          "internalType": "bytes32",
          "name": "reservation",
          "type": "bytes32"
        },
        {
          "indexed": false,
          "internalType": "uint256",
          "name": "unlock",
          "type": "uint256"
        }
      ],
      "name": "TicketReserved",
      "type": "event"
    },
    {
      "anonymous": false,
      "inputs": [
        {
          "indexed": true,
          "internalType": "address",
          "name": "from",
          "type": "address"
        },
        {
          "indexed": true,
          "internalType": "address",
          "name": "to",
          "type": "address"
        },
        {
          "indexed": true,
          "internalType": "uint256",
          "name": "tokenId",
          "type": "uint256"
        }
      ],
      "name": "Transfer",
      "type": "event"
    },
    {
      "inputs": [
        {
          "internalType": "address",
          "name": "",
          "type": "address"
        },
        {
          "internalType": "uint256",
          "name": "",
          "type": "uint256"
        }
      ],
      "name": "approve",
      "outputs": [],
      "stateMutability": "pure",
      "type": "function"
    },
    {
      "inputs": [
        {
          "internalType": "address",
          "name": "target",
          "type": "address"
        }
      ],
      "name": "balanceOf",
      "outputs": [
        {
          "internalType": "uint256",
          "name": "",
          "type": "uint256"
        }
      ],
      "stateMutability": "view",
      "type": "function"
    },
    {
      "inputs": [
        {
          "internalType": "uint256",
          "name": "tokenId",
          "type": "uint256"
        }
      ],
      "name": "burn",
      "outputs": [],
      "stateMutability": "nonpayable",
      "type": "function"
    },
    {
      "inputs": [
        {
          "components": [
            {
              "internalType": "uint256",
              "name": "batchId",
              "type": "uint256"
            },
            {
              "internalType": "bytes32",
              "name": "batchSecret",
              "type": "bytes32"
            },
            {
              "internalType": "bytes32",
              "name": "ticketSecret",
              "type": "bytes32"
            },
            {
              "components": [
                {
                  "internalType": "uint8",
                  "name": "v",
                  "type": "uint8"
                },
                {
                  "internalType": "bytes32",
                  "name": "r",
                  "type": "bytes32"
                },
                {
                  "internalType": "bytes32",
                  "name": "s",
                  "type": "bytes32"
                }
              ],
              "internalType": "struct TRY26.Signature",
              "name": "signature",
              "type": "tuple"
            }
          ],
          "internalType": "struct TRY26.Ticket",
          "name": "ticket",
          "type": "tuple"
        }
      ],
      "name": "claim",
      "outputs": [],
      "stateMutability": "nonpayable",
      "type": "function"
    },
    {
      "inputs": [],
      "name": "contractURI",
      "outputs": [
        {
          "internalType": "string",
          "name": "",
          "type": "string"
        }
      ],
      "stateMutability": "pure",
      "type": "function"
    },
    {
      "inputs": [],
      "name": "eip712Domain",
      "outputs": [
        {
          "internalType": "bytes1",
          "name": "fields",
          "type": "bytes1"
        },
        {
          "internalType": "string",
          "name": "name",
          "type": "string"
        },
        {
          "internalType": "string",
          "name": "version",
          "type": "string"
        },
        {
          "internalType": "uint256",
          "name": "chainId",
          "type": "uint256"
        },
        {
          "internalType": "address",
          "name": "verifyingContract",
          "type": "address"
        },
        {
          "internalType": "bytes32",
          "name": "salt",
          "type": "bytes32"
        },
        {
          "internalType": "uint256[]",
          "name": "extensions",
          "type": "uint256[]"
        }
      ],
      "stateMutability": "view",
      "type": "function"
    },
    {
      "inputs": [
        {
          "internalType": "uint256",
          "name": "",
          "type": "uint256"
        }
      ],
      "name": "getApproved",
      "outputs": [
        {
          "internalType": "address",
          "name": "",
          "type": "address"
        }
      ],
      "stateMutability": "pure",
      "type": "function"
    },
    {
      "inputs": [
        {
          "internalType": "uint256",
          "name": "batchId",
          "type": "uint256"
        }
      ],
      "name": "getBatch",
      "outputs": [
        {
          "components": [
            {
              "internalType": "uint128",
              "name": "metadataId",
              "type": "uint128"
            },
            {
              "internalType": "uint128",
              "name": "createdAt",
              "type": "uint128"
            },
            {
              "internalType": "address",
              "name": "creator",
              "type": "address"
            },
            {
              "internalType": "uint96",
              "name": "totalTickets",
              "type": "uint96"
            }
          ],
          "internalType": "struct TRY26.Batch",
          "name": "batch",
          "type": "tuple"
        }
      ],
      "stateMutability": "view",
      "type": "function"
    },
    {
      "inputs": [
        {
          "internalType": "uint256",
          "name": "tokenId",
          "type": "uint256"
        }
      ],
      "name": "getFullToken",
      "outputs": [
        {
          "components": [
            {
              "components": [
                {
                  "internalType": "address",
                  "name": "owner",
                  "type": "address"
                },
                {
                  "internalType": "uint256",
                  "name": "batchId",
                  "type": "uint256"
                },
                {
                  "internalType": "bytes32",
                  "name": "ticketId",
                  "type": "bytes32"
                }
              ],
              "internalType": "struct TRY26.Token",
              "name": "token",
              "type": "tuple"
            },
            {
              "components": [
                {
                  "internalType": "uint128",
                  "name": "metadataId",
                  "type": "uint128"
                },
                {
                  "internalType": "uint128",
                  "name": "createdAt",
                  "type": "uint128"
                },
                {
                  "internalType": "address",
                  "name": "creator",
                  "type": "address"
                },
                {
                  "internalType": "uint96",
                  "name": "totalTickets",
                  "type": "uint96"
                }
              ],
              "internalType": "struct TRY26.Batch",
              "name": "batch",
              "type": "tuple"
            }
          ],
          "internalType": "struct TRY26.FullToken",
          "name": "",
          "type": "tuple"
        }
      ],
      "stateMutability": "view",
      "type": "function"
    },
    {
      "inputs": [
        {
          "internalType": "bytes32",
          "name": "reservation",
          "type": "bytes32"
        }
      ],
      "name": "getReservation",
      "outputs": [
        {
          "internalType": "uint256",
          "name": "unlock",
          "type": "uint256"
        }
      ],
      "stateMutability": "view",
      "type": "function"
    },
    {
      "inputs": [
        {
          "internalType": "uint256",
          "name": "tokenId",
          "type": "uint256"
        }
      ],
      "name": "getToken",
      "outputs": [
        {
          "components": [
            {
              "internalType": "address",
              "name": "owner",
              "type": "address"
            },
            {
              "internalType": "uint256",
              "name": "batchId",
              "type": "uint256"
            },
            {
              "internalType": "bytes32",
              "name": "ticketId",
              "type": "bytes32"
            }
          ],
          "internalType": "struct TRY26.Token",
          "name": "",
          "type": "tuple"
        }
      ],
      "stateMutability": "view",
      "type": "function"
    },
    {
      "inputs": [
        {
          "internalType": "address",
          "name": "",
          "type": "address"
        },
        {
          "internalType": "address",
          "name": "",
          "type": "address"
        }
      ],
      "name": "isApprovedForAll",
      "outputs": [
        {
          "internalType": "bool",
          "name": "",
          "type": "bool"
        }
      ],
      "stateMutability": "pure",
      "type": "function"
    },
    {
      "inputs": [
        {
          "internalType": "address",
          "name": "forwarder",
          "type": "address"
        }
      ],
      "name": "isTrustedForwarder",
      "outputs": [
        {
          "internalType": "bool",
          "name": "",
          "type": "bool"
        }
      ],
      "stateMutability": "view",
      "type": "function"
    },
    {
      "inputs": [
        {
          "internalType": "uint128",
          "name": "metadataId",
          "type": "uint128"
        },
        {
          "internalType": "uint256",
          "name": "amount",
          "type": "uint256"
        }
      ],
      "name": "mint",
      "outputs": [],
      "stateMutability": "nonpayable",
      "type": "function"
    },
    {
      "inputs": [],
      "name": "name",
      "outputs": [
        {
          "internalType": "string",
          "name": "",
          "type": "string"
        }
      ],
      "stateMutability": "pure",
      "type": "function"
    },
    {
      "inputs": [],
      "name": "notifyMetadataUpdate",
      "outputs": [],
      "stateMutability": "nonpayable",
      "type": "function"
    },
    {
      "inputs": [],
      "name": "owner",
      "outputs": [
        {
          "internalType": "address",
          "name": "",
          "type": "address"
        }
      ],
      "stateMutability": "view",
      "type": "function"
    },
    {
      "inputs": [
        {
          "internalType": "uint256",
          "name": "tokenId",
          "type": "uint256"
        }
      ],
      "name": "ownerOf",
      "outputs": [
        {
          "internalType": "address",
          "name": "",
          "type": "address"
        }
      ],
      "stateMutability": "view",
      "type": "function"
    },
    {
      "inputs": [
        {
          "internalType": "uint128",
          "name": "metadataId",
          "type": "uint128"
        },
        {
          "internalType": "bytes32[]",
          "name": "tickets",
          "type": "bytes32[]"
        }
      ],
      "name": "preMint",
      "outputs": [],
      "stateMutability": "nonpayable",
      "type": "function"
    },
    {
      "inputs": [],
      "name": "renounceOwnership",
      "outputs": [],
      "stateMutability": "nonpayable",
      "type": "function"
    },
    {
      "inputs": [
        {
          "internalType": "bytes32",
          "name": "reservation",
          "type": "bytes32"
        }
      ],
      "name": "reserve",
      "outputs": [],
      "stateMutability": "nonpayable",
      "type": "function"
    },
    {
      "inputs": [
        {
          "internalType": "address",
          "name": "from",
          "type": "address"
        },
        {
          "internalType": "address",
          "name": "to",
          "type": "address"
        },
        {
          "internalType": "uint256",
          "name": "tokenId",
          "type": "uint256"
        }
      ],
      "name": "safeTransferFrom",
      "outputs": [],
      "stateMutability": "nonpayable",
      "type": "function"
    },
    {
      "inputs": [
        {
          "internalType": "address",
          "name": "from",
          "type": "address"
        },
        {
          "internalType": "address",
          "name": "to",
          "type": "address"
        },
        {
          "internalType": "uint256",
          "name": "tokenId",
          "type": "uint256"
        },
        {
          "internalType": "bytes",
          "name": "",
          "type": "bytes"
        }
      ],
      "name": "safeTransferFrom",
      "outputs": [],
      "stateMutability": "nonpayable",
      "type": "function"
    },
    {
      "inputs": [
        {
          "internalType": "address",
          "name": "",
          "type": "address"
        },
        {
          "internalType": "bool",
          "name": "",
          "type": "bool"
        }
      ],
      "name": "setApprovalForAll",
      "outputs": [],
      "stateMutability": "pure",
      "type": "function"
    },
    {
      "inputs": [
        {
          "internalType": "bytes4",
          "name": "interfaceId",
          "type": "bytes4"
        }
      ],
      "name": "supportsInterface",
      "outputs": [
        {
          "internalType": "bool",
          "name": "",
          "type": "bool"
        }
      ],
      "stateMutability": "view",
      "type": "function"
    },
    {
      "inputs": [],
      "name": "symbol",
      "outputs": [
        {
          "internalType": "string",
          "name": "",
          "type": "string"
        }
      ],
      "stateMutability": "pure",
      "type": "function"
    },
    {
      "inputs": [
        {
          "internalType": "uint256",
          "name": "batchId",
          "type": "uint256"
        },
        {
          "internalType": "uint256",
          "name": "start",
          "type": "uint256"
        },
        {
          "internalType": "uint256",
          "name": "size",
          "type": "uint256"
        }
      ],
      "name": "ticketsByBatch",
      "outputs": [
        {
          "internalType": "bytes32[]",
          "name": "tickets",
          "type": "bytes32[]"
        }
      ],
      "stateMutability": "view",
      "type": "function"
    },
    {
      "inputs": [
        {
          "internalType": "uint256",
          "name": "index",
          "type": "uint256"
        }
      ],
      "name": "tokenByIndex",
      "outputs": [
        {
          "internalType": "uint256",
          "name": "",
          "type": "uint256"
        }
      ],
      "stateMutability": "view",
      "type": "function"
    },
    {
      "inputs": [
        {
          "internalType": "bytes32",
          "name": "ticketId",
          "type": "bytes32"
        }
      ],
      "name": "tokenIdByTicketId",
      "outputs": [
        {
          "internalType": "uint256",
          "name": "tokenId",
          "type": "uint256"
        }
      ],
      "stateMutability": "view",
      "type": "function"
    },
    {
      "inputs": [
        {
          "internalType": "address",
          "name": "target",
          "type": "address"
        },
        {
          "internalType": "uint256",
          "name": "start",
          "type": "uint256"
        },
        {
          "internalType": "uint256",
          "name": "size",
          "type": "uint256"
        }
      ],
      "name": "tokenIdsByOwner",
      "outputs": [
        {
          "internalType": "uint256[]",
          "name": "tokenIds",
          "type": "uint256[]"
        }
      ],
      "stateMutability": "view",
      "type": "function"
    },
    {
      "inputs": [
        {
          "internalType": "address",
          "name": "target",
          "type": "address"
        },
        {
          "internalType": "uint256",
          "name": "index",
          "type": "uint256"
        }
      ],
      "name": "tokenOfOwnerByIndex",
      "outputs": [
        {
          "internalType": "uint256",
          "name": "tokenId",
          "type": "uint256"
        }
      ],
      "stateMutability": "view",
      "type": "function"
    },
    {
      "inputs": [
        {
          "internalType": "uint256",
          "name": "tokenId",
          "type": "uint256"
        }
      ],
      "name": "tokenURI",
      "outputs": [
        {
          "internalType": "string",
          "name": "",
          "type": "string"
        }
      ],
      "stateMutability": "view",
      "type": "function"
    },
    {
      "inputs": [],
      "name": "totalBatches",
      "outputs": [
        {
          "internalType": "uint256",
          "name": "",
          "type": "uint256"
        }
      ],
      "stateMutability": "view",
      "type": "function"
    },
    {
      "inputs": [],
      "name": "totalSupply",
      "outputs": [
        {
          "internalType": "uint256",
          "name": "",
          "type": "uint256"
        }
      ],
      "stateMutability": "view",
      "type": "function"
    },
    {
      "inputs": [],
      "name": "totalTickets",
      "outputs": [
        {
          "internalType": "uint256",
          "name": "",
          "type": "uint256"
        }
      ],
      "stateMutability": "view",
      "type": "function"
    },
    {
      "inputs": [
        {
          "internalType": "address",
          "name": "from",
          "type": "address"
        },
        {
          "internalType": "address",
          "name": "to",
          "type": "address"
        },
        {
          "internalType": "uint256",
          "name": "tokenId",
          "type": "uint256"
        }
      ],
      "name": "transferFrom",
      "outputs": [],
      "stateMutability": "nonpayable",
      "type": "function"
    },
    {
      "inputs": [
        {
          "internalType": "address",
          "name": "newOwner",
          "type": "address"
        }
      ],
      "name": "transferOwnership",
      "outputs": [],
      "stateMutability": "nonpayable",
      "type": "function"
    }
  ],
  "bytecode": "0x610180604052348015610010575f80fd5b5073d8253782c45a12053594b9deb72d8e8ab2fca54c336040518060400160405280600f81526020016e5477656e747953697820436c61696d60881b815250604051806040016040528060018152602001603160f81b81525061007c5f8361016a60201b90919060201c565b6101205261008b81600161016a565b61014052815160208084019190912060e052815190820120610100524660a05261011760e05161010051604080517f8b73c3c69bb8fe3d512ecc4cf759cc79239f7b179b0ffacaa9a75d522b39400f60208201529081019290925260608201524660808201523060a08201525f9060c00160405160208183030381529060405280519060200120905090565b60805250503060c0526001600160a01b03811661014e57604051631e4fbdf760e01b81525f60048201526024015b60405180910390fd5b6101578161019c565b506001600160a01b0316610160526103d4565b5f6020835110156101855761017e836101ed565b9050610196565b8161019084826102c2565b5060ff90505b92915050565b600280546001600160a01b038381166001600160a01b0319831681179093556040519116919082907f8be0079c531659141344cd1fd0a4f28419497f9722a3daafe3b4186f6b6457e0905f90a35050565b5f80829050601f81511115610217578260405163305a27a960e01b8152600401610145919061037c565b8051610222826103b1565b179392505050565b634e487b7160e01b5f52604160045260245ffd5b600181811c9082168061025257607f821691505b60208210810361027057634e487b7160e01b5f52602260045260245ffd5b50919050565b601f8211156102bd57805f5260205f20601f840160051c8101602085101561029b5750805b601f840160051c820191505b818110156102ba575f81556001016102a7565b50505b505050565b81516001600160401b038111156102db576102db61022a565b6102ef816102e9845461023e565b84610276565b6020601f821160018114610321575f831561030a5750848201515b5f19600385901b1c1916600184901b1784556102ba565b5f84815260208120601f198516915b828110156103505787850151825560209485019460019092019101610330565b508482101561036d57868401515f19600387901b60f8161c191681555b50505050600190811b01905550565b602081525f82518060208401528060208501604085015e5f604082850101526040601f19601f83011684010191505092915050565b80516020808301519190811015610270575f1960209190910360031b1b16919050565b60805160a05160c05160e051610100516101205161014051610160516127fd6104365f395f81816103ef01526116a701525f611a3901525f611a0d01525f611f1901525f611ef101525f611e4c01525f611e7601525f611ea001526127fd5ff3fe608060405234801561000f575f80fd5b5060043610610269575f3560e01c806367ac8c0a11610157578063af97e423116100d2578063e8a3d48511610088578063ec68555f1161006e578063ec68555f1461061e578063f2fde38b1461063d578063f4b2858c14610650575f80fd5b8063e8a3d48514610608578063e985e9c514610610575f80fd5b8063c87b56dd116100b8578063c87b56dd1461057e578063dd11247e14610591578063e4b50cb81461059a575f80fd5b8063af97e42314610563578063b88d4fde1461056b575f80fd5b8063715018a6116101275780638da5cb5b1161010d5780638da5cb5b1461050b57806395d89b411461051c578063a22cb46514610555575f80fd5b8063715018a6146104e857806384b0196e146104f0575f80fd5b806367ac8c0a146104a657806369ff6abb146104b957806370a08231146104c2578063713df1db146104d5575f80fd5b806342842e0e116101e7578063572b6c05116101b75780635da540851161019d5780635da540851461043f5780635e3e82b01461045e5780636352211e1461047e575f80fd5b8063572b6c05146103df5780635ac442821461041f575f80fd5b806342842e0e1461039357806342966c68146103a6578063432ced04146103b95780634f6ccce7146103cc575f80fd5b8063095ea7b31161023c57806318160ddd1161022257806318160ddd1461035757806323b872dd1461036d5780632f745c5914610380575f80fd5b8063095ea7b31461032257806309fda94b14610337575f80fd5b806301ffc9a71461026d57806303cbd8881461029557806306fdde03146102b5578063081812fc146102f7575b5f80fd5b61028061027b366004611fe6565b610663565b60405190151581526020015b60405180910390f35b6102a86102a336600461200d565b610746565b60405161028c9190612024565b60408051808201909152600f81527f5477656e747953697820436c61696d000000000000000000000000000000000060208201525b60405161028c91906120d5565b61030a61030536600461200d565b61083f565b6040516001600160a01b03909116815260200161028c565b610335610330366004612102565b610859565b005b61034a61034536600461212a565b610872565b60405161028c9190612194565b61035f6108d2565b60405190815260200161028c565b61033561037b3660046121a6565b6108e8565b61035f61038e366004612102565b610a6a565b6103356103a13660046121a6565b610abb565b6103356103b436600461200d565b610acb565b6103356103c736600461200d565b610ba3565b61035f6103da36600461200d565b610c60565b6102806103ed3660046121e0565b7f00000000000000000000000000000000000000000000000000000000000000006001600160a01b0390811691161490565b61043261042d36600461200d565b610c88565b60405161028c91906121f9565b61035f61044d36600461200d565b5f908152600a602052604090205490565b61047161046c366004612251565b610d3a565b60405161028c919061227a565b61030a61048c36600461200d565b5f908152600b60205260409020546001600160a01b031690565b6103356104b436600461234d565b610da9565b61035f60035481565b61035f6104d03660046121e0565b610f91565b6103356104e33660046123e6565b610fb1565b6103356111c9565b6104f86111dc565b60405161028c9796959493929190612400565b6002546001600160a01b031661030a565b60408051808201909152600581527f545259323600000000000000000000000000000000000000000000000000000060208201526102ea565b610335610330366004612489565b61033561123a565b6103356105793660046124c2565b61127e565b6102ea61058c36600461200d565b61128f565b61035f60045481565b6105fb6105a836600461200d565b60408051606080820183525f8083526020808401829052928401819052938452600b8252928290208251938401835280546001600160a01b03168452600181015491840191909152600201549082015290565b60405161028c9190612580565b6102ea61131e565b6102806103053660046125aa565b61035f61062c36600461200d565b5f9081526007602052604090205490565b61033561064b3660046121e0565b61137a565b61033561065e3660046125db565b6113d0565b5f6001600160e01b031982167f80ac58cd0000000000000000000000000000000000000000000000000000000014806106c557506001600160e01b031982167f5b5e139f00000000000000000000000000000000000000000000000000000000145b806106f957506001600160e01b031982167f780e9d6300000000000000000000000000000000000000000000000000000000145b8061070c57506001600160e01b03198216155b8061074057507f01ffc9a7000000000000000000000000000000000000000000000000000000006001600160e01b03198316145b92915050565b6107956040805160a0810182525f9181018281526060820183905260808201929092529081908152604080516080810182525f8082526020828101829052928201819052606082015291015290565b505f908152600b6020908152604080832081516060808201845282546001600160a01b039081168352600180850154848801819052600290950154848701529387526005865295849020845160808101865281546001600160801b038082168352600160801b909104168188015293015495861683850152600160a01b9095046bffffffffffffffffffffffff169482019490945281518083019092529281529081019190915290565b5f6040516341f8b8eb60e11b815260040160405180910390fd5b6040516341f8b8eb60e11b815260040160405180910390fd5b6001600160a01b0383165f908152600c602052604090206060906108958161156b565b61089f8486612670565b11156108be57604051634e23d03560e01b815260040160405180910390fd5b6108c9818585611574565b95945050505050565b5f6009546008546108e39190612683565b905090565b6108f0611605565b6001600160a01b038216610937576040517f64a0ae920000000000000000000000000000000000000000000000000000000081525f60048201526024015b60405180910390fd5b5f818152600b6020526040902080546001600160a01b031680610970576040516306caeb1360e41b81526004810184905260240161092e565b846001600160a01b0316816001600160a01b0316146109d5576040517f64283d7b0000000000000000000000000000000000000000000000000000000081526001600160a01b038087166004830152602482018590528216604482015260640161092e565b6001600160a01b0385165f908152600c602052604090206109f6908461167c565b506001600160a01b0384165f908152600c60205260409020610a18908461168e565b5081546001600160a01b0319166001600160a01b0385811691821784556040518592918816907fddf252ad1be2c89b69c2b068fc378daa952ba7f163c4a11628f55a4df523b3ef905f90a45050505050565b6001600160a01b0382165f908152600c60205260408120610a8a8161156b565b8310610aa957604051634e23d03560e01b815260040160405180910390fd5b610ab38184611699565b949350505050565b610ac68383836108e8565b505050565b610ad3611605565b5f818152600b60205260409020546001600160a01b031680610b0b576040516306caeb1360e41b81526004810183905260240161092e565b6001600160a01b0381165f908152600c60205260409020610b2c908361167c565b505f828152600b6020526040812080546001600160a01b0319168155600181018290556002018190556009805491610b6383612696565b909155505060405182905f906001600160a01b038416907fddf252ad1be2c89b69c2b068fc378daa952ba7f163c4a11628f55a4df523b3ef908390a45050565b5f8181526007602052604090205415610beb576040517fe26b6c3a0000000000000000000000000000000000000000000000000000000081526004810182905260240161092e565b5f610bf7603c42612670565b5f8381526007602052604090208190559050610c116116a4565b6001600160a01b03167fc2e6e791274f4ca6517553570472956264bb5d03c9b67ea9b0ccd1e3aed81c418383604051610c54929190918252602082015260400190565b60405180910390a25050565b5f600854821115610c8457604051634e23d03560e01b815260040160405180910390fd5b5090565b604080516080810182525f808252602082018190529181018290526060810191909152600354821115610cce57604051634e23d03560e01b815260040160405180910390fd5b505f90815260056020908152604091829020825160808101845281546001600160801b038082168352600160801b9091041692810192909252600101546001600160a01b03811692820192909252600160a01b9091046bffffffffffffffffffffffff16606082015290565b6060600354841115610d5f57604051634e23d03560e01b815260040160405180910390fd5b5f848152600660205260409020610d758161156b565b610d7f8486612670565b1115610d9e57604051634e23d03560e01b815260040160405180910390fd5b6108c98185856116e7565b5f610db26116a4565b90505f8183602001518460400151604051602001610df79392919060609390931b6bffffffffffffffffffffffff191683526014830191909152603482015260540190565b60408051601f1981840301815291815281516020928301205f8181526007909352912054909150801580610e2a57508042105b15610e64576040517f4f31f9ad0000000000000000000000000000000000000000000000000000000081526004810183905260240161092e565b5f610e6e8561176b565b90505f60085f8154610e7f90612696565b91829055505f838152600a6020908152604080832084905580516060810182526001600160a01b038a81168083528c518386019081528385018a8152888852600b8752858820945185546001600160a01b031916941693909317845551600184015590516002909201919091558352600c9091529020909150610f02908261168e565b5060405181906001600160a01b038716905f907fddf252ad1be2c89b69c2b068fc378daa952ba7f163c4a11628f55a4df523b3ef908290a485515f908152600560205260408082205490516001600160801b039091169183916001600160a01b038916917fa049a7b0db25fd4a447d4a72385802f52641ca5797b84688137edbe240b2a57f91a4505050505050565b6001600160a01b0381165f908152600c602052604081206107409061156b565b610fb9611605565b5f60035f8154610fc890612696565b918290555090505f610fd86116a4565b604080516080810182526001600160801b0380881680835242821660208085019182526001600160a01b038088168688018181525f606089018181528d82526005909552899020975194518716600160801b0294909616939093178655935190516bffffffffffffffffffffffff16600160a01b029316929092176001909301929092559151929350909184907f106570966e3bf3e75591faf8fb560d3a85ac3f086484e68b289f29d2ce0434dd906110949088815260200190565b60405180910390a45f60085460016110ac9190612670565b90505f6110b98583612670565b90505b808210156111b357604080516060810182526001600160a01b0385811680835260208084018981525f858701818152898252600b8452878220965187546001600160a01b03191696169590951786559051600186015592516002909401939093558152600c9091522061112f908361168e565b5060405182906001600160a01b038516905f907fddf252ad1be2c89b69c2b068fc378daa952ba7f163c4a11628f55a4df523b3ef908290a4856001600160801b031682846001600160a01b03167fa049a7b0db25fd4a447d4a72385802f52641ca5797b84688137edbe240b2a57f60405160405180910390a46001909101906110bc565b6111be600182612683565b600855505050505050565b6111d1611605565b6111da5f6119b5565b565b5f6060805f805f60606111ed611a06565b6111f5611a32565b604080515f808252602082019092527f0f000000000000000000000000000000000000000000000000000000000000009b939a50919850469750309650945092509050565b611242611605565b60408051600181525f1960208201527f6bd5c950a8d8df17f772f5af37cb3655737899cbf903264b9795592da439661c910160405180910390a1565b6112898484846108e8565b50505050565b604080518082018252601d81527f68747470733a2f2f636c61696d2e7477656e74797369782e636c6f75640000006020808301919091525f848152600b825283812060010154815260059091529190912054606091906112f7906001600160801b0316611a5f565b6040516020016113089291906126c5565b6040516020818303038152906040529050919050565b60606040518060400160405280601d81526020017f68747470733a2f2f636c61696d2e7477656e74797369782e636c6f7564000000815250604051602001611366919061272f565b604051602081830303815290604052905090565b611382611605565b6001600160a01b0381166113c4576040517f1e4fbdf70000000000000000000000000000000000000000000000000000000081525f600482015260240161092e565b6113cd816119b5565b50565b6113d8611605565b5f819003611412576040517f33b094a100000000000000000000000000000000000000000000000000000000815260040160405180910390fd5b5f60035f815461142190612696565b918290555090505f6114316116a4565b604080516080810182526001600160801b03808916825242811660208084019182526001600160a01b038087168587019081526bffffffffffffffffffffffff808c16606088019081525f8c815260058652898120985196518816600160801b02969097169590951787559051935116600160a01b0292169190911760019093019290925560069091529081209192505b848110156114fe576114f58686838181106114df576114df612767565b905060200201358361168e90919063ffffffff16565b506001016114c2565b508484905060045f8282546115139190612670565b90915550506040518481526001600160a01b038316906001600160801b0388169085907f62762ba4f5eb4ef63099da4c103ae0d598c5c26fea38794d619918586c956bf29060200160405180910390a4505050505050565b5f610740825490565b60608167ffffffffffffffff81111561158f5761158f6122bc565b6040519080825280602002602001820160405280156115b8578160200160208202803683370190505b5090505f5b828110156115fd576115d8856115d38387612670565b611699565b8282815181106115ea576115ea612767565b60209081029190910101526001016115bd565b509392505050565b61160d6116a4565b6001600160a01b03166116286002546001600160a01b031690565b6001600160a01b0316146111da5761163e6116a4565b6040517f118cdaa70000000000000000000000000000000000000000000000000000000081526001600160a01b03909116600482015260240161092e565b5f6116878383611afc565b9392505050565b5f6116878383611be6565b5f6116878383611c32565b5f7f00000000000000000000000000000000000000000000000000000000000000006001600160a01b031633036116e2575060131936013560601c90565b503390565b60608167ffffffffffffffff811115611702576117026122bc565b60405190808252806020026020018201604052801561172b578160200160208202803683370190505b5090505f5b828110156115fd57611746856115d38387612670565b82828151811061175857611758612767565b6020908102919091010152600101611730565b5f81602001518260400151604051602001611790929190918252602082015260400190565b60408051601f19818403018152918152815160209283012084515f908152600690935291209091506117c29082611c58565b6118055781516040517fab96bbb100000000000000000000000000000000000000000000000000000000815260048101919091526024810182905260440161092e565b5f818152600a6020526040902054156118575781516040517f57b3f52000000000000000000000000000000000000000000000000000000000815260048101919091526024810182905260440161092e565b81515f90815260056020908152604080832060019081015486518488015184517fe65ce3b6d50c03d1ec4e511c0f90322a7788603f2e664b7dbf436b92bc2d6d4b968101969096526001600160a01b03909216938501849052606085015260808401529092916118df9060a00160405160208183030381529060405280519060200120611c6f565b6060860151805160208083015160409384015184515f815290920193849052611924949390919093845260ff9290921660208401526040830152606082015260800190565b6020604051602081039080840390855afa158015611944573d5f803e3d5ffd5b505050602060405103519050816001600160a01b0316816001600160a01b0316146119ae576040517f7ba5ffb50000000000000000000000000000000000000000000000000000000081526001600160a01b0380841660048301528216602482015260440161092e565b5050919050565b600280546001600160a01b038381166001600160a01b0319831681179093556040519116919082907f8be0079c531659141344cd1fd0a4f28419497f9722a3daafe3b4186f6b6457e0905f90a35050565b60606108e37f00000000000000000000000000000000000000000000000000000000000000005f611cb6565b60606108e37f00000000000000000000000000000000000000000000000000000000000000006001611cb6565b60605f611a6b83611d5f565b60010190505f8167ffffffffffffffff811115611a8a57611a8a6122bc565b6040519080825280601f01601f191660200182016040528015611ab4576020820181803683370190505b5090508181016020015b5f19017f3031323334353637383961626364656600000000000000000000000000000000600a86061a8153600a8504945084611abe57509392505050565b5f8181526001830160205260408120548015611bd6575f611b1e600183612683565b85549091505f90611b3190600190612683565b9050818114611b90575f865f018281548110611b4f57611b4f612767565b905f5260205f200154905080875f018481548110611b6f57611b6f612767565b5f918252602080832090910192909255918252600188019052604090208390555b8554869080611ba157611ba161277b565b600190038181905f5260205f20015f90559055856001015f8681526020019081526020015f205f905560019350505050610740565b5f915050610740565b5092915050565b5f818152600183016020526040812054611c2b57508154600181810184555f848152602080822090930184905584548482528286019093526040902091909155610740565b505f610740565b5f825f018281548110611c4757611c47612767565b905f5260205f200154905092915050565b5f8181526001830160205260408120541515611687565b5f610740611c7b611e40565b836040517f19010000000000000000000000000000000000000000000000000000000000008152600281019290925260228201526042902090565b606060ff8314611cd057611cc983611f69565b9050610740565b818054611cdc9061278f565b80601f0160208091040260200160405190810160405280929190818152602001828054611d089061278f565b8015611d535780601f10611d2a57610100808354040283529160200191611d53565b820191905f5260205f20905b815481529060010190602001808311611d3657829003601f168201915b50505050509050610740565b5f807a184f03e93ff9f4daa797ed6e38ed64bf6a1f0100000000000000008310611da7577a184f03e93ff9f4daa797ed6e38ed64bf6a1f010000000000000000830492506040015b6d04ee2d6d415b85acef81000000008310611dd3576d04ee2d6d415b85acef8100000000830492506020015b662386f26fc100008310611df157662386f26fc10000830492506010015b6305f5e1008310611e09576305f5e100830492506008015b6127108310611e1d57612710830492506004015b60648310611e2f576064830492506002015b600a83106107405760010192915050565b5f306001600160a01b037f000000000000000000000000000000000000000000000000000000000000000016148015611e9857507f000000000000000000000000000000000000000000000000000000000000000046145b15611ec257507f000000000000000000000000000000000000000000000000000000000000000090565b6108e3604080517f8b73c3c69bb8fe3d512ecc4cf759cc79239f7b179b0ffacaa9a75d522b39400f60208201527f0000000000000000000000000000000000000000000000000000000000000000918101919091527f000000000000000000000000000000000000000000000000000000000000000060608201524660808201523060a08201525f9060c00160405160208183030381529060405280519060200120905090565b60605f611f7583611fa6565b6040805160208082528183019092529192505f91906020820181803683375050509182525060208101929092525090565b5f60ff8216601f811115610740576040517fb3512b0c00000000000000000000000000000000000000000000000000000000815260040160405180910390fd5b5f60208284031215611ff6575f80fd5b81356001600160e01b031981168114611687575f80fd5b5f6020828403121561201d575f80fd5b5035919050565b815180516001600160a01b03168252602080820151908301526040908101519082015260e081016020830151611bdf60608401826001600160801b0381511682526001600160801b0360208201511660208301526001600160a01b0360408201511660408301526bffffffffffffffffffffffff60608201511660608301525050565b5f81518084528060208401602086015e5f602082860101526020601f19601f83011685010191505092915050565b602081525f61168760208301846120a7565b80356001600160a01b03811681146120fd575f80fd5b919050565b5f8060408385031215612113575f80fd5b61211c836120e7565b946020939093013593505050565b5f805f6060848603121561213c575f80fd5b612145846120e7565b95602085013595506040909401359392505050565b5f8151808452602084019350602083015f5b8281101561218a57815186526020958601959091019060010161216c565b5093949350505050565b602081525f611687602083018461215a565b5f805f606084860312156121b8575f80fd5b6121c1846120e7565b92506121cf602085016120e7565b929592945050506040919091013590565b5f602082840312156121f0575f80fd5b611687826120e7565b6080810161074082846001600160801b0381511682526001600160801b0360208201511660208301526001600160a01b0360408201511660408301526bffffffffffffffffffffffff60608201511660608301525050565b5f805f60608486031215612263575f80fd5b505081359360208301359350604090920135919050565b602080825282518282018190525f918401906040840190835b818110156122b1578351835260209384019390920191600101612293565b509095945050505050565b634e487b7160e01b5f52604160045260245ffd5b6040516080810167ffffffffffffffff811182821017156122f3576122f36122bc565b60405290565b6040516060810167ffffffffffffffff811182821017156122f3576122f36122bc565b604051601f8201601f1916810167ffffffffffffffff81118282101715612345576123456122bc565b604052919050565b5f81830360c08112801561235f575f80fd5b506123686122d0565b8335815260208085013590820152604080850135908201526060605f1983011215612391575f80fd5b6123996122f9565b9150606084013560ff811681146123ae575f80fd5b82526080840135602083015260a0909301356040820152606083015250919050565b80356001600160801b03811681146120fd575f80fd5b5f80604083850312156123f7575f80fd5b61211c836123d0565b7fff000000000000000000000000000000000000000000000000000000000000008816815260e060208201525f61243a60e08301896120a7565b828103604084015261244c81896120a7565b90508660608401526001600160a01b03861660808401528460a084015282810360c084015261247b818561215a565b9a9950505050505050505050565b5f806040838503121561249a575f80fd5b6124a3836120e7565b9150602083013580151581146124b7575f80fd5b809150509250929050565b5f805f80608085870312156124d5575f80fd5b6124de856120e7565b93506124ec602086016120e7565b925060408501359150606085013567ffffffffffffffff81111561250e575f80fd5b8501601f8101871361251e575f80fd5b803567ffffffffffffffff811115612538576125386122bc565b61254b601f8201601f191660200161231c565b81815288602083850101111561255f575f80fd5b816020840160208301375f6020838301015280935050505092959194509250565b81516001600160a01b03168152602080830151908201526040808301519082015260608101610740565b5f80604083850312156125bb575f80fd5b6125c4836120e7565b91506125d2602084016120e7565b90509250929050565b5f805f604084860312156125ed575f80fd5b6125f6846123d0565b9250602084013567ffffffffffffffff811115612611575f80fd5b8401601f81018613612621575f80fd5b803567ffffffffffffffff811115612637575f80fd5b8660208260051b840101111561264b575f80fd5b939660209190910195509293505050565b634e487b7160e01b5f52601160045260245ffd5b808201808211156107405761074061265c565b818103818111156107405761074061265c565b5f600182016126a7576126a761265c565b5060010190565b5f81518060208401855e5f93019283525090919050565b5f6126d082856126ae565b7f2f7362742f6d657461646174612f0000000000000000000000000000000000008152612700600e8201856126ae565b7f2e6a736f6e000000000000000000000000000000000000000000000000000000815260050195945050505050565b5f61273a82846126ae565b7f2f7362742f636f6e74726163745552492e6a736f6e000000000000000000000081526015019392505050565b634e487b7160e01b5f52603260045260245ffd5b634e487b7160e01b5f52603160045260245ffd5b600181811c908216806127a357607f821691505b6020821081036127c157634e487b7160e01b5f52602260045260245ffd5b5091905056fea26469706673582212201ca11449f36e26a038aea623b611e5e96197273c3f352f0f826497f8b626db8d64736f6c634300081a0033",
  "linkReferences": {},
  "deployedLinkReferences": {}
}