{
  "_format": "hh-sol-artifact-1",
  "contractName": "TRY26",
  "sourceName": "contracts/TRY26.sol",
  "abi": [
    {
      "inputs": [],
      "stateMutability": "nonpayable",
      "type": "constructor"
    },
    {
      "inputs": [
        {
          "internalType": "address",
          "name": "from",
          "type": "address"
        },
        {
          "internalType": "uint256",
          "name": "tokenId",
          "type": "uint256"
        },
        {
          "internalType": "address",
          "name": "previousOwner",
          "type": "address"
        }
      ],
      "name": "ERC721IncorrectOwner",
      "type": "error"
    },
    {
      "inputs": [
        {
          "internalType": "address",
          "name": "receiver",
          "type": "address"
        }
      ],
      "name": "ERC721InvalidReceiver",
      "type": "error"
    },
    {
      "inputs": [],
      "name": "IndexOutOfBounds",
      "type": "error"
    },
    {
      "inputs": [],
      "name": "InvalidBatch",
      "type": "error"
    },
    {
      "inputs": [],
      "name": "InvalidShortString",
      "type": "error"
    },
    {
      "inputs": [
        {
          "internalType": "address",
          "name": "creator",
          "type": "address"
        },
        {
          "internalType": "address",
          "name": "signer",
          "type": "address"
        }
      ],
      "name": "InvalidSigner",
      "type": "error"
    },
    {
      "inputs": [],
      "name": "MethodNotAllowed",
      "type": "error"
    },
    {
      "inputs": [
        {
          "internalType": "address",
          "name": "owner",
          "type": "address"
        }
      ],
      "name": "OwnableInvalidOwner",
      "type": "error"
    },
    {
      "inputs": [
        {
          "internalType": "address",
          "name": "account",
          "type": "address"
        }
      ],
      "name": "OwnableUnauthorizedAccount",
      "type": "error"
    },
    {
      "inputs": [
        {
          "internalType": "bytes32",
          "name": "reservation",
          "type": "bytes32"
        }
      ],
      "name": "ReservationNotChanged",
      "type": "error"
    },
    {
      "inputs": [
        {
          "internalType": "bytes32",
          "name": "reservation",
          "type": "bytes32"
        }
      ],
      "name": "ReservationNotFound",
      "type": "error"
    },
    {
      "inputs": [
        {
          "internalType": "string",
          "name": "str",
          "type": "string"
        }
      ],
      "name": "StringTooLong",
      "type": "error"
    },
    {
      "inputs": [
        {
          "internalType": "uint256",
          "name": "batchId",
          "type": "uint256"
        },
        {
          "internalType": "bytes32",
          "name": "ticketId",
          "type": "bytes32"
        }
      ],
      "name": "TicketAlreadyClaimed",
      "type": "error"
    },
    {
      "inputs": [
        {
          "internalType": "uint256",
          "name": "batchId",
          "type": "uint256"
        },
        {
          "internalType": "bytes32",
          "name": "ticketId",
          "type": "bytes32"
        }
      ],
      "name": "TicketNotFound",
      "type": "error"
    },
    {
      "inputs": [
        {
          "internalType": "uint256",
          "name": "tokenId",
          "type": "uint256"
        }
      ],
      "name": "TokenNotFound",
      "type": "error"
    },
    {
      "anonymous": false,
      "inputs": [
        {
          "indexed": true,
          "internalType": "address",
          "name": "owner",
          "type": "address"
        },
        {
          "indexed": true,
          "internalType": "address",
          "name": "approved",
          "type": "address"
        },
        {
          "indexed": true,
          "internalType": "uint256",
          "name": "tokenId",
          "type": "uint256"
        }
      ],
      "name": "Approval",
      "type": "event"
    },
    {
      "anonymous": false,
      "inputs": [
        {
          "indexed": true,
          "internalType": "address",
          "name": "owner",
          "type": "address"
        },
        {
          "indexed": true,
          "internalType": "address",
          "name": "operator",
          "type": "address"
        },
        {
          "indexed": false,
          "internalType": "bool",
          "name": "approved",
          "type": "bool"
        }
      ],
      "name": "ApprovalForAll",
      "type": "event"
    },
    {
      "anonymous": false,
      "inputs": [
        {
          "indexed": false,
          "internalType": "uint256",
          "name": "_fromTokenId",
          "type": "uint256"
        },
        {
          "indexed": false,
          "internalType": "uint256",
          "name": "_toTokenId",
          "type": "uint256"
        }
      ],
      "name": "BatchMetadataUpdate",
      "type": "event"
    },
    {
      "anonymous": false,
      "inputs": [
        {
          "indexed": true,
          "internalType": "uint256",
          "name": "batchId",
          "type": "uint256"
        },
        {
          "indexed": true,
          "internalType": "uint128",
          "name": "metadataId",
          "type": "uint128"
        },
        {
          "indexed": true,
          "internalType": "address",
          "name": "creator",
          "type": "address"
        },
        {
          "indexed": false,
          "internalType": "uint256",
          "name": "amount",
          "type": "uint256"
        }
      ],
      "name": "BatchMint",
      "type": "event"
    },
    {
      "anonymous": false,
      "inputs": [
        {
          "indexed": true,
          "internalType": "uint256",
          "name": "batchId",
          "type": "uint256"
        },
        {
          "indexed": true,
          "internalType": "uint128",
          "name": "metadataId",
          "type": "uint128"
        },
        {
          "indexed": true,
          "internalType": "address",
          "name": "creator",
          "type": "address"
        },
        {
          "indexed": false,
          "internalType": "uint256",
          "name": "nbTickets",
          "type": "uint256"
        }
      ],
      "name": "BatchPreMint",
      "type": "event"
    },
    {
      "anonymous": false,
      "inputs": [],
      "name": "EIP712DomainChanged",
      "type": "event"
    },
    {
      "anonymous": false,
      "inputs": [
        {
          "indexed": false,
          "internalType": "uint256",
          "name": "_tokenId",
          "type": "uint256"
        }
      ],
      "name": "MetadataUpdate",
      "type": "event"
    },
    {
      "anonymous": false,
      "inputs": [
        {
          "indexed": true,
          "internalType": "address",
          "name": "claimer",
          "type": "address"
        },
        {
          "indexed": true,
          "internalType": "uint256",
          "name": "tokenId",
          "type": "uint256"
        },
        {
          "indexed": true,
          "internalType": "uint128",
          "name": "metadataId",
          "type": "uint128"
        }
      ],
      "name": "Mint",
      "type": "event"
    },
    {
      "anonymous": false,
      "inputs": [
        {
          "indexed": true,
          "internalType": "address",
          "name": "previousOwner",
          "type": "address"
        },
        {
          "indexed": true,
          "internalType": "address",
          "name": "newOwner",
          "type": "address"
        }
      ],
      "name": "OwnershipTransferred",
      "type": "event"
    },
    {
      "anonymous": false,
      "inputs": [
        {
          "indexed": true,
          "internalType": "address",
          "name": "owner",
          "type": "address"
        },
        {
          "indexed": false,
          "internalType": "bytes32",
          "name": "reservation",
          "type": "bytes32"
        },
        {
          "indexed": false,
          "internalType": "uint256",
          "name": "unlock",
          "type": "uint256"
        }
      ],
      "name": "TicketReserved",
      "type": "event"
    },
    {
      "anonymous": false,
      "inputs": [
        {
          "indexed": true,
          "internalType": "address",
          "name": "from",
          "type": "address"
        },
        {
          "indexed": true,
          "internalType": "address",
          "name": "to",
          "type": "address"
        },
        {
          "indexed": true,
          "internalType": "uint256",
          "name": "tokenId",
          "type": "uint256"
        }
      ],
      "name": "Transfer",
      "type": "event"
    },
    {
      "inputs": [
        {
          "internalType": "address",
          "name": "",
          "type": "address"
        },
        {
          "internalType": "uint256",
          "name": "",
          "type": "uint256"
        }
      ],
      "name": "approve",
      "outputs": [],
      "stateMutability": "pure",
      "type": "function"
    },
    {
      "inputs": [
        {
          "internalType": "address",
          "name": "target",
          "type": "address"
        }
      ],
      "name": "balanceOf",
      "outputs": [
        {
          "internalType": "uint256",
          "name": "",
          "type": "uint256"
        }
      ],
      "stateMutability": "view",
      "type": "function"
    },
    {
      "inputs": [
        {
          "internalType": "uint256",
          "name": "tokenId",
          "type": "uint256"
        }
      ],
      "name": "burn",
      "outputs": [],
      "stateMutability": "nonpayable",
      "type": "function"
    },
    {
      "inputs": [
        {
          "components": [
            {
              "internalType": "uint256",
              "name": "batchId",
              "type": "uint256"
            },
            {
              "internalType": "bytes32",
              "name": "batchSecret",
              "type": "bytes32"
            },
            {
              "internalType": "bytes32",
              "name": "ticketSecret",
              "type": "bytes32"
            },
            {
              "components": [
                {
                  "internalType": "uint8",
                  "name": "v",
                  "type": "uint8"
                },
                {
                  "internalType": "bytes32",
                  "name": "r",
                  "type": "bytes32"
                },
                {
                  "internalType": "bytes32",
                  "name": "s",
                  "type": "bytes32"
                }
              ],
              "internalType": "struct TRY26.Signature",
              "name": "signature",
              "type": "tuple"
            }
          ],
          "internalType": "struct TRY26.Ticket",
          "name": "ticket",
          "type": "tuple"
        }
      ],
      "name": "claim",
      "outputs": [],
      "stateMutability": "nonpayable",
      "type": "function"
    },
    {
      "inputs": [
        {
          "internalType": "address",
          "name": "claimer",
          "type": "address"
        },
        {
          "internalType": "uint256",
          "name": "batchId",
          "type": "uint256"
        },
        {
          "internalType": "bytes32",
          "name": "ticketId",
          "type": "bytes32"
        }
      ],
      "name": "claimFor",
      "outputs": [],
      "stateMutability": "nonpayable",
      "type": "function"
    },
    {
      "inputs": [],
      "name": "contractURI",
      "outputs": [
        {
          "internalType": "string",
          "name": "",
          "type": "string"
        }
      ],
      "stateMutability": "pure",
      "type": "function"
    },
    {
      "inputs": [],
      "name": "eip712Domain",
      "outputs": [
        {
          "internalType": "bytes1",
          "name": "fields",
          "type": "bytes1"
        },
        {
          "internalType": "string",
          "name": "name",
          "type": "string"
        },
        {
          "internalType": "string",
          "name": "version",
          "type": "string"
        },
        {
          "internalType": "uint256",
          "name": "chainId",
          "type": "uint256"
        },
        {
          "internalType": "address",
          "name": "verifyingContract",
          "type": "address"
        },
        {
          "internalType": "bytes32",
          "name": "salt",
          "type": "bytes32"
        },
        {
          "internalType": "uint256[]",
          "name": "extensions",
          "type": "uint256[]"
        }
      ],
      "stateMutability": "view",
      "type": "function"
    },
    {
      "inputs": [
        {
          "internalType": "uint256",
          "name": "",
          "type": "uint256"
        }
      ],
      "name": "getApproved",
      "outputs": [
        {
          "internalType": "address",
          "name": "",
          "type": "address"
        }
      ],
      "stateMutability": "pure",
      "type": "function"
    },
    {
      "inputs": [
        {
          "internalType": "uint256",
          "name": "batchId",
          "type": "uint256"
        }
      ],
      "name": "getBatch",
      "outputs": [
        {
          "components": [
            {
              "internalType": "uint128",
              "name": "metadataId",
              "type": "uint128"
            },
            {
              "internalType": "uint128",
              "name": "createdAt",
              "type": "uint128"
            },
            {
              "internalType": "address",
              "name": "creator",
              "type": "address"
            },
            {
              "internalType": "uint96",
              "name": "totalTickets",
              "type": "uint96"
            }
          ],
          "internalType": "struct TRY26.Batch",
          "name": "batch",
          "type": "tuple"
        }
      ],
      "stateMutability": "view",
      "type": "function"
    },
    {
      "inputs": [
        {
          "internalType": "uint256",
          "name": "tokenId",
          "type": "uint256"
        }
      ],
      "name": "getFullToken",
      "outputs": [
        {
          "components": [
            {
              "components": [
                {
                  "internalType": "address",
                  "name": "owner",
                  "type": "address"
                },
                {
                  "internalType": "uint256",
                  "name": "batchId",
                  "type": "uint256"
                },
                {
                  "internalType": "bytes32",
                  "name": "ticketId",
                  "type": "bytes32"
                }
              ],
              "internalType": "struct TRY26.Token",
              "name": "token",
              "type": "tuple"
            },
            {
              "components": [
                {
                  "internalType": "uint128",
                  "name": "metadataId",
                  "type": "uint128"
                },
                {
                  "internalType": "uint128",
                  "name": "createdAt",
                  "type": "uint128"
                },
                {
                  "internalType": "address",
                  "name": "creator",
                  "type": "address"
                },
                {
                  "internalType": "uint96",
                  "name": "totalTickets",
                  "type": "uint96"
                }
              ],
              "internalType": "struct TRY26.Batch",
              "name": "batch",
              "type": "tuple"
            }
          ],
          "internalType": "struct TRY26.FullToken",
          "name": "",
          "type": "tuple"
        }
      ],
      "stateMutability": "view",
      "type": "function"
    },
    {
      "inputs": [
        {
          "internalType": "bytes32",
          "name": "reservation",
          "type": "bytes32"
        }
      ],
      "name": "getReservation",
      "outputs": [
        {
          "internalType": "uint256",
          "name": "unlock",
          "type": "uint256"
        }
      ],
      "stateMutability": "view",
      "type": "function"
    },
    {
      "inputs": [
        {
          "internalType": "uint256",
          "name": "tokenId",
          "type": "uint256"
        }
      ],
      "name": "getToken",
      "outputs": [
        {
          "components": [
            {
              "internalType": "address",
              "name": "owner",
              "type": "address"
            },
            {
              "internalType": "uint256",
              "name": "batchId",
              "type": "uint256"
            },
            {
              "internalType": "bytes32",
              "name": "ticketId",
              "type": "bytes32"
            }
          ],
          "internalType": "struct TRY26.Token",
          "name": "",
          "type": "tuple"
        }
      ],
      "stateMutability": "view",
      "type": "function"
    },
    {
      "inputs": [
        {
          "internalType": "address",
          "name": "",
          "type": "address"
        },
        {
          "internalType": "address",
          "name": "",
          "type": "address"
        }
      ],
      "name": "isApprovedForAll",
      "outputs": [
        {
          "internalType": "bool",
          "name": "",
          "type": "bool"
        }
      ],
      "stateMutability": "pure",
      "type": "function"
    },
    {
      "inputs": [
        {
          "internalType": "address",
          "name": "forwarder",
          "type": "address"
        }
      ],
      "name": "isTrustedForwarder",
      "outputs": [
        {
          "internalType": "bool",
          "name": "",
          "type": "bool"
        }
      ],
      "stateMutability": "view",
      "type": "function"
    },
    {
      "inputs": [
        {
          "internalType": "uint128",
          "name": "metadataId",
          "type": "uint128"
        },
        {
          "internalType": "uint256",
          "name": "amount",
          "type": "uint256"
        }
      ],
      "name": "mint",
      "outputs": [],
      "stateMutability": "nonpayable",
      "type": "function"
    },
    {
      "inputs": [],
      "name": "name",
      "outputs": [
        {
          "internalType": "string",
          "name": "",
          "type": "string"
        }
      ],
      "stateMutability": "pure",
      "type": "function"
    },
    {
      "inputs": [],
      "name": "notifyMetadataUpdate",
      "outputs": [],
      "stateMutability": "nonpayable",
      "type": "function"
    },
    {
      "inputs": [],
      "name": "owner",
      "outputs": [
        {
          "internalType": "address",
          "name": "",
          "type": "address"
        }
      ],
      "stateMutability": "view",
      "type": "function"
    },
    {
      "inputs": [
        {
          "internalType": "uint256",
          "name": "tokenId",
          "type": "uint256"
        }
      ],
      "name": "ownerOf",
      "outputs": [
        {
          "internalType": "address",
          "name": "",
          "type": "address"
        }
      ],
      "stateMutability": "view",
      "type": "function"
    },
    {
      "inputs": [
        {
          "internalType": "uint128",
          "name": "metadataId",
          "type": "uint128"
        },
        {
          "internalType": "bytes32[]",
          "name": "tickets",
          "type": "bytes32[]"
        }
      ],
      "name": "preMint",
      "outputs": [],
      "stateMutability": "nonpayable",
      "type": "function"
    },
    {
      "inputs": [],
      "name": "renounceOwnership",
      "outputs": [],
      "stateMutability": "nonpayable",
      "type": "function"
    },
    {
      "inputs": [
        {
          "internalType": "bytes32",
          "name": "reservation",
          "type": "bytes32"
        }
      ],
      "name": "reserve",
      "outputs": [],
      "stateMutability": "nonpayable",
      "type": "function"
    },
    {
      "inputs": [
        {
          "internalType": "address",
          "name": "from",
          "type": "address"
        },
        {
          "internalType": "address",
          "name": "to",
          "type": "address"
        },
        {
          "internalType": "uint256",
          "name": "tokenId",
          "type": "uint256"
        }
      ],
      "name": "safeTransferFrom",
      "outputs": [],
      "stateMutability": "nonpayable",
      "type": "function"
    },
    {
      "inputs": [
        {
          "internalType": "address",
          "name": "from",
          "type": "address"
        },
        {
          "internalType": "address",
          "name": "to",
          "type": "address"
        },
        {
          "internalType": "uint256",
          "name": "tokenId",
          "type": "uint256"
        },
        {
          "internalType": "bytes",
          "name": "",
          "type": "bytes"
        }
      ],
      "name": "safeTransferFrom",
      "outputs": [],
      "stateMutability": "nonpayable",
      "type": "function"
    },
    {
      "inputs": [
        {
          "internalType": "address",
          "name": "",
          "type": "address"
        },
        {
          "internalType": "bool",
          "name": "",
          "type": "bool"
        }
      ],
      "name": "setApprovalForAll",
      "outputs": [],
      "stateMutability": "pure",
      "type": "function"
    },
    {
      "inputs": [
        {
          "internalType": "bytes4",
          "name": "interfaceId",
          "type": "bytes4"
        }
      ],
      "name": "supportsInterface",
      "outputs": [
        {
          "internalType": "bool",
          "name": "",
          "type": "bool"
        }
      ],
      "stateMutability": "view",
      "type": "function"
    },
    {
      "inputs": [],
      "name": "symbol",
      "outputs": [
        {
          "internalType": "string",
          "name": "",
          "type": "string"
        }
      ],
      "stateMutability": "pure",
      "type": "function"
    },
    {
      "inputs": [
        {
          "internalType": "uint256",
          "name": "batchId",
          "type": "uint256"
        },
        {
          "internalType": "uint256",
          "name": "start",
          "type": "uint256"
        },
        {
          "internalType": "uint256",
          "name": "size",
          "type": "uint256"
        }
      ],
      "name": "ticketsByBatch",
      "outputs": [
        {
          "internalType": "bytes32[]",
          "name": "tickets",
          "type": "bytes32[]"
        }
      ],
      "stateMutability": "view",
      "type": "function"
    },
    {
      "inputs": [
        {
          "internalType": "uint256",
          "name": "index",
          "type": "uint256"
        }
      ],
      "name": "tokenByIndex",
      "outputs": [
        {
          "internalType": "uint256",
          "name": "",
          "type": "uint256"
        }
      ],
      "stateMutability": "view",
      "type": "function"
    },
    {
      "inputs": [
        {
          "internalType": "bytes32",
          "name": "ticketId",
          "type": "bytes32"
        }
      ],
      "name": "tokenIdByTicketId",
      "outputs": [
        {
          "internalType": "uint256",
          "name": "tokenId",
          "type": "uint256"
        }
      ],
      "stateMutability": "view",
      "type": "function"
    },
    {
      "inputs": [
        {
          "internalType": "address",
          "name": "target",
          "type": "address"
        },
        {
          "internalType": "uint256",
          "name": "start",
          "type": "uint256"
        },
        {
          "internalType": "uint256",
          "name": "size",
          "type": "uint256"
        }
      ],
      "name": "tokenIdsByOwner",
      "outputs": [
        {
          "internalType": "uint256[]",
          "name": "tokenIds",
          "type": "uint256[]"
        }
      ],
      "stateMutability": "view",
      "type": "function"
    },
    {
      "inputs": [
        {
          "internalType": "address",
          "name": "target",
          "type": "address"
        },
        {
          "internalType": "uint256",
          "name": "index",
          "type": "uint256"
        }
      ],
      "name": "tokenOfOwnerByIndex",
      "outputs": [
        {
          "internalType": "uint256",
          "name": "tokenId",
          "type": "uint256"
        }
      ],
      "stateMutability": "view",
      "type": "function"
    },
    {
      "inputs": [
        {
          "internalType": "uint256",
          "name": "tokenId",
          "type": "uint256"
        }
      ],
      "name": "tokenURI",
      "outputs": [
        {
          "internalType": "string",
          "name": "",
          "type": "string"
        }
      ],
      "stateMutability": "view",
      "type": "function"
    },
    {
      "inputs": [],
      "name": "totalBatches",
      "outputs": [
        {
          "internalType": "uint256",
          "name": "",
          "type": "uint256"
        }
      ],
      "stateMutability": "view",
      "type": "function"
    },
    {
      "inputs": [],
      "name": "totalSupply",
      "outputs": [
        {
          "internalType": "uint256",
          "name": "",
          "type": "uint256"
        }
      ],
      "stateMutability": "view",
      "type": "function"
    },
    {
      "inputs": [],
      "name": "totalTickets",
      "outputs": [
        {
          "internalType": "uint256",
          "name": "",
          "type": "uint256"
        }
      ],
      "stateMutability": "view",
      "type": "function"
    },
    {
      "inputs": [
        {
          "internalType": "address",
          "name": "from",
          "type": "address"
        },
        {
          "internalType": "address",
          "name": "to",
          "type": "address"
        },
        {
          "internalType": "uint256",
          "name": "tokenId",
          "type": "uint256"
        }
      ],
      "name": "transferFrom",
      "outputs": [],
      "stateMutability": "nonpayable",
      "type": "function"
    },
    {
      "inputs": [
        {
          "internalType": "address",
          "name": "newOwner",
          "type": "address"
        }
      ],
      "name": "transferOwnership",
      "outputs": [],
      "stateMutability": "nonpayable",
      "type": "function"
    }
  ],
  "bytecode": "0x61018060405234801562000011575f80fd5b5073d8253782c45a12053594b9deb72d8e8ab2fca54c336040518060400160405280600f81526020016e5477656e747953697820436c61696d60881b815250604051806040016040528060018152602001603160f81b8152506200007f5f836200017460201b90919060201c565b610120526200009081600162000174565b61014052815160208084019190912060e052815190820120610100524660a0526200011d60e05161010051604080517f8b73c3c69bb8fe3d512ecc4cf759cc79239f7b179b0ffacaa9a75d522b39400f60208201529081019290925260608201524660808201523060a08201525f9060c00160405160208183030381529060405280519060200120905090565b60805250503060c0526001600160a01b0381166200015557604051631e4fbdf760e01b81525f60048201526024015b60405180910390fd5b6200016081620001ac565b506001600160a01b0316610160526200041b565b5f60208351101562000193576200018b83620001fd565b9050620001a6565b81620001a08482620002dd565b5060ff90505b92915050565b600280546001600160a01b038381166001600160a01b0319831681179093556040519116919082907f8be0079c531659141344cd1fd0a4f28419497f9722a3daafe3b4186f6b6457e0905f90a35050565b5f80829050601f815111156200022a578260405163305a27a960e01b81526004016200014c9190620003a9565b80516200023782620003f7565b179392505050565b634e487b7160e01b5f52604160045260245ffd5b600181811c908216806200026857607f821691505b6020821081036200028757634e487b7160e01b5f52602260045260245ffd5b50919050565b601f821115620002d857805f5260205f20601f840160051c81016020851015620002b45750805b601f840160051c820191505b81811015620002d5575f8155600101620002c0565b50505b505050565b81516001600160401b03811115620002f957620002f96200023f565b62000311816200030a845462000253565b846200028d565b602080601f83116001811462000347575f84156200032f5750858301515b5f19600386901b1c1916600185901b178555620003a1565b5f85815260208120601f198616915b82811015620003775788860151825594840194600190910190840162000356565b50858210156200039557878501515f19600388901b60f8161c191681555b505060018460011b0185555b505050505050565b5f602080835283518060208501525f5b81811015620003d757858101830151858201604001528201620003b9565b505f604082860101526040601f19601f8301168501019250505092915050565b8051602080830151919081101562000287575f1960209190910360031b1b16919050565b60805160a05160c05160e051610100516101205161014051610160516129a36200047e5f395f8181610409015261186b01525f611bcb01525f611b9f01525f6120ab01525f61208301525f611fde01525f61200801525f61203201526129a35ff3fe608060405234801561000f575f80fd5b5060043610610283575f3560e01c806369ff6abb11610157578063af97e423116100d2578063e8a3d48511610088578063ec68555f1161006e578063ec68555f1461064b578063f2fde38b1461066a578063f4b2858c1461067d575f80fd5b8063e8a3d48514610635578063e985e9c51461063d575f80fd5b8063c87b56dd116100b8578063c87b56dd146105ab578063dd11247e146105be578063e4b50cb8146105c7575f80fd5b8063af97e42314610590578063b88d4fde14610598575f80fd5b806384b0196e1161012757806395d89b411161010d57806395d89b41146105365780639b6381891461056f578063a22cb46514610582575f80fd5b806384b0196e1461050a5780638da5cb5b14610525575f80fd5b806369ff6abb146104d357806370a08231146104dc578063713df1db146104ef578063715018a614610502575f80fd5b806342842e0e116102015780635ac44282116101b75780635e3e82b01161019d5780635e3e82b0146104785780636352211e1461049857806367ac8c0a146104c0575f80fd5b80635ac44282146104395780635da5408514610459575f80fd5b8063432ced04116101e7578063432ced04146103d35780634f6ccce7146103e6578063572b6c05146103f9575f80fd5b806342842e0e146103ad57806342966c68146103c0575f80fd5b8063095ea7b31161025657806318160ddd1161023c57806318160ddd1461037157806323b872dd146103875780632f745c591461039a575f80fd5b8063095ea7b31461033c57806309fda94b14610351575f80fd5b806301ffc9a71461028757806303cbd888146102af57806306fdde03146102cf578063081812fc14610311575b5f80fd5b61029a610295366004612178565b610690565b60405190151581526020015b60405180910390f35b6102c26102bd36600461219f565b610773565b6040516102a691906121b6565b60408051808201909152600f81527f5477656e747953697820436c61696d000000000000000000000000000000000060208201525b6040516102a69190612281565b61032461031f36600461219f565b61086c565b6040516001600160a01b0390911681526020016102a6565b61034f61034a3660046122ae565b610886565b005b61036461035f3660046122d6565b61089f565b6040516102a69190612340565b6103796108ff565b6040519081526020016102a6565b61034f610395366004612352565b610915565b6103796103a83660046122ae565b610a97565b61034f6103bb366004612352565b610ae8565b61034f6103ce36600461219f565b610af8565b61034f6103e136600461219f565b610bd0565b6103796103f436600461219f565b610c8d565b61029a61040736600461238b565b7f00000000000000000000000000000000000000000000000000000000000000006001600160a01b0390811691161490565b61044c61044736600461219f565b610cb5565b6040516102a691906123a4565b61037961046736600461219f565b5f908152600a602052604090205490565b61048b6104863660046123f7565b610d67565b6040516102a69190612420565b6103246104a636600461219f565b5f908152600b60205260409020546001600160a01b031690565b61034f6104ce3660046124f4565b610dd6565b61037960035481565b6103796104ea36600461238b565b610fbe565b61034f6104fd36600461258b565b610fde565b61034f6111f6565b610512611209565b6040516102a697969594939291906125a5565b6002546001600160a01b0316610324565b60408051808201909152600581527f54525932360000000000000000000000000000000000000000000000000000006020820152610304565b61034f61057d3660046122d6565b611267565b61034f61034a36600461262e565b61034f6113fe565b61034f6105a6366004612667565b611442565b6103046105b936600461219f565b611453565b61037960045481565b6106286105d536600461219f565b60408051606080820183525f8083526020808401829052928401819052938452600b8252928290208251938401835280546001600160a01b03168452600181015491840191909152600201549082015290565b6040516102a69190612720565b6103046114e2565b61029a61031f36600461274a565b61037961065936600461219f565b5f9081526007602052604090205490565b61034f61067836600461238b565b61153e565b61034f61068b36600461277b565b611594565b5f6001600160e01b031982167f80ac58cd0000000000000000000000000000000000000000000000000000000014806106f257506001600160e01b031982167f5b5e139f00000000000000000000000000000000000000000000000000000000145b8061072657506001600160e01b031982167f780e9d6300000000000000000000000000000000000000000000000000000000145b8061073957506001600160e01b03198216155b8061076d57507f01ffc9a7000000000000000000000000000000000000000000000000000000006001600160e01b03198316145b92915050565b6107c26040805160a0810182525f9181018281526060820183905260808201929092529081908152604080516080810182525f8082526020828101829052928201819052606082015291015290565b505f908152600b6020908152604080832081516060808201845282546001600160a01b039081168352600180850154848801819052600290950154848701529387526005865295849020845160808101865281546001600160801b038082168352600160801b909104168188015293015495861683850152600160a01b9095046bffffffffffffffffffffffff169482019490945281518083019092529281529081019190915290565b5f6040516341f8b8eb60e11b815260040160405180910390fd5b6040516341f8b8eb60e11b815260040160405180910390fd5b6001600160a01b0383165f908152600c602052604090206060906108c28161172f565b6108cc848661280e565b11156108eb57604051634e23d03560e01b815260040160405180910390fd5b6108f6818585611738565b95945050505050565b5f6009546008546109109190612821565b905090565b61091d6117c9565b6001600160a01b038216610964576040517f64a0ae920000000000000000000000000000000000000000000000000000000081525f60048201526024015b60405180910390fd5b5f818152600b6020526040902080546001600160a01b03168061099d576040516306caeb1360e41b81526004810184905260240161095b565b846001600160a01b0316816001600160a01b031614610a02576040517f64283d7b0000000000000000000000000000000000000000000000000000000081526001600160a01b038087166004830152602482018590528216604482015260640161095b565b6001600160a01b0385165f908152600c60205260409020610a239084611840565b506001600160a01b0384165f908152600c60205260409020610a459084611852565b5081546001600160a01b0319166001600160a01b0385811691821784556040518592918816907fddf252ad1be2c89b69c2b068fc378daa952ba7f163c4a11628f55a4df523b3ef905f90a45050505050565b6001600160a01b0382165f908152600c60205260408120610ab78161172f565b8310610ad657604051634e23d03560e01b815260040160405180910390fd5b610ae0818461185d565b949350505050565b610af3838383610915565b505050565b610b006117c9565b5f818152600b60205260409020546001600160a01b031680610b38576040516306caeb1360e41b81526004810183905260240161095b565b6001600160a01b0381165f908152600c60205260409020610b599083611840565b505f828152600b6020526040812080546001600160a01b0319168155600181018290556002018190556009805491610b9083612834565b909155505060405182905f906001600160a01b038416907fddf252ad1be2c89b69c2b068fc378daa952ba7f163c4a11628f55a4df523b3ef908390a45050565b5f8181526007602052604090205415610c18576040517fe26b6c3a0000000000000000000000000000000000000000000000000000000081526004810182905260240161095b565b5f610c24603c4261280e565b5f8381526007602052604090208190559050610c3e611868565b6001600160a01b03167fc2e6e791274f4ca6517553570472956264bb5d03c9b67ea9b0ccd1e3aed81c418383604051610c81929190918252602082015260400190565b60405180910390a25050565b5f600854821115610cb157604051634e23d03560e01b815260040160405180910390fd5b5090565b604080516080810182525f808252602082018190529181018290526060810191909152600354821115610cfb57604051634e23d03560e01b815260040160405180910390fd5b505f90815260056020908152604091829020825160808101845281546001600160801b038082168352600160801b9091041692810192909252600101546001600160a01b03811692820192909252600160a01b9091046bffffffffffffffffffffffff16606082015290565b6060600354841115610d8c57604051634e23d03560e01b815260040160405180910390fd5b5f848152600660205260409020610da28161172f565b610dac848661280e565b1115610dcb57604051634e23d03560e01b815260040160405180910390fd5b6108f68185856118ab565b5f610ddf611868565b90505f8183602001518460400151604051602001610e249392919060609390931b6bffffffffffffffffffffffff191683526014830191909152603482015260540190565b60408051601f1981840301815291815281516020928301205f8181526007909352912054909150801580610e5757508042105b15610e91576040517f4f31f9ad0000000000000000000000000000000000000000000000000000000081526004810183905260240161095b565b5f610e9b8561192f565b90505f60085f8154610eac90612834565b91829055505f838152600a6020908152604080832084905580516060810182526001600160a01b038a81168083528c518386019081528385018a8152888852600b8752858820945185546001600160a01b031916941693909317845551600184015590516002909201919091558352600c9091529020909150610f2f9082611852565b5060405181906001600160a01b038716905f907fddf252ad1be2c89b69c2b068fc378daa952ba7f163c4a11628f55a4df523b3ef908290a485515f908152600560205260408082205490516001600160801b039091169183916001600160a01b038916917fa049a7b0db25fd4a447d4a72385802f52641ca5797b84688137edbe240b2a57f91a4505050505050565b6001600160a01b0381165f908152600c6020526040812061076d9061172f565b610fe66117c9565b5f60035f8154610ff590612834565b918290555090505f611005611868565b604080516080810182526001600160801b0380881680835242821660208085019182526001600160a01b038088168688018181525f606089018181528d82526005909552899020975194518716600160801b0294909616939093178655935190516bffffffffffffffffffffffff16600160a01b029316929092176001909301929092559151929350909184907f106570966e3bf3e75591faf8fb560d3a85ac3f086484e68b289f29d2ce0434dd906110c19088815260200190565b60405180910390a45f60085460016110d9919061280e565b90505f6110e6858361280e565b90505b808210156111e057604080516060810182526001600160a01b0385811680835260208084018981525f858701818152898252600b8452878220965187546001600160a01b03191696169590951786559051600186015592516002909401939093558152600c9091522061115c9083611852565b5060405182906001600160a01b038516905f907fddf252ad1be2c89b69c2b068fc378daa952ba7f163c4a11628f55a4df523b3ef908290a4856001600160801b031682846001600160a01b03167fa049a7b0db25fd4a447d4a72385802f52641ca5797b84688137edbe240b2a57f60405160405180910390a46001909101906110e9565b6111eb600182612821565b600855505050505050565b6111fe6117c9565b6112075f611b47565b565b5f6060805f805f606061121a611b98565b611222611bc4565b604080515f808252602082019092527f0f000000000000000000000000000000000000000000000000000000000000009b939a50919850469750309650945092509050565b61126f6117c9565b5f8281526006602052604090206112869082611bf1565b6112ad5760405163ab96bbb160e01b8152600481018390526024810182905260440161095b565b5f818152600a6020526040902054156112e3576040516302bd9fa960e51b8152600481018390526024810182905260440161095b565b5f60085f81546112f290612834565b91829055505f838152600a6020908152604080832084905580516060810182526001600160a01b038981168083528285018a81528385018a8152888852600b8752858820945185546001600160a01b031916941693909317845551600184015590516002909201919091558352600c90915290209091506113739082611852565b5060405181906001600160a01b038616905f907fddf252ad1be2c89b69c2b068fc378daa952ba7f163c4a11628f55a4df523b3ef908290a45f838152600560205260408082205490516001600160801b039091169183916001600160a01b038816917fa049a7b0db25fd4a447d4a72385802f52641ca5797b84688137edbe240b2a57f91a450505050565b6114066117c9565b60408051600181525f1960208201527f6bd5c950a8d8df17f772f5af37cb3655737899cbf903264b9795592da439661c910160405180910390a1565b61144d848484610915565b50505050565b604080518082018252601d81527f68747470733a2f2f636c61696d2e7477656e74797369782e636c6f75640000006020808301919091525f848152600b825283812060010154815260059091529190912054606091906114bb906001600160801b0316611c08565b6040516020016114cc92919061284c565b6040516020818303038152906040529050919050565b60606040518060400160405280601d81526020017f68747470733a2f2f636c61696d2e7477656e74797369782e636c6f756400000081525060405160200161152a91906128cd565b604051602081830303815290604052905090565b6115466117c9565b6001600160a01b038116611588576040517f1e4fbdf70000000000000000000000000000000000000000000000000000000081525f600482015260240161095b565b61159181611b47565b50565b61159c6117c9565b5f8190036115d6576040517f33b094a100000000000000000000000000000000000000000000000000000000815260040160405180910390fd5b5f60035f81546115e590612834565b918290555090505f6115f5611868565b604080516080810182526001600160801b03808916825242811660208084019182526001600160a01b038087168587019081526bffffffffffffffffffffffff808c16606088019081525f8c815260058652898120985196518816600160801b02969097169590951787559051935116600160a01b0292169190911760019093019290925560069091529081209192505b848110156116c2576116b98686838181106116a3576116a361290d565b905060200201358361185290919063ffffffff16565b50600101611686565b508484905060045f8282546116d7919061280e565b90915550506040518481526001600160a01b038316906001600160801b0388169085907f62762ba4f5eb4ef63099da4c103ae0d598c5c26fea38794d619918586c956bf29060200160405180910390a4505050505050565b5f61076d825490565b60608167ffffffffffffffff81111561175357611753612463565b60405190808252806020026020018201604052801561177c578160200160208202803683370190505b5090505f5b828110156117c15761179c85611797838761280e565b61185d565b8282815181106117ae576117ae61290d565b6020908102919091010152600101611781565b509392505050565b6117d1611868565b6001600160a01b03166117ec6002546001600160a01b031690565b6001600160a01b03161461120757611802611868565b6040517f118cdaa70000000000000000000000000000000000000000000000000000000081526001600160a01b03909116600482015260240161095b565b5f61184b8383611ca5565b9392505050565b5f61184b8383611d8f565b5f61184b8383611ddb565b5f7f00000000000000000000000000000000000000000000000000000000000000006001600160a01b031633036118a6575060131936013560601c90565b503390565b60608167ffffffffffffffff8111156118c6576118c6612463565b6040519080825280602002602001820160405280156118ef578160200160208202803683370190505b5090505f5b828110156117c15761190a85611797838761280e565b82828151811061191c5761191c61290d565b60209081029190910101526001016118f4565b5f81602001518260400151604051602001611954929190918252602082015260400190565b60408051601f19818403018152918152815160209283012084515f908152600690935291209091506119869082611bf1565b6119b057815160405163ab96bbb160e01b815260048101919091526024810182905260440161095b565b5f818152600a6020526040902054156119e95781516040516302bd9fa960e51b815260048101919091526024810182905260440161095b565b81515f90815260056020908152604080832060019081015486518488015184517fe65ce3b6d50c03d1ec4e511c0f90322a7788603f2e664b7dbf436b92bc2d6d4b968101969096526001600160a01b0390921693850184905260608501526080840152909291611a719060a00160405160208183030381529060405280519060200120611e01565b6060860151805160208083015160409384015184515f815290920193849052611ab6949390919093845260ff9290921660208401526040830152606082015260800190565b6020604051602081039080840390855afa158015611ad6573d5f803e3d5ffd5b505050602060405103519050816001600160a01b0316816001600160a01b031614611b40576040517f7ba5ffb50000000000000000000000000000000000000000000000000000000081526001600160a01b0380841660048301528216602482015260440161095b565b5050919050565b600280546001600160a01b038381166001600160a01b0319831681179093556040519116919082907f8be0079c531659141344cd1fd0a4f28419497f9722a3daafe3b4186f6b6457e0905f90a35050565b60606109107f00000000000000000000000000000000000000000000000000000000000000005f611e48565b60606109107f00000000000000000000000000000000000000000000000000000000000000006001611e48565b5f818152600183016020526040812054151561184b565b60605f611c1483611ef1565b60010190505f8167ffffffffffffffff811115611c3357611c33612463565b6040519080825280601f01601f191660200182016040528015611c5d576020820181803683370190505b5090508181016020015b5f19017f3031323334353637383961626364656600000000000000000000000000000000600a86061a8153600a8504945084611c6757509392505050565b5f8181526001830160205260408120548015611d7f575f611cc7600183612821565b85549091505f90611cda90600190612821565b9050818114611d39575f865f018281548110611cf857611cf861290d565b905f5260205f200154905080875f018481548110611d1857611d1861290d565b5f918252602080832090910192909255918252600188019052604090208390555b8554869080611d4a57611d4a612921565b600190038181905f5260205f20015f90559055856001015f8681526020019081526020015f205f90556001935050505061076d565b5f91505061076d565b5092915050565b5f818152600183016020526040812054611dd457508154600181810184555f84815260208082209093018490558454848252828601909352604090209190915561076d565b505f61076d565b5f825f018281548110611df057611df061290d565b905f5260205f200154905092915050565b5f61076d611e0d611fd2565b836040517f19010000000000000000000000000000000000000000000000000000000000008152600281019290925260228201526042902090565b606060ff8314611e6257611e5b836120fb565b905061076d565b818054611e6e90612935565b80601f0160208091040260200160405190810160405280929190818152602001828054611e9a90612935565b8015611ee55780601f10611ebc57610100808354040283529160200191611ee5565b820191905f5260205f20905b815481529060010190602001808311611ec857829003601f168201915b5050505050905061076d565b5f807a184f03e93ff9f4daa797ed6e38ed64bf6a1f0100000000000000008310611f39577a184f03e93ff9f4daa797ed6e38ed64bf6a1f010000000000000000830492506040015b6d04ee2d6d415b85acef81000000008310611f65576d04ee2d6d415b85acef8100000000830492506020015b662386f26fc100008310611f8357662386f26fc10000830492506010015b6305f5e1008310611f9b576305f5e100830492506008015b6127108310611faf57612710830492506004015b60648310611fc1576064830492506002015b600a831061076d5760010192915050565b5f306001600160a01b037f00000000000000000000000000000000000000000000000000000000000000001614801561202a57507f000000000000000000000000000000000000000000000000000000000000000046145b1561205457507f000000000000000000000000000000000000000000000000000000000000000090565b610910604080517f8b73c3c69bb8fe3d512ecc4cf759cc79239f7b179b0ffacaa9a75d522b39400f60208201527f0000000000000000000000000000000000000000000000000000000000000000918101919091527f000000000000000000000000000000000000000000000000000000000000000060608201524660808201523060a08201525f9060c00160405160208183030381529060405280519060200120905090565b60605f61210783612138565b6040805160208082528183019092529192505f91906020820181803683375050509182525060208101929092525090565b5f60ff8216601f81111561076d576040517fb3512b0c00000000000000000000000000000000000000000000000000000000815260040160405180910390fd5b5f60208284031215612188575f80fd5b81356001600160e01b03198116811461184b575f80fd5b5f602082840312156121af575f80fd5b5035919050565b815180516001600160a01b03168252602080820151908301526040908101519082015260e081016020830151611d8860608401826001600160801b03808251168352806020830151166020840152506001600160a01b0360408201511660408301526bffffffffffffffffffffffff60608201511660608301525050565b5f5b8381101561224e578181015183820152602001612236565b50505f910152565b5f815180845261226d816020860160208601612234565b601f01601f19169290920160200192915050565b602081525f61184b6020830184612256565b80356001600160a01b03811681146122a9575f80fd5b919050565b5f80604083850312156122bf575f80fd5b6122c883612293565b946020939093013593505050565b5f805f606084860312156122e8575f80fd5b6122f184612293565b95602085013595506040909401359392505050565b5f815180845260208085019450602084015f5b8381101561233557815187529582019590820190600101612319565b509495945050505050565b602081525f61184b6020830184612306565b5f805f60608486031215612364575f80fd5b61236d84612293565b925061237b60208501612293565b9150604084013590509250925092565b5f6020828403121561239b575f80fd5b61184b82612293565b6080810161076d82846001600160801b03808251168352806020830151166020840152506001600160a01b0360408201511660408301526bffffffffffffffffffffffff60608201511660608301525050565b5f805f60608486031215612409575f80fd5b505081359360208301359350604090920135919050565b602080825282518282018190525f9190848201906040850190845b818110156124575783518352928401929184019160010161243b565b50909695505050505050565b634e487b7160e01b5f52604160045260245ffd5b6040516080810167ffffffffffffffff8111828210171561249a5761249a612463565b60405290565b6040516060810167ffffffffffffffff8111828210171561249a5761249a612463565b604051601f8201601f1916810167ffffffffffffffff811182821017156124ec576124ec612463565b604052919050565b5f81830360c0811215612505575f80fd5b61250d612477565b8335815260208401356020820152604084013560408201526060605f1983011215612536575f80fd5b61253e6124a0565b9150606084013560ff81168114612553575f80fd5b82526080840135602083015260a0909301356040820152606083015250919050565b80356001600160801b03811681146122a9575f80fd5b5f806040838503121561259c575f80fd5b6122c883612575565b7fff000000000000000000000000000000000000000000000000000000000000008816815260e060208201525f6125df60e0830189612256565b82810360408401526125f18189612256565b90508660608401526001600160a01b03861660808401528460a084015282810360c08401526126208185612306565b9a9950505050505050505050565b5f806040838503121561263f575f80fd5b61264883612293565b91506020830135801515811461265c575f80fd5b809150509250929050565b5f805f806080858703121561267a575f80fd5b61268385612293565b93506020612692818701612293565b935060408601359250606086013567ffffffffffffffff808211156126b5575f80fd5b818801915088601f8301126126c8575f80fd5b8135818111156126da576126da612463565b6126ec601f8201601f191685016124c3565b91508082528984828501011115612701575f80fd5b80848401858401375f8482840101525080935050505092959194509250565b81516001600160a01b0316815260208083015190820152604080830151908201526060810161076d565b5f806040838503121561275b575f80fd5b61276483612293565b915061277260208401612293565b90509250929050565b5f805f6040848603121561278d575f80fd5b61279684612575565b9250602084013567ffffffffffffffff808211156127b2575f80fd5b818601915086601f8301126127c5575f80fd5b8135818111156127d3575f80fd5b8760208260051b85010111156127e7575f80fd5b6020830194508093505050509250925092565b634e487b7160e01b5f52601160045260245ffd5b8082018082111561076d5761076d6127fa565b8181038181111561076d5761076d6127fa565b5f60018201612845576128456127fa565b5060010190565b5f835161285d818460208801612234565b7f2f7362742f6d657461646174612f000000000000000000000000000000000000908301908152835161289781600e840160208801612234565b7f2e6a736f6e000000000000000000000000000000000000000000000000000000600e9290910191820152601301949350505050565b5f82516128de818460208701612234565b7f2f7362742f636f6e74726163745552492e6a736f6e0000000000000000000000920191825250601501919050565b634e487b7160e01b5f52603260045260245ffd5b634e487b7160e01b5f52603160045260245ffd5b600181811c9082168061294957607f821691505b60208210810361296757634e487b7160e01b5f52602260045260245ffd5b5091905056fea26469706673582212208c4f403de18d63f14f2709e95d9671b64f4e61483ea91530763333677abae14c64736f6c63430008180033",
  "linkReferences": {},
  "deployedLinkReferences": {}
}