{
  "_format": "hh-sol-artifact-1",
  "contractName": "TRY26",
  "sourceName": "contracts/TRY26.sol",
  "abi": [
    {
      "inputs": [],
      "stateMutability": "nonpayable",
      "type": "constructor"
    },
    {
      "inputs": [],
      "name": "IndexOutOfBounds",
      "type": "error"
    },
    {
      "inputs": [],
      "name": "InvalidBatch",
      "type": "error"
    },
    {
      "inputs": [],
      "name": "InvalidShortString",
      "type": "error"
    },
    {
      "inputs": [
        {
          "internalType": "address",
          "name": "admin",
          "type": "address"
        },
        {
          "internalType": "address",
          "name": "signer",
          "type": "address"
        }
      ],
      "name": "InvalidSigner",
      "type": "error"
    },
    {
      "inputs": [],
      "name": "MethodNotAllowed",
      "type": "error"
    },
    {
      "inputs": [
        {
          "internalType": "address",
          "name": "owner",
          "type": "address"
        }
      ],
      "name": "OwnableInvalidOwner",
      "type": "error"
    },
    {
      "inputs": [
        {
          "internalType": "address",
          "name": "account",
          "type": "address"
        }
      ],
      "name": "OwnableUnauthorizedAccount",
      "type": "error"
    },
    {
      "inputs": [
        {
          "internalType": "bytes32",
          "name": "reservation",
          "type": "bytes32"
        }
      ],
      "name": "ReservationNotChanged",
      "type": "error"
    },
    {
      "inputs": [
        {
          "internalType": "bytes32",
          "name": "reservation",
          "type": "bytes32"
        }
      ],
      "name": "ReservationNotFound",
      "type": "error"
    },
    {
      "inputs": [
        {
          "internalType": "string",
          "name": "str",
          "type": "string"
        }
      ],
      "name": "StringTooLong",
      "type": "error"
    },
    {
      "inputs": [
        {
          "internalType": "uint256",
          "name": "batchId",
          "type": "uint256"
        },
        {
          "internalType": "bytes32",
          "name": "ticketId",
          "type": "bytes32"
        }
      ],
      "name": "TicketAlreadyClaimed",
      "type": "error"
    },
    {
      "inputs": [
        {
          "internalType": "uint256",
          "name": "batchId",
          "type": "uint256"
        },
        {
          "internalType": "bytes32",
          "name": "ticketId",
          "type": "bytes32"
        }
      ],
      "name": "TicketNotFound",
      "type": "error"
    },
    {
      "anonymous": false,
      "inputs": [
        {
          "indexed": true,
          "internalType": "address",
          "name": "owner",
          "type": "address"
        },
        {
          "indexed": true,
          "internalType": "address",
          "name": "approved",
          "type": "address"
        },
        {
          "indexed": true,
          "internalType": "uint256",
          "name": "tokenId",
          "type": "uint256"
        }
      ],
      "name": "Approval",
      "type": "event"
    },
    {
      "anonymous": false,
      "inputs": [
        {
          "indexed": true,
          "internalType": "address",
          "name": "owner",
          "type": "address"
        },
        {
          "indexed": true,
          "internalType": "address",
          "name": "operator",
          "type": "address"
        },
        {
          "indexed": false,
          "internalType": "bool",
          "name": "approved",
          "type": "bool"
        }
      ],
      "name": "ApprovalForAll",
      "type": "event"
    },
    {
      "anonymous": false,
      "inputs": [
        {
          "indexed": true,
          "internalType": "uint256",
          "name": "batchId",
          "type": "uint256"
        },
        {
          "indexed": true,
          "internalType": "uint128",
          "name": "metadataId",
          "type": "uint128"
        },
        {
          "indexed": true,
          "internalType": "address",
          "name": "admin",
          "type": "address"
        },
        {
          "indexed": false,
          "internalType": "uint256",
          "name": "nbTickets",
          "type": "uint256"
        }
      ],
      "name": "BatchPreMinted",
      "type": "event"
    },
    {
      "anonymous": false,
      "inputs": [],
      "name": "EIP712DomainChanged",
      "type": "event"
    },
    {
      "anonymous": false,
      "inputs": [
        {
          "indexed": true,
          "internalType": "address",
          "name": "previousOwner",
          "type": "address"
        },
        {
          "indexed": true,
          "internalType": "address",
          "name": "newOwner",
          "type": "address"
        }
      ],
      "name": "OwnershipTransferred",
      "type": "event"
    },
    {
      "anonymous": false,
      "inputs": [
        {
          "indexed": true,
          "internalType": "address",
          "name": "owner",
          "type": "address"
        },
        {
          "indexed": false,
          "internalType": "bytes32",
          "name": "reservation",
          "type": "bytes32"
        },
        {
          "indexed": false,
          "internalType": "uint256",
          "name": "unlock",
          "type": "uint256"
        }
      ],
      "name": "TicketReserved",
      "type": "event"
    },
    {
      "anonymous": false,
      "inputs": [
        {
          "indexed": true,
          "internalType": "address",
          "name": "from",
          "type": "address"
        },
        {
          "indexed": true,
          "internalType": "address",
          "name": "to",
          "type": "address"
        },
        {
          "indexed": true,
          "internalType": "uint256",
          "name": "tokenId",
          "type": "uint256"
        }
      ],
      "name": "Transfer",
      "type": "event"
    },
    {
      "inputs": [
        {
          "internalType": "address",
          "name": "",
          "type": "address"
        },
        {
          "internalType": "uint256",
          "name": "",
          "type": "uint256"
        }
      ],
      "name": "approve",
      "outputs": [],
      "stateMutability": "pure",
      "type": "function"
    },
    {
      "inputs": [
        {
          "internalType": "address",
          "name": "target",
          "type": "address"
        }
      ],
      "name": "balanceOf",
      "outputs": [
        {
          "internalType": "uint256",
          "name": "",
          "type": "uint256"
        }
      ],
      "stateMutability": "view",
      "type": "function"
    },
    {
      "inputs": [
        {
          "components": [
            {
              "internalType": "uint256",
              "name": "batchId",
              "type": "uint256"
            },
            {
              "internalType": "bytes32",
              "name": "batchSecret",
              "type": "bytes32"
            },
            {
              "internalType": "bytes32",
              "name": "ticketSecret",
              "type": "bytes32"
            },
            {
              "components": [
                {
                  "internalType": "uint8",
                  "name": "v",
                  "type": "uint8"
                },
                {
                  "internalType": "bytes32",
                  "name": "r",
                  "type": "bytes32"
                },
                {
                  "internalType": "bytes32",
                  "name": "s",
                  "type": "bytes32"
                }
              ],
              "internalType": "struct TRY26.Signature",
              "name": "signature",
              "type": "tuple"
            }
          ],
          "internalType": "struct TRY26.Ticket",
          "name": "ticket",
          "type": "tuple"
        }
      ],
      "name": "claim",
      "outputs": [],
      "stateMutability": "nonpayable",
      "type": "function"
    },
    {
      "inputs": [],
      "name": "contractURI",
      "outputs": [
        {
          "internalType": "string",
          "name": "",
          "type": "string"
        }
      ],
      "stateMutability": "pure",
      "type": "function"
    },
    {
      "inputs": [],
      "name": "eip712Domain",
      "outputs": [
        {
          "internalType": "bytes1",
          "name": "fields",
          "type": "bytes1"
        },
        {
          "internalType": "string",
          "name": "name",
          "type": "string"
        },
        {
          "internalType": "string",
          "name": "version",
          "type": "string"
        },
        {
          "internalType": "uint256",
          "name": "chainId",
          "type": "uint256"
        },
        {
          "internalType": "address",
          "name": "verifyingContract",
          "type": "address"
        },
        {
          "internalType": "bytes32",
          "name": "salt",
          "type": "bytes32"
        },
        {
          "internalType": "uint256[]",
          "name": "extensions",
          "type": "uint256[]"
        }
      ],
      "stateMutability": "view",
      "type": "function"
    },
    {
      "inputs": [
        {
          "internalType": "uint256",
          "name": "",
          "type": "uint256"
        }
      ],
      "name": "getApproved",
      "outputs": [
        {
          "internalType": "address",
          "name": "",
          "type": "address"
        }
      ],
      "stateMutability": "pure",
      "type": "function"
    },
    {
      "inputs": [
        {
          "internalType": "uint256",
          "name": "batchId",
          "type": "uint256"
        }
      ],
      "name": "getBatch",
      "outputs": [
        {
          "internalType": "uint128",
          "name": "metadataId",
          "type": "uint128"
        },
        {
          "internalType": "uint128",
          "name": "createdAt",
          "type": "uint128"
        },
        {
          "internalType": "uint256",
          "name": "nbTickets",
          "type": "uint256"
        }
      ],
      "stateMutability": "view",
      "type": "function"
    },
    {
      "inputs": [
        {
          "internalType": "uint256",
          "name": "tokenId",
          "type": "uint256"
        }
      ],
      "name": "getFullToken",
      "outputs": [
        {
          "components": [
            {
              "components": [
                {
                  "internalType": "address",
                  "name": "owner",
                  "type": "address"
                },
                {
                  "internalType": "uint256",
                  "name": "batchId",
                  "type": "uint256"
                },
                {
                  "internalType": "bytes32",
                  "name": "ticketId",
                  "type": "bytes32"
                }
              ],
              "internalType": "struct TRY26.Token",
              "name": "token",
              "type": "tuple"
            },
            {
              "components": [
                {
                  "internalType": "uint128",
                  "name": "metadataId",
                  "type": "uint128"
                },
                {
                  "internalType": "uint128",
                  "name": "createdAt",
                  "type": "uint128"
                },
                {
                  "internalType": "address",
                  "name": "admin",
                  "type": "address"
                }
              ],
              "internalType": "struct TRY26.Batch",
              "name": "batch",
              "type": "tuple"
            }
          ],
          "internalType": "struct TRY26.FullToken",
          "name": "",
          "type": "tuple"
        }
      ],
      "stateMutability": "view",
      "type": "function"
    },
    {
      "inputs": [
        {
          "internalType": "uint256",
          "name": "tokenId",
          "type": "uint256"
        }
      ],
      "name": "getToken",
      "outputs": [
        {
          "components": [
            {
              "internalType": "address",
              "name": "owner",
              "type": "address"
            },
            {
              "internalType": "uint256",
              "name": "batchId",
              "type": "uint256"
            },
            {
              "internalType": "bytes32",
              "name": "ticketId",
              "type": "bytes32"
            }
          ],
          "internalType": "struct TRY26.Token",
          "name": "",
          "type": "tuple"
        }
      ],
      "stateMutability": "view",
      "type": "function"
    },
    {
      "inputs": [
        {
          "internalType": "address",
          "name": "",
          "type": "address"
        },
        {
          "internalType": "address",
          "name": "",
          "type": "address"
        }
      ],
      "name": "isApprovedForAll",
      "outputs": [
        {
          "internalType": "bool",
          "name": "",
          "type": "bool"
        }
      ],
      "stateMutability": "pure",
      "type": "function"
    },
    {
      "inputs": [],
      "name": "name",
      "outputs": [
        {
          "internalType": "string",
          "name": "",
          "type": "string"
        }
      ],
      "stateMutability": "pure",
      "type": "function"
    },
    {
      "inputs": [],
      "name": "owner",
      "outputs": [
        {
          "internalType": "address",
          "name": "",
          "type": "address"
        }
      ],
      "stateMutability": "view",
      "type": "function"
    },
    {
      "inputs": [
        {
          "internalType": "uint256",
          "name": "tokenId",
          "type": "uint256"
        }
      ],
      "name": "ownerOf",
      "outputs": [
        {
          "internalType": "address",
          "name": "",
          "type": "address"
        }
      ],
      "stateMutability": "view",
      "type": "function"
    },
    {
      "inputs": [
        {
          "internalType": "uint128",
          "name": "metadataId",
          "type": "uint128"
        },
        {
          "internalType": "bytes32[]",
          "name": "tickets",
          "type": "bytes32[]"
        }
      ],
      "name": "preMint",
      "outputs": [
        {
          "internalType": "uint256",
          "name": "batchId",
          "type": "uint256"
        }
      ],
      "stateMutability": "nonpayable",
      "type": "function"
    },
    {
      "inputs": [],
      "name": "renounceOwnership",
      "outputs": [],
      "stateMutability": "nonpayable",
      "type": "function"
    },
    {
      "inputs": [
        {
          "internalType": "bytes32",
          "name": "reservation",
          "type": "bytes32"
        }
      ],
      "name": "reserve",
      "outputs": [],
      "stateMutability": "nonpayable",
      "type": "function"
    },
    {
      "inputs": [
        {
          "internalType": "address",
          "name": "",
          "type": "address"
        },
        {
          "internalType": "address",
          "name": "",
          "type": "address"
        },
        {
          "internalType": "uint256",
          "name": "",
          "type": "uint256"
        }
      ],
      "name": "safeTransferFrom",
      "outputs": [],
      "stateMutability": "pure",
      "type": "function"
    },
    {
      "inputs": [
        {
          "internalType": "address",
          "name": "",
          "type": "address"
        },
        {
          "internalType": "address",
          "name": "",
          "type": "address"
        },
        {
          "internalType": "uint256",
          "name": "",
          "type": "uint256"
        },
        {
          "internalType": "bytes",
          "name": "",
          "type": "bytes"
        }
      ],
      "name": "safeTransferFrom",
      "outputs": [],
      "stateMutability": "pure",
      "type": "function"
    },
    {
      "inputs": [
        {
          "internalType": "address",
          "name": "",
          "type": "address"
        },
        {
          "internalType": "bool",
          "name": "",
          "type": "bool"
        }
      ],
      "name": "setApprovalForAll",
      "outputs": [],
      "stateMutability": "pure",
      "type": "function"
    },
    {
      "inputs": [
        {
          "internalType": "bytes4",
          "name": "interfaceId",
          "type": "bytes4"
        }
      ],
      "name": "supportsInterface",
      "outputs": [
        {
          "internalType": "bool",
          "name": "",
          "type": "bool"
        }
      ],
      "stateMutability": "view",
      "type": "function"
    },
    {
      "inputs": [],
      "name": "symbol",
      "outputs": [
        {
          "internalType": "string",
          "name": "",
          "type": "string"
        }
      ],
      "stateMutability": "pure",
      "type": "function"
    },
    {
      "inputs": [
        {
          "internalType": "uint256",
          "name": "batchId",
          "type": "uint256"
        },
        {
          "internalType": "uint256",
          "name": "start",
          "type": "uint256"
        },
        {
          "internalType": "uint256",
          "name": "size",
          "type": "uint256"
        }
      ],
      "name": "ticketsByBatch",
      "outputs": [
        {
          "internalType": "bytes32[]",
          "name": "tickets",
          "type": "bytes32[]"
        }
      ],
      "stateMutability": "view",
      "type": "function"
    },
    {
      "inputs": [
        {
          "internalType": "uint256",
          "name": "index",
          "type": "uint256"
        }
      ],
      "name": "tokenByIndex",
      "outputs": [
        {
          "internalType": "uint256",
          "name": "",
          "type": "uint256"
        }
      ],
      "stateMutability": "view",
      "type": "function"
    },
    {
      "inputs": [
        {
          "internalType": "bytes32",
          "name": "ticketId",
          "type": "bytes32"
        }
      ],
      "name": "tokenIdByTicketId",
      "outputs": [
        {
          "internalType": "uint256",
          "name": "tokenId",
          "type": "uint256"
        }
      ],
      "stateMutability": "view",
      "type": "function"
    },
    {
      "inputs": [
        {
          "internalType": "address",
          "name": "target",
          "type": "address"
        },
        {
          "internalType": "uint256",
          "name": "start",
          "type": "uint256"
        },
        {
          "internalType": "uint256",
          "name": "size",
          "type": "uint256"
        }
      ],
      "name": "tokenIdsByOwner",
      "outputs": [
        {
          "internalType": "uint256[]",
          "name": "tokenIds",
          "type": "uint256[]"
        }
      ],
      "stateMutability": "view",
      "type": "function"
    },
    {
      "inputs": [
        {
          "internalType": "address",
          "name": "target",
          "type": "address"
        },
        {
          "internalType": "uint256",
          "name": "index",
          "type": "uint256"
        }
      ],
      "name": "tokenOfOwnerByIndex",
      "outputs": [
        {
          "internalType": "uint256",
          "name": "tokenId",
          "type": "uint256"
        }
      ],
      "stateMutability": "view",
      "type": "function"
    },
    {
      "inputs": [
        {
          "internalType": "uint256",
          "name": "tokenId",
          "type": "uint256"
        }
      ],
      "name": "tokenURI",
      "outputs": [
        {
          "internalType": "string",
          "name": "",
          "type": "string"
        }
      ],
      "stateMutability": "view",
      "type": "function"
    },
    {
      "inputs": [],
      "name": "totalBatches",
      "outputs": [
        {
          "internalType": "uint256",
          "name": "",
          "type": "uint256"
        }
      ],
      "stateMutability": "view",
      "type": "function"
    },
    {
      "inputs": [],
      "name": "totalSupply",
      "outputs": [
        {
          "internalType": "uint256",
          "name": "",
          "type": "uint256"
        }
      ],
      "stateMutability": "view",
      "type": "function"
    },
    {
      "inputs": [],
      "name": "totalTickets",
      "outputs": [
        {
          "internalType": "uint256",
          "name": "",
          "type": "uint256"
        }
      ],
      "stateMutability": "view",
      "type": "function"
    },
    {
      "inputs": [
        {
          "internalType": "address",
          "name": "",
          "type": "address"
        },
        {
          "internalType": "address",
          "name": "",
          "type": "address"
        },
        {
          "internalType": "uint256",
          "name": "",
          "type": "uint256"
        }
      ],
      "name": "transferFrom",
      "outputs": [],
      "stateMutability": "pure",
      "type": "function"
    },
    {
      "inputs": [
        {
          "internalType": "address",
          "name": "newOwner",
          "type": "address"
        }
      ],
      "name": "transferOwnership",
      "outputs": [],
      "stateMutability": "nonpayable",
      "type": "function"
    }
  ],
  "bytecode": "0x610160604052348015610010575f80fd5b5033604080518082018252601381527f5477656e747953697820536f756c626f756e6400000000000000000000000000602080830191909152825180840190935260018352603160f81b9083015290610069825f6103e5565b610120526100788160016103e5565b61014052815160208084019190912060e052815190820120610100524660a05261010460e05161010051604080517f8b73c3c69bb8fe3d512ecc4cf759cc79239f7b179b0ffacaa9a75d522b39400f60208201529081019290925260608201524660808201523060a08201525f9060c00160405160208183030381529060405280519060200120905090565b60805250503060c0526001600160a01b03811661013b57604051631e4fbdf760e01b81525f60048201526024015b60405180910390fd5b61014481610417565b5060038054339164616263646560d81b91643333b434b560d91b915f91829061016c90610517565b9182905550604080516060810182526001808252426001600160801b0390811660208085019182526001600160a01b03808c168688019081525f89815260058452888120975194518616600160801b02949095169390931786559151949093018054949091166001600160a01b03199094169390931790925560069052209091506101f79084610468565b505f81815260066020526040902061020f9083610468565b50600260045f828254610222919061052f565b92505081905550836001600160a01b03166001827f05a821df87afe79d0f517d06642ce9f1210d4f253ac19808913d1d6ccc84fdbd600260405161026891815260200190565b60405180910390a45f60085f815461027f90610517565b91829055505f85815260096020908152604080832084905580516060810182526001600160a01b038a81168083528285018981528385018c8152888852600a8752858820945185546001600160a01b031916941693909317845551600184015590516002909201919091558352600b90915290209091506103009082610468565b5060405181906001600160a01b038716905f905f80516020612666833981519152908290a45f60085f815461033490610517565b91829055505f85815260096020908152604080832084905580516060810182526001600160a01b038b81168083528285018a81528385018c8152888852600a8752858820945185546001600160a01b031916941693909317845551600184015590516002909201919091558352600b90915290209091506103b59082610468565b5060405181906001600160a01b038816905f905f80516020612666833981519152908290a45050505050506106ec565b5f602083511015610400576103f98361047a565b9050610411565b8161040b84826105da565b5060ff90505b92915050565b600280546001600160a01b038381166001600160a01b0319831681179093556040519116919082907f8be0079c531659141344cd1fd0a4f28419497f9722a3daafe3b4186f6b6457e0905f90a35050565b5f61047383836104b7565b9392505050565b5f80829050601f815111156104a4578260405163305a27a960e01b81526004016101329190610694565b80516104af826106c9565b179392505050565b5f8181526001830160205260408120546104fc57508154600181810184555f848152602080822090930184905584548482528286019093526040902091909155610411565b505f610411565b634e487b7160e01b5f52601160045260245ffd5b5f6001820161052857610528610503565b5060010190565b8082018082111561041157610411610503565b634e487b7160e01b5f52604160045260245ffd5b600181811c9082168061056a57607f821691505b60208210810361058857634e487b7160e01b5f52602260045260245ffd5b50919050565b601f8211156105d557805f5260205f20601f840160051c810160208510156105b35750805b601f840160051c820191505b818110156105d2575f81556001016105bf565b50505b505050565b81516001600160401b038111156105f3576105f3610542565b610607816106018454610556565b8461058e565b6020601f821160018114610639575f83156106225750848201515b5f19600385901b1c1916600184901b1784556105d2565b5f84815260208120601f198516915b828110156106685787850151825560209485019460019092019101610648565b508482101561068557868401515f19600387901b60f8161c191681555b50505050600190811b01905550565b602081525f82518060208401528060208501604085015e5f604082850101526040601f19601f83011684010191505092915050565b80516020808301519190811015610588575f1960209190910360031b1b16919050565b60805160a05160c05160e051610100516101205161014051611f2961073d5f395f61137401525f61134301525f61176a01525f61174201525f61169d01525f6116c701525f6116f10152611f295ff3fe608060405234801561000f575f80fd5b50600436106101e7575f3560e01c806367ac8c0a11610109578063b88d4fde1161009e578063e8a3d4851161006e578063e8a3d48514610560578063e985e9c514610568578063f2fde38b14610576578063f4b2858c14610589575f80fd5b8063b88d4fde146104c8578063c87b56dd146104d6578063dd11247e146104e9578063e4b50cb8146104f2575f80fd5b806384b0196e116100d957806384b0196e146104555780638da5cb5b1461047057806395d89b4114610481578063a22cb465146104ba575f80fd5b806367ac8c0a1461041e57806369ff6abb1461043157806370a082311461043a578063715018a61461044d575f80fd5b80632f745c591161017f5780635ac442821161014f5780635ac442821461037e5780635da54085146103b75780635e3e82b0146103d65780636352211e146103f6575f80fd5b80632f745c591461034557806342842e0e14610337578063432ced04146103585780634f6ccce71461036b575f80fd5b8063095ea7b3116101ba578063095ea7b3146102f057806309fda94b1461030557806318160ddd1461032557806323b872dd14610337575f80fd5b806301ffc9a7146101eb57806303cbd8881461021357806306fdde0314610283578063081812fc146102c5575b5f80fd5b6101fe6101f9366004611837565b61059c565b60405190151581526020015b60405180910390f35b61022661022136600461185e565b61066c565b60408051825180516001600160a01b0390811683526020808301518185015291840151838501529381015180516001600160801b0390811660608501529181015190911660808301529091015190911660a082015260c00161020a565b60408051808201909152601381527f5477656e747953697820536f756c626f756e640000000000000000000000000060208201525b60405161020a91906118a3565b6102d86102d336600461185e565b610741565b6040516001600160a01b03909116815260200161020a565b6103036102fe3660046118d0565b61075b565b005b6103186103133660046118f8565b610774565b60405161020a9190611962565b6008545b60405190815260200161020a565b6103036102fe366004611974565b6103296103533660046118d0565b6107d4565b61030361036636600461185e565b610825565b61032961037936600461185e565b6108e0565b61039161038c36600461185e565b610908565b604080516001600160801b0394851681529390921660208401529082015260600161020a565b6103296103c536600461185e565b5f9081526009602052604090205490565b6103e96103e43660046119ae565b61099c565b60405161020a91906119d7565b6102d861040436600461185e565b5f908152600a60205260409020546001600160a01b031690565b61030361042c366004611aaa565b610a0b565b61032960035481565b610329610448366004611b2d565b610b9f565b610303610bbf565b61045d610bd2565b60405161020a9796959493929190611b46565b6002546001600160a01b03166102d8565b60408051808201909152600581527f545259323600000000000000000000000000000000000000000000000000000060208201526102b8565b6103036102fe366004611bcf565b6103036102fe366004611c08565b6102b86104e436600461185e565b610c30565b61032960045481565b61055361050036600461185e565b60408051606080820183525f8083526020808401829052928401819052938452600a8252928290208251938401835280546001600160a01b03168452600181015491840191909152600201549082015290565b60405161020a9190611cc6565b6102b8610cbf565b6101fe6102d3366004611cf0565b610303610584366004611b2d565b610d1b565b610329610597366004611d21565b610d71565b5f6001600160e01b031982167f80ac58cd0000000000000000000000000000000000000000000000000000000014806105fe57506001600160e01b031982167f5b5e139f00000000000000000000000000000000000000000000000000000000145b8061063257506001600160e01b031982167f780e9d6300000000000000000000000000000000000000000000000000000000145b8061066657507f01ffc9a7000000000000000000000000000000000000000000000000000000006001600160e01b03198316145b92915050565b6106b46040805160a0810182525f9181018281526060820183905260808201929092529081908152604080516060810182525f80825260208281018290529282015291015290565b505f908152600a6020908152604080832081516060808201845282546001600160a01b0390811683526001808501548488018190526002909501548487015293875260058652958490208451918201855280546001600160801b038082168452600160801b9091041682870152909201549094168183015281518083019092529281529081019190915290565b5f6040516341f8b8eb60e11b815260040160405180910390fd5b6040516341f8b8eb60e11b815260040160405180910390fd5b6001600160a01b0383165f908152600b6020526040902060609061079781610f12565b6107a18486611dc3565b11156107c057604051634e23d03560e01b815260040160405180910390fd5b6107cb818585610f1b565b95945050505050565b6001600160a01b0382165f908152600b602052604081206107f481610f12565b831061081357604051634e23d03560e01b815260040160405180910390fd5b61081d8184610fac565b949350505050565b5f8181526007602052604090205415610872576040517fe26b6c3a000000000000000000000000000000000000000000000000000000008152600481018290526024015b60405180910390fd5b5f61087e603c42611dc3565b5f8381526007602052604090208190559050336001600160a01b03167fc2e6e791274f4ca6517553570472956264bb5d03c9b67ea9b0ccd1e3aed81c4183836040516108d4929190918252602082015260400190565b60405180910390a25050565b5f60085482111561090457604051634e23d03560e01b815260040160405180910390fd5b5090565b5f805f60035484111561092e57604051634e23d03560e01b815260040160405180910390fd5b5f848152600560209081526040808320815160608101835281546001600160801b03808216808452600160801b909204168286018190526001909301546001600160a01b03168285015289865260069094529190932091955091935061099390610f12565b93959294505050565b60606003548411156109c157604051634e23d03560e01b815260040160405180910390fd5b5f8481526006602052604090206109d781610f12565b6109e18486611dc3565b1115610a0057604051634e23d03560e01b815260040160405180910390fd5b6107cb818585610fbe565b602081810151604080840151905133606081901b6bffffffffffffffffffffffff191694820194909452603481019290925260548201525f9060740160408051601f1981840301815291815281516020928301205f8181526007909352912054909150801580610a7a57508042105b15610ab4576040517f4f31f9ad00000000000000000000000000000000000000000000000000000000815260048101839052602401610869565b5f610abe85611042565b90505f60085f8154610acf90611dd6565b91829055505f83815260096020908152604080832084905580516060810182526001600160a01b038a81168083528c518386019081528385018a8152888852600a87528588209451855473ffffffffffffffffffffffffffffffffffffffff1916941693909317845551600184015590516002909201919091558352600b9091529020909150610b5f908261128d565b5060405181906001600160a01b038716905f907fddf252ad1be2c89b69c2b068fc378daa952ba7f163c4a11628f55a4df523b3ef908290a4505050505050565b6001600160a01b0381165f908152600b6020526040812061066690610f12565b610bc7611298565b610bd05f6112de565b565b5f6060805f805f6060610be361133c565b610beb61136d565b604080515f808252602082019092527f0f000000000000000000000000000000000000000000000000000000000000009b939a50919850469750309650945092509050565b604080518082018252601e81527f68747470733a2f2f64656d6f2e62696e6172796579656c6162732e78797a00006020808301919091525f848152600a82528381206001015481526005909152919091205460609190610c98906001600160801b031661139a565b604051602001610ca9929190611e05565b6040516020818303038152906040529050919050565b60606040518060400160405280601e81526020017f68747470733a2f2f64656d6f2e62696e6172796579656c6162732e78797a0000815250604051602001610d079190611e6f565b604051602081830303815290604052905090565b610d23611298565b6001600160a01b038116610d65576040517f1e4fbdf70000000000000000000000000000000000000000000000000000000081525f6004820152602401610869565b610d6e816112de565b50565b5f610d7a611298565b5f610d8d6002546001600160a01b031690565b905060035f8154610d9d90611dd6565b918290555091505f839003610dde576040517f33b094a100000000000000000000000000000000000000000000000000000000815260040160405180910390fd5b604080516060810182526001600160801b03808816825242811660208084019182526001600160a01b038087168587019081525f89815260058452878120965194518616600160801b02949095169390931785559151600190940180549490921673ffffffffffffffffffffffffffffffffffffffff199094169390931790556006909152908120905b84811015610ea457610e9b868683818110610e8557610e85611ea7565b905060200201358361128d90919063ffffffff16565b50600101610e68565b508484905060045f828254610eb99190611dc3565b90915550506040518481526001600160a01b038316906001600160801b0388169085907f05a821df87afe79d0f517d06642ce9f1210d4f253ac19808913d1d6ccc84fdbd9060200160405180910390a450509392505050565b5f610666825490565b60608167ffffffffffffffff811115610f3657610f36611a19565b604051908082528060200260200182016040528015610f5f578160200160208202803683370190505b5090505f5b82811015610fa457610f7f85610f7a8387611dc3565b610fac565b828281518110610f9157610f91611ea7565b6020908102919091010152600101610f64565b509392505050565b5f610fb78383611437565b9392505050565b60608167ffffffffffffffff811115610fd957610fd9611a19565b604051908082528060200260200182016040528015611002578160200160208202803683370190505b5090505f5b82811015610fa45761101d85610f7a8387611dc3565b82828151811061102f5761102f611ea7565b6020908102919091010152600101611007565b5f81602001518260400151604051602001611067929190918252602082015260400190565b60408051601f19818403018152918152815160209283012084515f90815260069093529120909150611099818361145d565b6110dc5782516040517fab96bbb1000000000000000000000000000000000000000000000000000000008152600481019190915260248101839052604401610869565b5f828152600960205260409020541561112e5782516040517f57b3f520000000000000000000000000000000000000000000000000000000008152600481019190915260248101839052604401610869565b82515f90815260056020908152604080832060019081015487518489015184517f081d8a101c9e83b52de364500f89e97f08bcca96e40be304d60f3b7a4f1b2be4968101969096526001600160a01b03909216938501849052606085015260808401529092916111b69060a00160405160208183030381529060405280519060200120611474565b6060870151805160208083015160409384015184515f8152909201938490526111fb949390919093845260ff9290921660208401526040830152606082015260800190565b6020604051602081039080840390855afa15801561121b573d5f803e3d5ffd5b505050602060405103519050816001600160a01b0316816001600160a01b031614611285576040517f7ba5ffb50000000000000000000000000000000000000000000000000000000081526001600160a01b03808416600483015282166024820152604401610869565b505050919050565b5f610fb783836114bb565b6002546001600160a01b03163314610bd0576040517f118cdaa7000000000000000000000000000000000000000000000000000000008152336004820152602401610869565b600280546001600160a01b0383811673ffffffffffffffffffffffffffffffffffffffff19831681179093556040519116919082907f8be0079c531659141344cd1fd0a4f28419497f9722a3daafe3b4186f6b6457e0905f90a35050565b60606113687f00000000000000000000000000000000000000000000000000000000000000005f611507565b905090565b60606113687f00000000000000000000000000000000000000000000000000000000000000006001611507565b60605f6113a6836115b0565b60010190505f8167ffffffffffffffff8111156113c5576113c5611a19565b6040519080825280601f01601f1916602001820160405280156113ef576020820181803683370190505b5090508181016020015b5f19017f3031323334353637383961626364656600000000000000000000000000000000600a86061a8153600a85049450846113f957509392505050565b5f825f01828154811061144c5761144c611ea7565b905f5260205f200154905092915050565b5f8181526001830160205260408120541515610fb7565b5f610666611480611691565b836040517f19010000000000000000000000000000000000000000000000000000000000008152600281019290925260228201526042902090565b5f81815260018301602052604081205461150057508154600181810184555f848152602080822090930184905584548482528286019093526040902091909155610666565b505f610666565b606060ff83146115215761151a836117ba565b9050610666565b81805461152d90611ebb565b80601f016020809104026020016040519081016040528092919081815260200182805461155990611ebb565b80156115a45780601f1061157b576101008083540402835291602001916115a4565b820191905f5260205f20905b81548152906001019060200180831161158757829003601f168201915b50505050509050610666565b5f807a184f03e93ff9f4daa797ed6e38ed64bf6a1f01000000000000000083106115f8577a184f03e93ff9f4daa797ed6e38ed64bf6a1f010000000000000000830492506040015b6d04ee2d6d415b85acef81000000008310611624576d04ee2d6d415b85acef8100000000830492506020015b662386f26fc10000831061164257662386f26fc10000830492506010015b6305f5e100831061165a576305f5e100830492506008015b612710831061166e57612710830492506004015b60648310611680576064830492506002015b600a83106106665760010192915050565b5f306001600160a01b037f0000000000000000000000000000000000000000000000000000000000000000161480156116e957507f000000000000000000000000000000000000000000000000000000000000000046145b1561171357507f000000000000000000000000000000000000000000000000000000000000000090565b611368604080517f8b73c3c69bb8fe3d512ecc4cf759cc79239f7b179b0ffacaa9a75d522b39400f60208201527f0000000000000000000000000000000000000000000000000000000000000000918101919091527f000000000000000000000000000000000000000000000000000000000000000060608201524660808201523060a08201525f9060c00160405160208183030381529060405280519060200120905090565b60605f6117c6836117f7565b6040805160208082528183019092529192505f91906020820181803683375050509182525060208101929092525090565b5f60ff8216601f811115610666576040517fb3512b0c00000000000000000000000000000000000000000000000000000000815260040160405180910390fd5b5f60208284031215611847575f80fd5b81356001600160e01b031981168114610fb7575f80fd5b5f6020828403121561186e575f80fd5b5035919050565b5f81518084528060208401602086015e5f602082860101526020601f19601f83011685010191505092915050565b602081525f610fb76020830184611875565b80356001600160a01b03811681146118cb575f80fd5b919050565b5f80604083850312156118e1575f80fd5b6118ea836118b5565b946020939093013593505050565b5f805f6060848603121561190a575f80fd5b611913846118b5565b95602085013595506040909401359392505050565b5f8151808452602084019350602083015f5b8281101561195857815186526020958601959091019060010161193a565b5093949350505050565b602081525f610fb76020830184611928565b5f805f60608486031215611986575f80fd5b61198f846118b5565b925061199d602085016118b5565b929592945050506040919091013590565b5f805f606084860312156119c0575f80fd5b505081359360208301359350604090920135919050565b602080825282518282018190525f918401906040840190835b81811015611a0e5783518352602093840193909201916001016119f0565b509095945050505050565b634e487b7160e01b5f52604160045260245ffd5b6040516080810167ffffffffffffffff81118282101715611a5057611a50611a19565b60405290565b6040516060810167ffffffffffffffff81118282101715611a5057611a50611a19565b604051601f8201601f1916810167ffffffffffffffff81118282101715611aa257611aa2611a19565b604052919050565b5f81830360c081128015611abc575f80fd5b50611ac5611a2d565b8335815260208085013590820152604080850135908201526060605f1983011215611aee575f80fd5b611af6611a56565b9150606084013560ff81168114611b0b575f80fd5b82526080840135602083015260a0909301356040820152606083015250919050565b5f60208284031215611b3d575f80fd5b610fb7826118b5565b7fff000000000000000000000000000000000000000000000000000000000000008816815260e060208201525f611b8060e0830189611875565b8281036040840152611b928189611875565b90508660608401526001600160a01b03861660808401528460a084015282810360c0840152611bc18185611928565b9a9950505050505050505050565b5f8060408385031215611be0575f80fd5b611be9836118b5565b915060208301358015158114611bfd575f80fd5b809150509250929050565b5f805f8060808587031215611c1b575f80fd5b611c24856118b5565b9350611c32602086016118b5565b925060408501359150606085013567ffffffffffffffff811115611c54575f80fd5b8501601f81018713611c64575f80fd5b803567ffffffffffffffff811115611c7e57611c7e611a19565b611c91601f8201601f1916602001611a79565b818152886020838501011115611ca5575f80fd5b816020840160208301375f6020838301015280935050505092959194509250565b81516001600160a01b03168152602080830151908201526040808301519082015260608101610666565b5f8060408385031215611d01575f80fd5b611d0a836118b5565b9150611d18602084016118b5565b90509250929050565b5f805f60408486031215611d33575f80fd5b83356001600160801b0381168114611d49575f80fd5b9250602084013567ffffffffffffffff811115611d64575f80fd5b8401601f81018613611d74575f80fd5b803567ffffffffffffffff811115611d8a575f80fd5b8660208260051b8401011115611d9e575f80fd5b939660209190910195509293505050565b634e487b7160e01b5f52601160045260245ffd5b8082018082111561066657610666611daf565b5f60018201611de757611de7611daf565b5060010190565b5f81518060208401855e5f93019283525090919050565b5f611e108285611dee565b7f2f7362742f6d657461646174612f0000000000000000000000000000000000008152611e40600e820185611dee565b7f2e6a736f6e000000000000000000000000000000000000000000000000000000815260050195945050505050565b5f611e7a8284611dee565b7f2f7362742f636f6e74726163745552492e6a736f6e000000000000000000000081526015019392505050565b634e487b7160e01b5f52603260045260245ffd5b600181811c90821680611ecf57607f821691505b602082108103611eed57634e487b7160e01b5f52602260045260245ffd5b5091905056fea2646970667358221220bdcbc78bed8a9edbced600cf762846620baa396d32dfd8deffdd254b8470605b64736f6c634300081a0033ddf252ad1be2c89b69c2b068fc378daa952ba7f163c4a11628f55a4df523b3ef",
  "linkReferences": {},
  "deployedLinkReferences": {}
}