{
  "_format": "hh-sol-artifact-1",
  "contractName": "TRY26",
  "sourceName": "contracts/TRY26.sol",
  "abi": [
    {
      "inputs": [],
      "stateMutability": "nonpayable",
      "type": "constructor"
    },
    {
      "inputs": [],
      "name": "IndexOutOfBounds",
      "type": "error"
    },
    {
      "inputs": [],
      "name": "InvalidBatch",
      "type": "error"
    },
    {
      "inputs": [],
      "name": "InvalidShortString",
      "type": "error"
    },
    {
      "inputs": [
        {
          "internalType": "address",
          "name": "creator",
          "type": "address"
        },
        {
          "internalType": "address",
          "name": "signer",
          "type": "address"
        }
      ],
      "name": "InvalidSigner",
      "type": "error"
    },
    {
      "inputs": [],
      "name": "MethodNotAllowed",
      "type": "error"
    },
    {
      "inputs": [
        {
          "internalType": "address",
          "name": "owner",
          "type": "address"
        }
      ],
      "name": "OwnableInvalidOwner",
      "type": "error"
    },
    {
      "inputs": [
        {
          "internalType": "address",
          "name": "account",
          "type": "address"
        }
      ],
      "name": "OwnableUnauthorizedAccount",
      "type": "error"
    },
    {
      "inputs": [
        {
          "internalType": "bytes32",
          "name": "reservation",
          "type": "bytes32"
        }
      ],
      "name": "ReservationNotChanged",
      "type": "error"
    },
    {
      "inputs": [
        {
          "internalType": "bytes32",
          "name": "reservation",
          "type": "bytes32"
        }
      ],
      "name": "ReservationNotFound",
      "type": "error"
    },
    {
      "inputs": [
        {
          "internalType": "string",
          "name": "str",
          "type": "string"
        }
      ],
      "name": "StringTooLong",
      "type": "error"
    },
    {
      "inputs": [
        {
          "internalType": "uint256",
          "name": "batchId",
          "type": "uint256"
        },
        {
          "internalType": "bytes32",
          "name": "ticketId",
          "type": "bytes32"
        }
      ],
      "name": "TicketAlreadyClaimed",
      "type": "error"
    },
    {
      "inputs": [
        {
          "internalType": "uint256",
          "name": "batchId",
          "type": "uint256"
        },
        {
          "internalType": "bytes32",
          "name": "ticketId",
          "type": "bytes32"
        }
      ],
      "name": "TicketNotFound",
      "type": "error"
    },
    {
      "anonymous": false,
      "inputs": [
        {
          "indexed": true,
          "internalType": "address",
          "name": "owner",
          "type": "address"
        },
        {
          "indexed": true,
          "internalType": "address",
          "name": "approved",
          "type": "address"
        },
        {
          "indexed": true,
          "internalType": "uint256",
          "name": "tokenId",
          "type": "uint256"
        }
      ],
      "name": "Approval",
      "type": "event"
    },
    {
      "anonymous": false,
      "inputs": [
        {
          "indexed": true,
          "internalType": "address",
          "name": "owner",
          "type": "address"
        },
        {
          "indexed": true,
          "internalType": "address",
          "name": "operator",
          "type": "address"
        },
        {
          "indexed": false,
          "internalType": "bool",
          "name": "approved",
          "type": "bool"
        }
      ],
      "name": "ApprovalForAll",
      "type": "event"
    },
    {
      "anonymous": false,
      "inputs": [
        {
          "indexed": true,
          "internalType": "uint256",
          "name": "batchId",
          "type": "uint256"
        },
        {
          "indexed": true,
          "internalType": "uint128",
          "name": "metadataId",
          "type": "uint128"
        },
        {
          "indexed": true,
          "internalType": "address",
          "name": "creator",
          "type": "address"
        },
        {
          "indexed": false,
          "internalType": "uint256",
          "name": "nbTickets",
          "type": "uint256"
        }
      ],
      "name": "BatchPreMinted",
      "type": "event"
    },
    {
      "anonymous": false,
      "inputs": [],
      "name": "EIP712DomainChanged",
      "type": "event"
    },
    {
      "anonymous": false,
      "inputs": [
        {
          "indexed": true,
          "internalType": "address",
          "name": "previousOwner",
          "type": "address"
        },
        {
          "indexed": true,
          "internalType": "address",
          "name": "newOwner",
          "type": "address"
        }
      ],
      "name": "OwnershipTransferred",
      "type": "event"
    },
    {
      "anonymous": false,
      "inputs": [
        {
          "indexed": true,
          "internalType": "address",
          "name": "owner",
          "type": "address"
        },
        {
          "indexed": false,
          "internalType": "bytes32",
          "name": "reservation",
          "type": "bytes32"
        },
        {
          "indexed": false,
          "internalType": "uint256",
          "name": "unlock",
          "type": "uint256"
        }
      ],
      "name": "TicketReserved",
      "type": "event"
    },
    {
      "anonymous": false,
      "inputs": [
        {
          "indexed": true,
          "internalType": "address",
          "name": "from",
          "type": "address"
        },
        {
          "indexed": true,
          "internalType": "address",
          "name": "to",
          "type": "address"
        },
        {
          "indexed": true,
          "internalType": "uint256",
          "name": "tokenId",
          "type": "uint256"
        }
      ],
      "name": "Transfer",
      "type": "event"
    },
    {
      "inputs": [
        {
          "internalType": "address",
          "name": "",
          "type": "address"
        },
        {
          "internalType": "uint256",
          "name": "",
          "type": "uint256"
        }
      ],
      "name": "approve",
      "outputs": [],
      "stateMutability": "pure",
      "type": "function"
    },
    {
      "inputs": [
        {
          "internalType": "address",
          "name": "target",
          "type": "address"
        }
      ],
      "name": "balanceOf",
      "outputs": [
        {
          "internalType": "uint256",
          "name": "",
          "type": "uint256"
        }
      ],
      "stateMutability": "view",
      "type": "function"
    },
    {
      "inputs": [
        {
          "components": [
            {
              "internalType": "uint256",
              "name": "batchId",
              "type": "uint256"
            },
            {
              "internalType": "bytes32",
              "name": "batchSecret",
              "type": "bytes32"
            },
            {
              "internalType": "bytes32",
              "name": "ticketSecret",
              "type": "bytes32"
            },
            {
              "components": [
                {
                  "internalType": "uint8",
                  "name": "v",
                  "type": "uint8"
                },
                {
                  "internalType": "bytes32",
                  "name": "r",
                  "type": "bytes32"
                },
                {
                  "internalType": "bytes32",
                  "name": "s",
                  "type": "bytes32"
                }
              ],
              "internalType": "struct TRY26.Signature",
              "name": "signature",
              "type": "tuple"
            }
          ],
          "internalType": "struct TRY26.Ticket",
          "name": "ticket",
          "type": "tuple"
        }
      ],
      "name": "claim",
      "outputs": [],
      "stateMutability": "nonpayable",
      "type": "function"
    },
    {
      "inputs": [],
      "name": "contractURI",
      "outputs": [
        {
          "internalType": "string",
          "name": "",
          "type": "string"
        }
      ],
      "stateMutability": "pure",
      "type": "function"
    },
    {
      "inputs": [],
      "name": "eip712Domain",
      "outputs": [
        {
          "internalType": "bytes1",
          "name": "fields",
          "type": "bytes1"
        },
        {
          "internalType": "string",
          "name": "name",
          "type": "string"
        },
        {
          "internalType": "string",
          "name": "version",
          "type": "string"
        },
        {
          "internalType": "uint256",
          "name": "chainId",
          "type": "uint256"
        },
        {
          "internalType": "address",
          "name": "verifyingContract",
          "type": "address"
        },
        {
          "internalType": "bytes32",
          "name": "salt",
          "type": "bytes32"
        },
        {
          "internalType": "uint256[]",
          "name": "extensions",
          "type": "uint256[]"
        }
      ],
      "stateMutability": "view",
      "type": "function"
    },
    {
      "inputs": [
        {
          "internalType": "uint256",
          "name": "",
          "type": "uint256"
        }
      ],
      "name": "getApproved",
      "outputs": [
        {
          "internalType": "address",
          "name": "",
          "type": "address"
        }
      ],
      "stateMutability": "pure",
      "type": "function"
    },
    {
      "inputs": [
        {
          "internalType": "uint256",
          "name": "batchId",
          "type": "uint256"
        }
      ],
      "name": "getBatch",
      "outputs": [
        {
          "components": [
            {
              "internalType": "uint128",
              "name": "metadataId",
              "type": "uint128"
            },
            {
              "internalType": "uint128",
              "name": "createdAt",
              "type": "uint128"
            },
            {
              "internalType": "address",
              "name": "creator",
              "type": "address"
            },
            {
              "internalType": "uint96",
              "name": "totalTickets",
              "type": "uint96"
            }
          ],
          "internalType": "struct TRY26.Batch",
          "name": "batch",
          "type": "tuple"
        }
      ],
      "stateMutability": "view",
      "type": "function"
    },
    {
      "inputs": [
        {
          "internalType": "uint256",
          "name": "tokenId",
          "type": "uint256"
        }
      ],
      "name": "getFullToken",
      "outputs": [
        {
          "components": [
            {
              "components": [
                {
                  "internalType": "address",
                  "name": "owner",
                  "type": "address"
                },
                {
                  "internalType": "uint256",
                  "name": "batchId",
                  "type": "uint256"
                },
                {
                  "internalType": "bytes32",
                  "name": "ticketId",
                  "type": "bytes32"
                }
              ],
              "internalType": "struct TRY26.Token",
              "name": "token",
              "type": "tuple"
            },
            {
              "components": [
                {
                  "internalType": "uint128",
                  "name": "metadataId",
                  "type": "uint128"
                },
                {
                  "internalType": "uint128",
                  "name": "createdAt",
                  "type": "uint128"
                },
                {
                  "internalType": "address",
                  "name": "creator",
                  "type": "address"
                },
                {
                  "internalType": "uint96",
                  "name": "totalTickets",
                  "type": "uint96"
                }
              ],
              "internalType": "struct TRY26.Batch",
              "name": "batch",
              "type": "tuple"
            }
          ],
          "internalType": "struct TRY26.FullToken",
          "name": "",
          "type": "tuple"
        }
      ],
      "stateMutability": "view",
      "type": "function"
    },
    {
      "inputs": [
        {
          "internalType": "uint256",
          "name": "tokenId",
          "type": "uint256"
        }
      ],
      "name": "getToken",
      "outputs": [
        {
          "components": [
            {
              "internalType": "address",
              "name": "owner",
              "type": "address"
            },
            {
              "internalType": "uint256",
              "name": "batchId",
              "type": "uint256"
            },
            {
              "internalType": "bytes32",
              "name": "ticketId",
              "type": "bytes32"
            }
          ],
          "internalType": "struct TRY26.Token",
          "name": "",
          "type": "tuple"
        }
      ],
      "stateMutability": "view",
      "type": "function"
    },
    {
      "inputs": [
        {
          "internalType": "address",
          "name": "",
          "type": "address"
        },
        {
          "internalType": "address",
          "name": "",
          "type": "address"
        }
      ],
      "name": "isApprovedForAll",
      "outputs": [
        {
          "internalType": "bool",
          "name": "",
          "type": "bool"
        }
      ],
      "stateMutability": "pure",
      "type": "function"
    },
    {
      "inputs": [],
      "name": "name",
      "outputs": [
        {
          "internalType": "string",
          "name": "",
          "type": "string"
        }
      ],
      "stateMutability": "pure",
      "type": "function"
    },
    {
      "inputs": [],
      "name": "owner",
      "outputs": [
        {
          "internalType": "address",
          "name": "",
          "type": "address"
        }
      ],
      "stateMutability": "view",
      "type": "function"
    },
    {
      "inputs": [
        {
          "internalType": "uint256",
          "name": "tokenId",
          "type": "uint256"
        }
      ],
      "name": "ownerOf",
      "outputs": [
        {
          "internalType": "address",
          "name": "",
          "type": "address"
        }
      ],
      "stateMutability": "view",
      "type": "function"
    },
    {
      "inputs": [
        {
          "internalType": "uint128",
          "name": "metadataId",
          "type": "uint128"
        },
        {
          "internalType": "bytes32[]",
          "name": "tickets",
          "type": "bytes32[]"
        }
      ],
      "name": "preMint",
      "outputs": [],
      "stateMutability": "nonpayable",
      "type": "function"
    },
    {
      "inputs": [],
      "name": "renounceOwnership",
      "outputs": [],
      "stateMutability": "nonpayable",
      "type": "function"
    },
    {
      "inputs": [
        {
          "internalType": "bytes32",
          "name": "reservation",
          "type": "bytes32"
        }
      ],
      "name": "reserve",
      "outputs": [],
      "stateMutability": "nonpayable",
      "type": "function"
    },
    {
      "inputs": [
        {
          "internalType": "address",
          "name": "",
          "type": "address"
        },
        {
          "internalType": "address",
          "name": "",
          "type": "address"
        },
        {
          "internalType": "uint256",
          "name": "",
          "type": "uint256"
        }
      ],
      "name": "safeTransferFrom",
      "outputs": [],
      "stateMutability": "pure",
      "type": "function"
    },
    {
      "inputs": [
        {
          "internalType": "address",
          "name": "",
          "type": "address"
        },
        {
          "internalType": "address",
          "name": "",
          "type": "address"
        },
        {
          "internalType": "uint256",
          "name": "",
          "type": "uint256"
        },
        {
          "internalType": "bytes",
          "name": "",
          "type": "bytes"
        }
      ],
      "name": "safeTransferFrom",
      "outputs": [],
      "stateMutability": "pure",
      "type": "function"
    },
    {
      "inputs": [
        {
          "internalType": "address",
          "name": "",
          "type": "address"
        },
        {
          "internalType": "bool",
          "name": "",
          "type": "bool"
        }
      ],
      "name": "setApprovalForAll",
      "outputs": [],
      "stateMutability": "pure",
      "type": "function"
    },
    {
      "inputs": [
        {
          "internalType": "bytes4",
          "name": "interfaceId",
          "type": "bytes4"
        }
      ],
      "name": "supportsInterface",
      "outputs": [
        {
          "internalType": "bool",
          "name": "",
          "type": "bool"
        }
      ],
      "stateMutability": "view",
      "type": "function"
    },
    {
      "inputs": [],
      "name": "symbol",
      "outputs": [
        {
          "internalType": "string",
          "name": "",
          "type": "string"
        }
      ],
      "stateMutability": "pure",
      "type": "function"
    },
    {
      "inputs": [
        {
          "internalType": "uint256",
          "name": "batchId",
          "type": "uint256"
        },
        {
          "internalType": "uint256",
          "name": "start",
          "type": "uint256"
        },
        {
          "internalType": "uint256",
          "name": "size",
          "type": "uint256"
        }
      ],
      "name": "ticketsByBatch",
      "outputs": [
        {
          "internalType": "bytes32[]",
          "name": "tickets",
          "type": "bytes32[]"
        }
      ],
      "stateMutability": "view",
      "type": "function"
    },
    {
      "inputs": [
        {
          "internalType": "uint256",
          "name": "index",
          "type": "uint256"
        }
      ],
      "name": "tokenByIndex",
      "outputs": [
        {
          "internalType": "uint256",
          "name": "",
          "type": "uint256"
        }
      ],
      "stateMutability": "view",
      "type": "function"
    },
    {
      "inputs": [
        {
          "internalType": "bytes32",
          "name": "ticketId",
          "type": "bytes32"
        }
      ],
      "name": "tokenIdByTicketId",
      "outputs": [
        {
          "internalType": "uint256",
          "name": "tokenId",
          "type": "uint256"
        }
      ],
      "stateMutability": "view",
      "type": "function"
    },
    {
      "inputs": [
        {
          "internalType": "address",
          "name": "target",
          "type": "address"
        },
        {
          "internalType": "uint256",
          "name": "start",
          "type": "uint256"
        },
        {
          "internalType": "uint256",
          "name": "size",
          "type": "uint256"
        }
      ],
      "name": "tokenIdsByOwner",
      "outputs": [
        {
          "internalType": "uint256[]",
          "name": "tokenIds",
          "type": "uint256[]"
        }
      ],
      "stateMutability": "view",
      "type": "function"
    },
    {
      "inputs": [
        {
          "internalType": "address",
          "name": "target",
          "type": "address"
        },
        {
          "internalType": "uint256",
          "name": "index",
          "type": "uint256"
        }
      ],
      "name": "tokenOfOwnerByIndex",
      "outputs": [
        {
          "internalType": "uint256",
          "name": "tokenId",
          "type": "uint256"
        }
      ],
      "stateMutability": "view",
      "type": "function"
    },
    {
      "inputs": [
        {
          "internalType": "uint256",
          "name": "tokenId",
          "type": "uint256"
        }
      ],
      "name": "tokenURI",
      "outputs": [
        {
          "internalType": "string",
          "name": "",
          "type": "string"
        }
      ],
      "stateMutability": "view",
      "type": "function"
    },
    {
      "inputs": [],
      "name": "totalBatches",
      "outputs": [
        {
          "internalType": "uint256",
          "name": "",
          "type": "uint256"
        }
      ],
      "stateMutability": "view",
      "type": "function"
    },
    {
      "inputs": [],
      "name": "totalSupply",
      "outputs": [
        {
          "internalType": "uint256",
          "name": "",
          "type": "uint256"
        }
      ],
      "stateMutability": "view",
      "type": "function"
    },
    {
      "inputs": [],
      "name": "totalTickets",
      "outputs": [
        {
          "internalType": "uint256",
          "name": "",
          "type": "uint256"
        }
      ],
      "stateMutability": "view",
      "type": "function"
    },
    {
      "inputs": [
        {
          "internalType": "address",
          "name": "",
          "type": "address"
        },
        {
          "internalType": "address",
          "name": "",
          "type": "address"
        },
        {
          "internalType": "uint256",
          "name": "",
          "type": "uint256"
        }
      ],
      "name": "transferFrom",
      "outputs": [],
      "stateMutability": "pure",
      "type": "function"
    },
    {
      "inputs": [
        {
          "internalType": "address",
          "name": "newOwner",
          "type": "address"
        }
      ],
      "name": "transferOwnership",
      "outputs": [],
      "stateMutability": "nonpayable",
      "type": "function"
    }
  ],
  "bytecode": "0x610160604052348015610010575f80fd5b5033604080518082018252601381527f5477656e747953697820536f756c626f756e6400000000000000000000000000602080830191909152825180840190935260018352603160f81b9083015290610069825f6103ef565b610120526100788160016103ef565b61014052815160208084019190912060e052815190820120610100524660a05261010460e05161010051604080517f8b73c3c69bb8fe3d512ecc4cf759cc79239f7b179b0ffacaa9a75d522b39400f60208201529081019290925260608201524660808201523060a08201525f9060c00160405160208183030381529060405280519060200120905090565b60805250503060c0526001600160a01b03811661013b57604051631e4fbdf760e01b81525f60048201526024015b60405180910390fd5b61014481610421565b5060038054339164616263646560d81b91643333b434b560d91b915f91829061016c90610521565b9182905550604080516080810182526001808252426001600160801b0390811660208085019182526001600160a01b03808c168688019081526002606088019081525f8a815260058552898120985195518716600160801b02959096169490941787555192516001600160601b0316600160a01b02921691909117939092019290925560069052209091506102019084610472565b505f8181526006602052604090206102199083610472565b50600260045f82825461022c9190610539565b92505081905550836001600160a01b03166001827f05a821df87afe79d0f517d06642ce9f1210d4f253ac19808913d1d6ccc84fdbd600260405161027291815260200190565b60405180910390a45f60085f815461028990610521565b91829055505f85815260096020908152604080832084905580516060810182526001600160a01b038a81168083528285018981528385018c8152888852600a8752858820945185546001600160a01b031916941693909317845551600184015590516002909201919091558352600b909152902090915061030a9082610472565b5060405181906001600160a01b038716905f905f80516020612700833981519152908290a45f60085f815461033e90610521565b91829055505f85815260096020908152604080832084905580516060810182526001600160a01b038b81168083528285018a81528385018c8152888852600a8752858820945185546001600160a01b031916941693909317845551600184015590516002909201919091558352600b90915290209091506103bf9082610472565b5060405181906001600160a01b038816905f905f80516020612700833981519152908290a45050505050506106f6565b5f60208351101561040a5761040383610484565b905061041b565b8161041584826105e4565b5060ff90505b92915050565b600280546001600160a01b038381166001600160a01b0319831681179093556040519116919082907f8be0079c531659141344cd1fd0a4f28419497f9722a3daafe3b4186f6b6457e0905f90a35050565b5f61047d83836104c1565b9392505050565b5f80829050601f815111156104ae578260405163305a27a960e01b8152600401610132919061069e565b80516104b9826106d3565b179392505050565b5f81815260018301602052604081205461050657508154600181810184555f84815260208082209093018490558454848252828601909352604090209190915561041b565b505f61041b565b634e487b7160e01b5f52601160045260245ffd5b5f600182016105325761053261050d565b5060010190565b8082018082111561041b5761041b61050d565b634e487b7160e01b5f52604160045260245ffd5b600181811c9082168061057457607f821691505b60208210810361059257634e487b7160e01b5f52602260045260245ffd5b50919050565b601f8211156105df57805f5260205f20601f840160051c810160208510156105bd5750805b601f840160051c820191505b818110156105dc575f81556001016105c9565b50505b505050565b81516001600160401b038111156105fd576105fd61054c565b6106118161060b8454610560565b84610598565b6020601f821160018114610643575f831561062c5750848201515b5f19600385901b1c1916600184901b1784556105dc565b5f84815260208120601f198516915b828110156106725787850151825560209485019460019092019101610652565b508482101561068f57868401515f19600387901b60f8161c191681555b50505050600190811b01905550565b602081525f82518060208401528060208501604085015e5f604082850101526040601f19601f83011684010191505092915050565b80516020808301519190811015610592575f1960209190910360031b1b16919050565b60805160a05160c05160e051610100516101205161014051611fb96107475f395f6112fe01525f6112cd01525f6116f401525f6116cc01525f61162701525f61165101525f61167b0152611fb95ff3fe608060405234801561000f575f80fd5b50600436106101e7575f3560e01c806367ac8c0a11610109578063b88d4fde1161009e578063e8a3d4851161006e578063e8a3d485146104f7578063e985e9c5146104ff578063f2fde38b1461050d578063f4b2858c14610520575f80fd5b8063b88d4fde1461045f578063c87b56dd1461046d578063dd11247e14610480578063e4b50cb814610489575f80fd5b806384b0196e116100d957806384b0196e146103ec5780638da5cb5b1461040757806395d89b4114610418578063a22cb46514610451575f80fd5b806367ac8c0a146103b557806369ff6abb146103c857806370a08231146103d1578063715018a6146103e4575f80fd5b80632f745c591161017f5780635ac442821161014f5780635ac442821461032e5780635da540851461034e5780635e3e82b01461036d5780636352211e1461038d575f80fd5b80632f745c59146102f557806342842e0e146102e7578063432ced04146103085780634f6ccce71461031b575f80fd5b8063095ea7b3116101ba578063095ea7b3146102a057806309fda94b146102b557806318160ddd146102d557806323b872dd146102e7575f80fd5b806301ffc9a7146101eb57806303cbd8881461021357806306fdde0314610233578063081812fc14610275575b5f80fd5b6101fe6101f93660046117c1565b610533565b60405190151581526020015b60405180910390f35b6102266102213660046117e8565b610603565b60405161020a91906117ff565b60408051808201909152601381527f5477656e747953697820536f756c626f756e640000000000000000000000000060208201525b60405161020a91906118b7565b6102886102833660046117e8565b6106fc565b6040516001600160a01b03909116815260200161020a565b6102b36102ae3660046118e4565b610716565b005b6102c86102c336600461190c565b61072f565b60405161020a9190611976565b6008545b60405190815260200161020a565b6102b36102ae366004611988565b6102d96103033660046118e4565b61078f565b6102b36103163660046117e8565b6107e0565b6102d96103293660046117e8565b61089b565b61034161033c3660046117e8565b6108c3565b60405161020a91906119c2565b6102d961035c3660046117e8565b5f9081526009602052604090205490565b61038061037b366004611a1a565b610975565b60405161020a9190611a43565b61028861039b3660046117e8565b5f908152600a60205260409020546001600160a01b031690565b6102b36103c3366004611b16565b6109e4565b6102d960035481565b6102d96103df366004611b99565b610b78565b6102b3610b98565b6103f4610bab565b60405161020a9796959493929190611bb2565b6002546001600160a01b0316610288565b60408051808201909152600581527f54525932360000000000000000000000000000000000000000000000000000006020820152610268565b6102b36102ae366004611c3b565b6102b36102ae366004611c74565b61026861047b3660046117e8565b610c09565b6102d960045481565b6104ea6104973660046117e8565b60408051606080820183525f8083526020808401829052928401819052938452600a8252928290208251938401835280546001600160a01b03168452600181015491840191909152600201549082015290565b60405161020a9190611d32565b610268610c7b565b6101fe610283366004611d5c565b6102b361051b366004611b99565b610cba565b6102b361052e366004611d8d565b610d10565b5f6001600160e01b031982167f80ac58cd00000000000000000000000000000000000000000000000000000000148061059557506001600160e01b031982167f5b5e139f00000000000000000000000000000000000000000000000000000000145b806105c957506001600160e01b031982167f780e9d6300000000000000000000000000000000000000000000000000000000145b806105fd57507f01ffc9a7000000000000000000000000000000000000000000000000000000006001600160e01b03198316145b92915050565b6106526040805160a0810182525f9181018281526060820183905260808201929092529081908152604080516080810182525f8082526020828101829052928201819052606082015291015290565b505f908152600a6020908152604080832081516060808201845282546001600160a01b039081168352600180850154848801819052600290950154848701529387526005865295849020845160808101865281546001600160801b038082168352600160801b909104168188015293015495861683850152600160a01b9095046bffffffffffffffffffffffff169482019490945281518083019092529281529081019190915290565b5f6040516341f8b8eb60e11b815260040160405180910390fd5b6040516341f8b8eb60e11b815260040160405180910390fd5b6001600160a01b0383165f908152600b6020526040902060609061075281610e9c565b61075c8486611e2f565b111561077b57604051634e23d03560e01b815260040160405180910390fd5b610786818585610ea5565b95945050505050565b6001600160a01b0382165f908152600b602052604081206107af81610e9c565b83106107ce57604051634e23d03560e01b815260040160405180910390fd5b6107d88184610f36565b949350505050565b5f818152600760205260409020541561082d576040517fe26b6c3a000000000000000000000000000000000000000000000000000000008152600481018290526024015b60405180910390fd5b5f610839603c42611e2f565b5f8381526007602052604090208190559050336001600160a01b03167fc2e6e791274f4ca6517553570472956264bb5d03c9b67ea9b0ccd1e3aed81c41838360405161088f929190918252602082015260400190565b60405180910390a25050565b5f6008548211156108bf57604051634e23d03560e01b815260040160405180910390fd5b5090565b604080516080810182525f80825260208201819052918101829052606081019190915260035482111561090957604051634e23d03560e01b815260040160405180910390fd5b505f90815260056020908152604091829020825160808101845281546001600160801b038082168352600160801b9091041692810192909252600101546001600160a01b03811692820192909252600160a01b9091046bffffffffffffffffffffffff16606082015290565b606060035484111561099a57604051634e23d03560e01b815260040160405180910390fd5b5f8481526006602052604090206109b081610e9c565b6109ba8486611e2f565b11156109d957604051634e23d03560e01b815260040160405180910390fd5b610786818585610f48565b602081810151604080840151905133606081901b6bffffffffffffffffffffffff191694820194909452603481019290925260548201525f9060740160408051601f1981840301815291815281516020928301205f8181526007909352912054909150801580610a5357508042105b15610a8d576040517f4f31f9ad00000000000000000000000000000000000000000000000000000000815260048101839052602401610824565b5f610a9785610fcc565b90505f60085f8154610aa890611e42565b91829055505f83815260096020908152604080832084905580516060810182526001600160a01b038a81168083528c518386019081528385018a8152888852600a87528588209451855473ffffffffffffffffffffffffffffffffffffffff1916941693909317845551600184015590516002909201919091558352600b9091529020909150610b389082611217565b5060405181906001600160a01b038716905f907fddf252ad1be2c89b69c2b068fc378daa952ba7f163c4a11628f55a4df523b3ef908290a4505050505050565b6001600160a01b0381165f908152600b602052604081206105fd90610e9c565b610ba0611222565b610ba95f611268565b565b5f6060805f805f6060610bbc6112c6565b610bc46112f7565b604080515f808252602082019092527f0f000000000000000000000000000000000000000000000000000000000000009b939a50919850469750309650945092509050565b6060604051806060016040528060248152602001611f60602491395f838152600a602090815260408083206001015483526005909152902054610c54906001600160801b0316611324565b604051602001610c65929190611e71565b6040516020818303038152906040529050919050565b6060604051806060016040528060248152602001611f6060249139604051602001610ca69190611edb565b604051602081830303815290604052905090565b610cc2611222565b6001600160a01b038116610d04576040517f1e4fbdf70000000000000000000000000000000000000000000000000000000081525f6004820152602401610824565b610d0d81611268565b50565b5f819003610d4a576040517f33b094a100000000000000000000000000000000000000000000000000000000815260040160405180910390fd5b5f60035f8154610d5990611e42565b918290555090505f33604080516080810182526001600160801b03808916825242811660208084019182526001600160a01b038087168587019081526bffffffffffffffffffffffff808c16606088019081525f8c815260058652898120985196518816600160801b02969097169590951787559051935116600160a01b0292169190911760019093019290925560069091529081209192505b84811015610e2f57610e26868683818110610e1057610e10611f13565b905060200201358361121790919063ffffffff16565b50600101610df3565b508484905060045f828254610e449190611e2f565b90915550506040518481526001600160a01b038316906001600160801b0388169085907f05a821df87afe79d0f517d06642ce9f1210d4f253ac19808913d1d6ccc84fdbd9060200160405180910390a4505050505050565b5f6105fd825490565b60608167ffffffffffffffff811115610ec057610ec0611a85565b604051908082528060200260200182016040528015610ee9578160200160208202803683370190505b5090505f5b82811015610f2e57610f0985610f048387611e2f565b610f36565b828281518110610f1b57610f1b611f13565b6020908102919091010152600101610eee565b509392505050565b5f610f4183836113c1565b9392505050565b60608167ffffffffffffffff811115610f6357610f63611a85565b604051908082528060200260200182016040528015610f8c578160200160208202803683370190505b5090505f5b82811015610f2e57610fa785610f048387611e2f565b828281518110610fb957610fb9611f13565b6020908102919091010152600101610f91565b5f81602001518260400151604051602001610ff1929190918252602082015260400190565b60408051601f19818403018152918152815160209283012084515f9081526006909352912090915061102381836113e7565b6110665782516040517fab96bbb1000000000000000000000000000000000000000000000000000000008152600481019190915260248101839052604401610824565b5f82815260096020526040902054156110b85782516040517f57b3f520000000000000000000000000000000000000000000000000000000008152600481019190915260248101839052604401610824565b82515f90815260056020908152604080832060019081015487518489015184517fe65ce3b6d50c03d1ec4e511c0f90322a7788603f2e664b7dbf436b92bc2d6d4b968101969096526001600160a01b03909216938501849052606085015260808401529092916111409060a001604051602081830303815290604052805190602001206113fe565b6060870151805160208083015160409384015184515f815290920193849052611185949390919093845260ff9290921660208401526040830152606082015260800190565b6020604051602081039080840390855afa1580156111a5573d5f803e3d5ffd5b505050602060405103519050816001600160a01b0316816001600160a01b03161461120f576040517f7ba5ffb50000000000000000000000000000000000000000000000000000000081526001600160a01b03808416600483015282166024820152604401610824565b505050919050565b5f610f418383611445565b6002546001600160a01b03163314610ba9576040517f118cdaa7000000000000000000000000000000000000000000000000000000008152336004820152602401610824565b600280546001600160a01b0383811673ffffffffffffffffffffffffffffffffffffffff19831681179093556040519116919082907f8be0079c531659141344cd1fd0a4f28419497f9722a3daafe3b4186f6b6457e0905f90a35050565b60606112f27f00000000000000000000000000000000000000000000000000000000000000005f611491565b905090565b60606112f27f00000000000000000000000000000000000000000000000000000000000000006001611491565b60605f6113308361153a565b60010190505f8167ffffffffffffffff81111561134f5761134f611a85565b6040519080825280601f01601f191660200182016040528015611379576020820181803683370190505b5090508181016020015b5f19017f3031323334353637383961626364656600000000000000000000000000000000600a86061a8153600a850494508461138357509392505050565b5f825f0182815481106113d6576113d6611f13565b905f5260205f200154905092915050565b5f8181526001830160205260408120541515610f41565b5f6105fd61140a61161b565b836040517f19010000000000000000000000000000000000000000000000000000000000008152600281019290925260228201526042902090565b5f81815260018301602052604081205461148a57508154600181810184555f8481526020808220909301849055845484825282860190935260409020919091556105fd565b505f6105fd565b606060ff83146114ab576114a483611744565b90506105fd565b8180546114b790611f27565b80601f01602080910402602001604051908101604052809291908181526020018280546114e390611f27565b801561152e5780601f106115055761010080835404028352916020019161152e565b820191905f5260205f20905b81548152906001019060200180831161151157829003601f168201915b505050505090506105fd565b5f807a184f03e93ff9f4daa797ed6e38ed64bf6a1f0100000000000000008310611582577a184f03e93ff9f4daa797ed6e38ed64bf6a1f010000000000000000830492506040015b6d04ee2d6d415b85acef810000000083106115ae576d04ee2d6d415b85acef8100000000830492506020015b662386f26fc1000083106115cc57662386f26fc10000830492506010015b6305f5e10083106115e4576305f5e100830492506008015b61271083106115f857612710830492506004015b6064831061160a576064830492506002015b600a83106105fd5760010192915050565b5f306001600160a01b037f00000000000000000000000000000000000000000000000000000000000000001614801561167357507f000000000000000000000000000000000000000000000000000000000000000046145b1561169d57507f000000000000000000000000000000000000000000000000000000000000000090565b6112f2604080517f8b73c3c69bb8fe3d512ecc4cf759cc79239f7b179b0ffacaa9a75d522b39400f60208201527f0000000000000000000000000000000000000000000000000000000000000000918101919091527f000000000000000000000000000000000000000000000000000000000000000060608201524660808201523060a08201525f9060c00160405160208183030381529060405280519060200120905090565b60605f61175083611781565b6040805160208082528183019092529192505f91906020820181803683375050509182525060208101929092525090565b5f60ff8216601f8111156105fd576040517fb3512b0c00000000000000000000000000000000000000000000000000000000815260040160405180910390fd5b5f602082840312156117d1575f80fd5b81356001600160e01b031981168114610f41575f80fd5b5f602082840312156117f8575f80fd5b5035919050565b815180516001600160a01b03168252602080820151908301526040908101519082015260e08101602083015161188260608401826001600160801b0381511682526001600160801b0360208201511660208301526001600160a01b0360408201511660408301526bffffffffffffffffffffffff60608201511660608301525050565b5092915050565b5f81518084528060208401602086015e5f602082860101526020601f19601f83011685010191505092915050565b602081525f610f416020830184611889565b80356001600160a01b03811681146118df575f80fd5b919050565b5f80604083850312156118f5575f80fd5b6118fe836118c9565b946020939093013593505050565b5f805f6060848603121561191e575f80fd5b611927846118c9565b95602085013595506040909401359392505050565b5f8151808452602084019350602083015f5b8281101561196c57815186526020958601959091019060010161194e565b5093949350505050565b602081525f610f41602083018461193c565b5f805f6060848603121561199a575f80fd5b6119a3846118c9565b92506119b1602085016118c9565b929592945050506040919091013590565b608081016105fd82846001600160801b0381511682526001600160801b0360208201511660208301526001600160a01b0360408201511660408301526bffffffffffffffffffffffff60608201511660608301525050565b5f805f60608486031215611a2c575f80fd5b505081359360208301359350604090920135919050565b602080825282518282018190525f918401906040840190835b81811015611a7a578351835260209384019390920191600101611a5c565b509095945050505050565b634e487b7160e01b5f52604160045260245ffd5b6040516080810167ffffffffffffffff81118282101715611abc57611abc611a85565b60405290565b6040516060810167ffffffffffffffff81118282101715611abc57611abc611a85565b604051601f8201601f1916810167ffffffffffffffff81118282101715611b0e57611b0e611a85565b604052919050565b5f81830360c081128015611b28575f80fd5b50611b31611a99565b8335815260208085013590820152604080850135908201526060605f1983011215611b5a575f80fd5b611b62611ac2565b9150606084013560ff81168114611b77575f80fd5b82526080840135602083015260a0909301356040820152606083015250919050565b5f60208284031215611ba9575f80fd5b610f41826118c9565b7fff000000000000000000000000000000000000000000000000000000000000008816815260e060208201525f611bec60e0830189611889565b8281036040840152611bfe8189611889565b90508660608401526001600160a01b03861660808401528460a084015282810360c0840152611c2d818561193c565b9a9950505050505050505050565b5f8060408385031215611c4c575f80fd5b611c55836118c9565b915060208301358015158114611c69575f80fd5b809150509250929050565b5f805f8060808587031215611c87575f80fd5b611c90856118c9565b9350611c9e602086016118c9565b925060408501359150606085013567ffffffffffffffff811115611cc0575f80fd5b8501601f81018713611cd0575f80fd5b803567ffffffffffffffff811115611cea57611cea611a85565b611cfd601f8201601f1916602001611ae5565b818152886020838501011115611d11575f80fd5b816020840160208301375f6020838301015280935050505092959194509250565b81516001600160a01b031681526020808301519082015260408083015190820152606081016105fd565b5f8060408385031215611d6d575f80fd5b611d76836118c9565b9150611d84602084016118c9565b90509250929050565b5f805f60408486031215611d9f575f80fd5b83356001600160801b0381168114611db5575f80fd5b9250602084013567ffffffffffffffff811115611dd0575f80fd5b8401601f81018613611de0575f80fd5b803567ffffffffffffffff811115611df6575f80fd5b8660208260051b8401011115611e0a575f80fd5b939660209190910195509293505050565b634e487b7160e01b5f52601160045260245ffd5b808201808211156105fd576105fd611e1b565b5f60018201611e5357611e53611e1b565b5060010190565b5f81518060208401855e5f93019283525090919050565b5f611e7c8285611e5a565b7f2f7362742f6d657461646174612f0000000000000000000000000000000000008152611eac600e820185611e5a565b7f2e6a736f6e000000000000000000000000000000000000000000000000000000815260050195945050505050565b5f611ee68284611e5a565b7f2f7362742f636f6e74726163745552492e6a736f6e000000000000000000000081526015019392505050565b634e487b7160e01b5f52603260045260245ffd5b600181811c90821680611f3b57607f821691505b602082108103611f5957634e487b7160e01b5f52602260045260245ffd5b5091905056fe68747470733a2f2f32362d736f756c626f756e642e6973746573742e6574682e6c696d6fa2646970667358221220bb0700c490d6ebbe6cb2968366bbb2653373aa63658cf483a24657abf48244f164736f6c634300081a0033ddf252ad1be2c89b69c2b068fc378daa952ba7f163c4a11628f55a4df523b3ef",
  "linkReferences": {},
  "deployedLinkReferences": {}
}